{
  "contractName": "MetadataRegistry",
  "abi": [
    {
      "anonymous": false,
      "inputs": [
        {
          "indexed": false,
          "internalType": "address",
          "name": "sender",
          "type": "address"
        },
        {
          "indexed": false,
          "internalType": "bytes",
          "name": "issuerVc",
          "type": "bytes"
        },
        {
          "indexed": false,
          "internalType": "uint256",
          "name": "listId",
          "type": "uint256"
        },
        {
          "indexed": false,
          "internalType": "bytes2",
          "name": "credentialType",
          "type": "bytes2"
        },
        {
          "indexed": false,
          "internalType": "uint32",
          "name": "index",
          "type": "uint32"
        },
        {
          "indexed": false,
          "internalType": "string",
          "name": "traceId",
          "type": "string"
        },
        {
          "indexed": false,
          "internalType": "string",
          "name": "caoDid",
          "type": "string"
        }
      ],
      "name": "AddedCredentialMetadata",
      "type": "event"
    },
    {
      "anonymous": false,
      "inputs": [
        {
          "indexed": false,
          "internalType": "address",
          "name": "sender",
          "type": "address"
        },
        {
          "indexed": false,
          "internalType": "bytes",
          "name": "issuerVc",
          "type": "bytes"
        },
        {
          "indexed": false,
          "internalType": "uint256",
          "name": "listId",
          "type": "uint256"
        },
        {
          "indexed": false,
          "internalType": "string",
          "name": "traceId",
          "type": "string"
        },
        {
          "indexed": false,
          "internalType": "string",
          "name": "caoDid",
          "type": "string"
        }
      ],
      "name": "CreatedMetadataList",
      "type": "event"
    },
    {
      "inputs": [
        {
          "internalType": "bytes2",
          "name": "",
          "type": "bytes2"
        }
      ],
      "name": "freeCredentialTypes",
      "outputs": [
        {
          "internalType": "bool",
          "name": "",
          "type": "bool"
        }
      ],
      "stateMutability": "view",
      "type": "function"
    },
    {
      "inputs": [
        {
          "internalType": "address",
          "name": "",
          "type": "address"
        },
        {
          "internalType": "uint256",
          "name": "",
          "type": "uint256"
        }
      ],
      "name": "lists",
      "outputs": [
        {
          "internalType": "bytes2",
          "name": "version",
          "type": "bytes2"
        },
        {
          "internalType": "bytes2",
          "name": "algType",
          "type": "bytes2"
        },
        {
          "internalType": "bytes",
          "name": "issuerVc",
          "type": "bytes"
        },
        {
          "internalType": "bool",
          "name": "used",
          "type": "bool"
        }
      ],
      "stateMutability": "view",
      "type": "function"
    },
    {
      "inputs": [
        {
          "internalType": "address",
          "name": "_coupon",
          "type": "address"
        },
        {
          "internalType": "bytes2[]",
          "name": "freeCredentialTypesList",
          "type": "bytes2[]"
        }
      ],
      "name": "initialize",
      "outputs": [],
      "stateMutability": "nonpayable",
      "type": "function"
    },
    {
      "inputs": [
        {
          "internalType": "address",
          "name": "accountId",
          "type": "address"
        },
        {
          "internalType": "uint256",
          "name": "listId",
          "type": "uint256"
        }
      ],
      "name": "isExistMetadataList",
      "outputs": [
        {
          "internalType": "bool",
          "name": "",
          "type": "bool"
        }
      ],
      "stateMutability": "view",
      "type": "function"
    },
    {
      "inputs": [
        {
          "internalType": "uint256",
          "name": "listId",
          "type": "uint256"
        },
        {
          "internalType": "bytes2",
          "name": "algType",
          "type": "bytes2"
        },
        {
          "internalType": "bytes2",
          "name": "version",
          "type": "bytes2"
        },
        {
          "internalType": "bytes",
          "name": "issuerVc",
          "type": "bytes"
        },
        {
          "internalType": "string",
          "name": "traceId",
          "type": "string"
        },
        {
          "internalType": "string",
          "name": "caoDid",
          "type": "string"
        }
      ],
      "name": "newMetadataList",
      "outputs": [],
      "stateMutability": "nonpayable",
      "type": "function"
    },
    {
      "inputs": [
        {
          "internalType": "bytes2",
          "name": "credentialType",
          "type": "bytes2"
        },
        {
          "internalType": "bytes",
          "name": "encryptedPublicKey",
          "type": "bytes"
        },
        {
          "internalType": "uint256",
          "name": "listId",
          "type": "uint256"
        },
        {
          "internalType": "uint32",
          "name": "index",
          "type": "uint32"
        },
        {
          "internalType": "string",
          "name": "traceId",
          "type": "string"
        },
        {
          "internalType": "string",
          "name": "caoDid",
          "type": "string"
        }
      ],
      "name": "setEntry",
      "outputs": [],
      "stateMutability": "nonpayable",
      "type": "function"
    },
    {
      "inputs": [
        {
          "internalType": "bytes2",
          "name": "credentialType",
          "type": "bytes2"
        }
      ],
      "name": "isFreeCredentialType",
      "outputs": [
        {
          "internalType": "bool",
          "name": "",
          "type": "bool"
        }
      ],
      "stateMutability": "view",
      "type": "function"
    },
    {
      "inputs": [
        {
          "internalType": "uint256",
          "name": "_coupon",
          "type": "uint256"
        },
        {
          "components": [
            {
              "internalType": "address",
              "name": "accountId",
              "type": "address"
            },
            {
              "internalType": "uint256",
              "name": "listId",
              "type": "uint256"
            },
            {
              "internalType": "uint32",
              "name": "index",
              "type": "uint32"
            }
          ],
          "internalType": "struct MetadataRegistry.CredentialIdentifier[]",
          "name": "_entryIndexes",
          "type": "tuple[]"
        }
      ],
      "name": "getEntries",
      "outputs": [
        {
          "components": [
            {
              "internalType": "bytes2",
              "name": "version",
              "type": "bytes2"
            },
            {
              "internalType": "bytes2",
              "name": "credentialType",
              "type": "bytes2"
            },
            {
              "internalType": "bytes2",
              "name": "algType",
              "type": "bytes2"
            },
            {
              "internalType": "bytes",
              "name": "encryptedPublicKey",
              "type": "bytes"
            },
            {
              "internalType": "bytes",
              "name": "issuerVc",
              "type": "bytes"
            }
          ],
          "internalType": "struct MetadataRegistry.CredentialMetadata[]",
          "name": "",
          "type": "tuple[]"
        }
      ],
      "stateMutability": "view",
      "type": "function"
    },
    {
      "inputs": [
        {
          "components": [
            {
              "internalType": "address",
              "name": "accountId",
              "type": "address"
            },
            {
              "internalType": "uint256",
              "name": "listId",
              "type": "uint256"
            },
            {
              "internalType": "uint32",
              "name": "index",
              "type": "uint32"
            }
          ],
          "internalType": "struct MetadataRegistry.CredentialIdentifier[]",
          "name": "_entryIndexes",
          "type": "tuple[]"
        }
      ],
      "name": "getEntries",
      "outputs": [
        {
          "components": [
            {
              "internalType": "bytes2",
              "name": "version",
              "type": "bytes2"
            },
            {
              "internalType": "bytes2",
              "name": "credentialType",
              "type": "bytes2"
            },
            {
              "internalType": "bytes2",
              "name": "algType",
              "type": "bytes2"
            },
            {
              "internalType": "bytes",
              "name": "encryptedPublicKey",
              "type": "bytes"
            },
            {
              "internalType": "bytes",
              "name": "issuerVc",
              "type": "bytes"
            }
          ],
          "internalType": "struct MetadataRegistry.CredentialMetadata[]",
          "name": "",
          "type": "tuple[]"
        }
      ],
      "stateMutability": "view",
      "type": "function"
    }
  ],
  "bytecode": "0x608060405234801561001057600080fd5b50611b06806100206000396000f3fe608060405234801561001057600080fd5b50600436106100935760003560e01c80638f6ece41116100665780638f6ece411461014557806392ecd653146101585780639448cc041461016b578063b47ac1b314610198578063c50a2def146101ab57600080fd5b8063134b59ed146100985780631e1f5ea6146100c157806382681bfa146100f4578063891d245e14610109575b600080fd5b6100ab6100a636600461161c565b6101ce565b6040516100b89190611872565b60405180910390f35b6100e46100cf366004611554565b60016020526000908152604090205460ff1681565b60405190151581526020016100b8565b610107610102366004611423565b6103dd565b005b6100e46101173660046114d0565b6001600160a01b03919091166000908152600260208181526040808420948452939052919020015460ff1690565b610107610153366004611661565b61052f565b61010761016636600461156e565b610638565b6100e4610179366004611554565b6001600160f01b03191660009081526001602052604090205460ff1690565b6100ab6101a63660046114f9565b610806565b6101be6101b93660046114d0565b61088e565b6040516100b8949392919061192a565b606060006101db83610956565b90506101e6816111ad565b6103d65760005460405163d9548e5360e01b815260048101869052620100009091046001600160a01b03169063d9548e539060240160206040518083038186803b15801561023357600080fd5b505afa158015610247573d6000803e3d6000fd5b505050506040513d601f19601f8201168201806040525081019061026b9190611534565b156102b55760405162461bcd60e51b8152602060048201526015602482015274151a194818dbdd5c1bdb881a5cc8195e1c1a5c9959605a1b60448201526064015b60405180910390fd5b600060029054906101000a90046001600160a01b03166001600160a01b031663bffa08c68586866040516020016102ed92919061196a565b604051602081830303815290604052805190602001206040518363ffffffff1660e01b8152600401610329929190918252602082015260400190565b60206040518083038186803b15801561034157600080fd5b505afa158015610355573d6000803e3d6000fd5b505050506040513d601f19601f820116820180604052508101906103799190611534565b6103d65760405162461bcd60e51b815260206004820152602860248201527f54686520636f75706f6e2068617320696e76616c696420636f6e74656e74207360448201526769676e617475726560c01b60648201526084016102ac565b9392505050565b600054610100900460ff166103f85760005460ff16156103fc565b303b155b61045f5760405162461bcd60e51b815260206004820152602e60248201527f496e697469616c697a61626c653a20636f6e747261637420697320616c72656160448201526d191e481a5b9a5d1a585b1a5e995960921b60648201526084016102ac565b600054610100900460ff16158015610481576000805461ffff19166101011790555b6000805462010000600160b01b031916620100006001600160a01b038616021781555b82518110156105175760018060008584815181106104d257634e487b7160e01b600052603260045260246000fd5b6020908102919091018101516001600160f01b0319168252810191909152604001600020805460ff19169115159190911790558061050f81611a93565b9150506104a4565b50801561052a576000805461ff00191690555b505050565b3360009081526002602081815260408084208a8552909152909120015460ff16156105935760405162461bcd60e51b8152602060048201526014602482015273131a5cdd081a5908185b1c9958591e481d5cd95960621b60448201526064016102ac565b3360009081526002602090815260408083208984528252909120805460f088811c620100000263ffffffff199092169088901c17178155845190916105df916001840191870190611230565b5060028101805460ff191660011790556040517f788ba2e4c4d09e6aab92832a08b45f7c5fc06147609d13484ddd7f94b1b2c1a29061062790339087908b908890889061170a565b60405180910390a150505050505050565b6127108363ffffffff161061067f5760405162461bcd60e51b815260206004820152600d60248201526c092dcecc2d8d2c840d2dcc8caf609b1b60448201526064016102ac565b336000908152600360209081526040808320878452825280832063ffffffff8716845290915290206002015460ff16156106f05760405162461bcd60e51b8152602060048201526012602482015271125b99195e08185b1c9958591e481d5cd95960721b60448201526064016102ac565b336000908152600260208181526040808420888552909152909120015460ff166107545760405162461bcd60e51b81526020600482015260156024820152744c697374204964206e6f74206176656c6961626c6560581b60448201526064016102ac565b336000908152600360209081526040808320878452825280832063ffffffff871684528252909120805461ffff191660f089901c178155865190916107a0916001840191890190611230565b506002808201805460ff19166001908117909155336000818152602093845260408082208a835290945283902092517f5b3dbf2c1245cb7fe5833a37872aae67caba79bd65f30522e778fc48297376a59361062793019089908c908a908a908a90611766565b6060600061081383610956565b905061081e816111ad565b6108885760405162461bcd60e51b815260206004820152603560248201527f4f6e6c792066726565206372656164656e7469616c2074797065732069732061604482015274363637bbb2b2103bb4ba3437baba1031b7bab837b760591b60648201526084016102ac565b92915050565b60026020908152600092835260408084209091529082529020805460018201805460f083811b9462010000909404901b9291906108ca90611a58565b80601f01602080910402602001604051908101604052809291908181526020018280546108f690611a58565b80156109435780601f1061091857610100808354040283529160200191610943565b820191906000526020600020905b81548152906001019060200180831161092657829003601f168201915b5050506002909301549192505060ff1684565b60606000825167ffffffffffffffff81111561098257634e487b7160e01b600052604160045260246000fd5b6040519080825280602002602001820160405280156109da57816020015b6040805160a08101825260008082526020808301829052928201526060808201819052608082015282526000199092019101816109a05790505b50905060005b83518110156111a65760026000858381518110610a0d57634e487b7160e01b600052603260045260246000fd5b6020026020010151600001516001600160a01b03166001600160a01b031681526020019081526020016000206000858381518110610a5b57634e487b7160e01b600052603260045260246000fd5b60209081029190910181015181015182528101919091526040016000206002015460ff16610abe5760405162461bcd60e51b815260206004820152601060248201526f131a5cdd081a59081b9bdd081d5cd95960821b60448201526064016102ac565b60036000858381518110610ae257634e487b7160e01b600052603260045260246000fd5b6020026020010151600001516001600160a01b03166001600160a01b031681526020019081526020016000206000858381518110610b3057634e487b7160e01b600052603260045260246000fd5b60200260200101516020015181526020019081526020016000206000858381518110610b6c57634e487b7160e01b600052603260045260246000fd5b60209081029190910181015160409081015163ffffffff16835290820192909252016000206002015460ff16610bd55760405162461bcd60e51b815260206004820152600e60248201526d125b99195e081b9bdd081d5cd95960921b60448201526064016102ac565b60026000858381518110610bf957634e487b7160e01b600052603260045260246000fd5b6020026020010151600001516001600160a01b03166001600160a01b031681526020019081526020016000206000858381518110610c4757634e487b7160e01b600052603260045260246000fd5b602002602001015160200151815260200190815260200160002060000160009054906101000a900460f01b828281518110610c9257634e487b7160e01b600052603260045260246000fd5b60209081029190910101516001600160f01b031990911690528351600390600090869084908110610cd357634e487b7160e01b600052603260045260246000fd5b6020026020010151600001516001600160a01b03166001600160a01b031681526020019081526020016000206000858381518110610d2157634e487b7160e01b600052603260045260246000fd5b60200260200101516020015181526020019081526020016000206000858381518110610d5d57634e487b7160e01b600052603260045260246000fd5b60200260200101516040015163ffffffff1663ffffffff16815260200190815260200160002060000160009054906101000a900460f01b828281518110610db457634e487b7160e01b600052603260045260246000fd5b6020026020010151602001906001600160f01b03191690816001600160f01b0319168152505060026000858381518110610dfe57634e487b7160e01b600052603260045260246000fd5b6020026020010151600001516001600160a01b03166001600160a01b031681526020019081526020016000206000858381518110610e4c57634e487b7160e01b600052603260045260246000fd5b602002602001015160200151815260200190815260200160002060000160029054906101000a900460f01b828281518110610e9757634e487b7160e01b600052603260045260246000fd5b6020026020010151604001906001600160f01b03191690816001600160f01b0319168152505060036000858381518110610ee157634e487b7160e01b600052603260045260246000fd5b6020026020010151600001516001600160a01b03166001600160a01b031681526020019081526020016000206000858381518110610f2f57634e487b7160e01b600052603260045260246000fd5b60200260200101516020015181526020019081526020016000206000858381518110610f6b57634e487b7160e01b600052603260045260246000fd5b60200260200101516040015163ffffffff1663ffffffff1681526020019081526020016000206001018054610f9f90611a58565b80601f0160208091040260200160405190810160405280929190818152602001828054610fcb90611a58565b80156110185780601f10610fed57610100808354040283529160200191611018565b820191906000526020600020905b815481529060010190602001808311610ffb57829003601f168201915b505050505082828151811061103d57634e487b7160e01b600052603260045260246000fd5b6020026020010151606001819052506002600085838151811061107057634e487b7160e01b600052603260045260246000fd5b6020026020010151600001516001600160a01b03166001600160a01b0316815260200190815260200160002060008583815181106110be57634e487b7160e01b600052603260045260246000fd5b602002602001015160200151815260200190815260200160002060010180546110e690611a58565b80601f016020809104026020016040519081016040528092919081815260200182805461111290611a58565b801561115f5780601f106111345761010080835404028352916020019161115f565b820191906000526020600020905b81548152906001019060200180831161114257829003601f168201915b505050505082828151811061118457634e487b7160e01b600052603260045260246000fd5b602002602001015160800181905250808061119e90611a93565b9150506109e0565b5092915050565b6000805b8251811015611227576112088382815181106111dd57634e487b7160e01b600052603260045260246000fd5b6020026020010151602001516001600160f01b03191660009081526001602052604090205460ff1690565b6112155750600092915050565b8061121f81611a93565b9150506111b1565b50600192915050565b82805461123c90611a58565b90600052602060002090601f01602090048101928261125e57600085556112a4565b82601f1061127757805160ff19168380011785556112a4565b828001600101855582156112a4579182015b828111156112a4578251825591602001919060010190611289565b506112b09291506112b4565b5090565b5b808211156112b057600081556001016112b5565b80356001600160a01b03811681146112e057600080fd5b919050565b600082601f8301126112f5578081fd5b8135602061130a61130583611a34565b611a03565b82815281810190858301606080860288018501891015611328578687fd5b865b8681101561137e5781838b031215611340578788fd5b6113486119da565b611351846112c9565b81528684013587820152604061136881860161140f565b908201528552938501939181019160010161132a565b509198975050505050505050565b80356001600160f01b0319811681146112e057600080fd5b600082601f8301126113b4578081fd5b813567ffffffffffffffff8111156113ce576113ce611aba565b6113e1601f8201601f1916602001611a03565b8181528460208386010111156113f5578283fd5b816020850160208301379081016020019190915292915050565b803563ffffffff811681146112e057600080fd5b60008060408385031215611435578182fd5b61143e836112c9565b915060208084013567ffffffffffffffff81111561145a578283fd5b8401601f8101861361146a578283fd5b803561147861130582611a34565b80828252848201915084840189868560051b8701011115611497578687fd5b8694505b838510156114c0576114ac8161138c565b83526001949094019391850191850161149b565b5080955050505050509250929050565b600080604083850312156114e2578182fd5b6114eb836112c9565b946020939093013593505050565b60006020828403121561150a578081fd5b813567ffffffffffffffff811115611520578182fd5b61152c848285016112e5565b949350505050565b600060208284031215611545578081fd5b815180151581146103d6578182fd5b600060208284031215611565578081fd5b6103d68261138c565b60008060008060008060c08789031215611586578182fd5b61158f8761138c565b9550602087013567ffffffffffffffff808211156115ab578384fd5b6115b78a838b016113a4565b9650604089013595506115cc60608a0161140f565b945060808901359150808211156115e1578384fd5b6115ed8a838b016113a4565b935060a0890135915080821115611602578283fd5b5061160f89828a016113a4565b9150509295509295509295565b6000806040838503121561162e578182fd5b82359150602083013567ffffffffffffffff81111561164b578182fd5b611657858286016112e5565b9150509250929050565b60008060008060008060c08789031215611679578182fd5b863595506116896020880161138c565b94506116976040880161138c565b9350606087013567ffffffffffffffff808211156116b3578384fd5b6115cc8a838b016113a4565b60008151808452815b818110156116e4576020818501810151868301820152016116c8565b818111156116f55782602083870101525b50601f01601f19169290920160200192915050565b6001600160a01b038616815260a06020820181905260009061172e908301876116bf565b856040840152828103606084015261174681866116bf565b9050828103608084015261175a81856116bf565b98975050505050505050565b60018060a01b03881681526000602060e081840152818954838160011c9050600182168061179557607f821691505b8482108114156117b357634e487b7160e01b86526022600452602486fd5b60e0870182905261010087018180156117d357600181146117e457611810565b60ff19851682528682019550611810565b60008f815260209020885b8581101561180a5781548482015260019091019088016117ef565b83019650505b505050505088604085015261183160608501896001600160f01b0319169052565b63ffffffff8716608085015283810360a085015261184f81876116bf565b91505082810360c084015261186481856116bf565b9a9950505050505050505050565b60006020808301818452808551808352604092508286019150828160051b870101848801865b8381101561191c57888303603f19018552815180516001600160f01b031990811685528882015181168986015287820151168785015260608082015160a082870181905291906118ea838801826116bf565b925050506080808301519250858203818701525061190881836116bf565b968901969450505090860190600101611898565b509098975050505050505050565b6001600160f01b0319858116825284166020820152608060408201819052600090611957908301856116bf565b9050821515606083015295945050505050565b6000604080830185845260208281860152818651808452606093508387019150828801865b828110156119cb57815180516001600160a01b03168552858101518686015287015163ffffffff1687850152928501929084019060010161198f565b50919998505050505050505050565b6040516060810167ffffffffffffffff811182821017156119fd576119fd611aba565b60405290565b604051601f8201601f1916810167ffffffffffffffff81118282101715611a2c57611a2c611aba565b604052919050565b600067ffffffffffffffff821115611a4e57611a4e611aba565b5060051b60200190565b600181811c90821680611a6c57607f821691505b60208210811415611a8d57634e487b7160e01b600052602260045260246000fd5b50919050565b6000600019821415611ab357634e487b7160e01b81526011600452602481fd5b5060010190565b634e487b7160e01b600052604160045260246000fdfea2646970667358221220e5a1bae9c2ce8644282a4794cd15b407c23e75745179f4bc089c0a30df69559264736f6c63430008040033",
  "immutableReferences": {},
  "source": "pragma solidity 0.8.4;\npragma abicoder v2;\n\nimport \"@openzeppelin/contracts-upgradeable/proxy/utils/Initializable.sol\";\nimport \"verification-coupon/contracts/VerificationCoupon.sol\";\n\ncontract MetadataRegistry is Initializable {\n\n    VerificationCoupon internal Coupon;\n\n    struct CredentialEntry {\n        bytes2 credentialType;\n        bytes encryptedPublicKey;\n        bool used;\n    }\n\n    struct ListMetadata {\n        bytes2 version;\n        bytes2 algType;\n        bytes issuerVc;\n        bool used;\n    }\n\n    struct CredentialIdentifier {\n        address accountId;\n        uint256 listId;\n        uint32 index;\n    }\n\n    struct CredentialMetadata {\n        bytes2 version;\n        bytes2 credentialType;\n        bytes2 algType;\n        bytes encryptedPublicKey;\n        bytes issuerVc;\n    }\n\n    mapping(bytes2 => bool) public freeCredentialTypes;\n    mapping(address => mapping(uint256 => ListMetadata)) public lists;\n    mapping(address => mapping(uint256 => mapping(uint32 => CredentialEntry))) internal indexUsed;\n\n    event CreatedMetadataList(address sender, bytes issuerVc, uint256 listId, string traceId, string caoDid);\n    event AddedCredentialMetadata(address sender, bytes issuerVc, uint256 listId, bytes2 credentialType, uint32 index, string traceId, string caoDid);\n\n    function initialize(address _coupon,  bytes2[] memory freeCredentialTypesList) public initializer {\n        Coupon = VerificationCoupon(_coupon);\n        for (uint256 i = 0; i < freeCredentialTypesList.length; i++) {\n            freeCredentialTypes[freeCredentialTypesList[i]] = true;\n        }\n    }\n\n    function isExistMetadataList(address accountId, uint256 listId) public view returns(bool){\n        return lists[accountId][listId].used;\n    }\n\n    function newMetadataList(uint256 listId, bytes2 algType, bytes2 version, bytes memory issuerVc, string memory traceId, string memory caoDid) public {\n        require(!lists[msg.sender][listId].used, \"List id already used\");\n        ListMetadata storage entries = lists[msg.sender][listId];\n        entries.version = version;\n        entries.algType = algType;\n        entries.issuerVc = issuerVc;\n        entries.used = true;\n        emit CreatedMetadataList(msg.sender, issuerVc, listId, traceId, caoDid);\n    }\n\n    function setEntry(\n        bytes2 credentialType,\n        bytes memory encryptedPublicKey,\n        uint256 listId,\n        uint32 index,\n        string memory traceId,\n        string memory caoDid\n    ) public {\n        require(index < 10000, \"Invalid index\");\n        require(!indexUsed[msg.sender][listId][index].used, \"Index already used\");\n        require(lists[msg.sender][listId].used, \"List Id not aveliable\");\n        CredentialEntry storage entryDataLoclal = indexUsed[msg.sender][listId][index];\n        entryDataLoclal.credentialType = credentialType;\n        entryDataLoclal.encryptedPublicKey = encryptedPublicKey;\n        entryDataLoclal.used = true;\n        emit AddedCredentialMetadata(msg.sender, lists[msg.sender][listId].issuerVc, listId, credentialType, index, traceId, caoDid);\n    }\n\n    function isFreeCredentialType(bytes2 credentialType) public view returns(bool){\n        return freeCredentialTypes[credentialType];\n    }\n\n    function isFreeGetEntries(CredentialMetadata[] memory entries) private view returns(bool){\n        for (uint256 i = 0; i < entries.length; i++) {\n            if (!isFreeCredentialType(entries[i].credentialType)) {\n                return false;\n            }\n        }\n        return true;\n    }\n\n    function _getEntries(\n        CredentialIdentifier[] memory _entryIndexes\n    ) private view returns (CredentialMetadata[] memory) {\n        CredentialMetadata[] memory entries = new CredentialMetadata[](\n            _entryIndexes.length\n        );\n        for (uint256 i = 0; i < _entryIndexes.length; i++) {\n            require(lists[_entryIndexes[i].accountId][_entryIndexes[i].listId].used, \"List id not used\");\n            require(indexUsed[_entryIndexes[i].accountId][_entryIndexes[i].listId][_entryIndexes[i].index].used, \"Index not used\");\n            entries[i].version = lists[_entryIndexes[i].accountId][_entryIndexes[i].listId].version;\n            entries[i].credentialType = indexUsed[_entryIndexes[i].accountId][_entryIndexes[i].listId][_entryIndexes[i].index].credentialType;\n            entries[i].algType = lists[_entryIndexes[i].accountId][_entryIndexes[i].listId].algType;\n            entries[i].encryptedPublicKey = indexUsed[_entryIndexes[i].accountId][_entryIndexes[i].listId][_entryIndexes[i].index].encryptedPublicKey;\n            entries[i].issuerVc = lists[_entryIndexes[i].accountId][_entryIndexes[i].listId].issuerVc;\n        }\n        return entries;\n    }\n\n    function getEntries(\n        CredentialIdentifier[] memory _entryIndexes\n    ) public view returns (CredentialMetadata[] memory) {\n        CredentialMetadata[] memory entries = _getEntries(_entryIndexes);\n        require(isFreeGetEntries(entries), 'Only free creadential types is allowed without coupon');\n        return entries;\n    }\n\n    function getEntries(\n        uint256 _coupon,\n        CredentialIdentifier[] memory _entryIndexes\n    ) public view returns (CredentialMetadata[] memory) {\n        CredentialMetadata[] memory entries = _getEntries(_entryIndexes);\n        if (!isFreeGetEntries(entries)) {\n            require(!Coupon.isExpired(_coupon), \"The coupon is expired\");\n            require(Coupon.isValid(_coupon, keccak256(abi.encode(_coupon, _entryIndexes))), \"The coupon has invalid content signature\");\n        }\n        return entries;\n    }\n\n}\n",
  "sourcePath": "/home/ivan_vodzich/Projects/velocity/blockchain-contracts/src/contracts/metadata-registry/contracts/MetadataRegistry.sol",
  "compiler": {
    "name": "solc",
    "version": "0.8.4+commit.c7e474f2.Emscripten.clang"
  },
  "schemaVersion": "3.4.1",
  "updatedAt": "2022-01-12T00:22:44.111Z",
  "devdoc": {
    "kind": "dev",
    "methods": {},
    "version": 1
  },
  "userdoc": {
    "kind": "user",
    "methods": {},
    "version": 1
  }
}