{
  "contractName": "RevocationRegistry",
  "abi": [
    {
      "anonymous": false,
      "inputs": [
        {
          "indexed": false,
          "internalType": "address",
          "name": "wallet",
          "type": "address"
        },
        {
          "indexed": false,
          "internalType": "uint256",
          "name": "listId",
          "type": "uint256"
        },
        {
          "indexed": false,
          "internalType": "string",
          "name": "traceId",
          "type": "string"
        },
        {
          "indexed": false,
          "internalType": "string",
          "name": "caoDid",
          "type": "string"
        }
      ],
      "name": "RevocationListCreate",
      "type": "event"
    },
    {
      "anonymous": false,
      "inputs": [
        {
          "indexed": false,
          "internalType": "address",
          "name": "owner",
          "type": "address"
        },
        {
          "indexed": false,
          "internalType": "uint256",
          "name": "listId",
          "type": "uint256"
        },
        {
          "indexed": false,
          "internalType": "uint32",
          "name": "index",
          "type": "uint32"
        },
        {
          "indexed": false,
          "internalType": "string",
          "name": "traceId",
          "type": "string"
        },
        {
          "indexed": false,
          "internalType": "string",
          "name": "caoDid",
          "type": "string"
        }
      ],
      "name": "RevokedStatusUpdate",
      "type": "event"
    },
    {
      "anonymous": false,
      "inputs": [
        {
          "indexed": false,
          "internalType": "address",
          "name": "wallet",
          "type": "address"
        },
        {
          "indexed": false,
          "internalType": "string",
          "name": "traceId",
          "type": "string"
        },
        {
          "indexed": false,
          "internalType": "string",
          "name": "caoDid",
          "type": "string"
        }
      ],
      "name": "WalletAdded",
      "type": "event"
    },
    {
      "inputs": [
        {
          "internalType": "address",
          "name": "",
          "type": "address"
        }
      ],
      "name": "registry",
      "outputs": [
        {
          "internalType": "bool",
          "name": "walletInRegistry",
          "type": "bool"
        },
        {
          "internalType": "uint256",
          "name": "totalLists",
          "type": "uint256"
        }
      ],
      "stateMutability": "view",
      "type": "function"
    },
    {
      "inputs": [],
      "name": "initialize",
      "outputs": [],
      "stateMutability": "nonpayable",
      "type": "function"
    },
    {
      "inputs": [
        {
          "internalType": "address",
          "name": "wallet",
          "type": "address"
        }
      ],
      "name": "isWalletExist",
      "outputs": [
        {
          "internalType": "bool",
          "name": "",
          "type": "bool"
        }
      ],
      "stateMutability": "view",
      "type": "function"
    },
    {
      "inputs": [
        {
          "internalType": "address",
          "name": "wallet",
          "type": "address"
        },
        {
          "internalType": "uint256",
          "name": "listId",
          "type": "uint256"
        }
      ],
      "name": "isListExist",
      "outputs": [
        {
          "internalType": "bool",
          "name": "",
          "type": "bool"
        }
      ],
      "stateMutability": "view",
      "type": "function"
    },
    {
      "inputs": [
        {
          "internalType": "string",
          "name": "traceId",
          "type": "string"
        },
        {
          "internalType": "string",
          "name": "caoDid",
          "type": "string"
        }
      ],
      "name": "addWallet",
      "outputs": [],
      "stateMutability": "nonpayable",
      "type": "function"
    },
    {
      "inputs": [
        {
          "internalType": "uint256",
          "name": "listId",
          "type": "uint256"
        },
        {
          "internalType": "string",
          "name": "traceId",
          "type": "string"
        },
        {
          "internalType": "string",
          "name": "caoDid",
          "type": "string"
        }
      ],
      "name": "addRevocationList",
      "outputs": [],
      "stateMutability": "nonpayable",
      "type": "function"
    },
    {
      "inputs": [
        {
          "internalType": "uint256",
          "name": "listId",
          "type": "uint256"
        },
        {
          "internalType": "uint32",
          "name": "index",
          "type": "uint32"
        },
        {
          "internalType": "string",
          "name": "traceId",
          "type": "string"
        },
        {
          "internalType": "string",
          "name": "caoDid",
          "type": "string"
        }
      ],
      "name": "setRevokedStatus",
      "outputs": [],
      "stateMutability": "nonpayable",
      "type": "function"
    },
    {
      "inputs": [
        {
          "internalType": "address",
          "name": "wallet",
          "type": "address"
        },
        {
          "internalType": "uint256",
          "name": "listId",
          "type": "uint256"
        },
        {
          "internalType": "uint32",
          "name": "index",
          "type": "uint32"
        }
      ],
      "name": "getRevokedStatus",
      "outputs": [
        {
          "internalType": "uint8",
          "name": "revokedStatus",
          "type": "uint8"
        }
      ],
      "stateMutability": "view",
      "type": "function"
    },
    {
      "inputs": [],
      "name": "getRevocationListCount",
      "outputs": [
        {
          "internalType": "uint256",
          "name": "",
          "type": "uint256"
        }
      ],
      "stateMutability": "view",
      "type": "function"
    }
  ],
  "bytecode": "0x608060405234801561001057600080fd5b50610e0a806100206000396000f3fe608060405234801561001057600080fd5b50600436106100935760003560e01c806393d630f01161006657806393d630f014610121578063c86cb67a14610146578063cb7dfa2214610159578063f4aa03cb1461016f578063f97cbecd1461018257600080fd5b8063038defd7146100985780630b3738ac146100e15780634d5fff6d146101045780638129fc1c14610119575b600080fd5b6100c56100a63660046109cc565b6001602081905260009182526040909120805491015460ff9091169082565b6040805192151583526020830191909152015b60405180910390f35b6100f46100ef3660046109ed565b610195565b60405190151581526020016100d8565b610117610112366004610b1c565b6101c4565b005b610117610376565b61013461012f366004610a16565b61042f565b60405160ff90911681526020016100d8565b610117610154366004610ab2565b610568565b6101616106fc565b6040519081526020016100d8565b61011761017d366004610a51565b61073b565b6100f46101903660046109cc565b6107f0565b6001600160a01b0391909116600090815260016020908152604080832093835260029093019052205460ff1690565b6101cd336107f0565b6101f25760405162461bcd60e51b81526004016101e990610cf7565b60405180910390fd5b6128008363ffffffff16106102435760405162461bcd60e51b81526020600482015260176024820152761b1a5cdd081a5b99195e081bdd5d081bd988189bdd5b99604a1b60448201526064016101e9565b61024d3385610195565b6102695760405162461bcd60e51b81526004016101e990610cab565b6000806102788561010061080e565b3360009081526001602090815260408083208b8452600301909152812080549395509193509163ffffffff85169081106102c257634e487b7160e01b600052603260045260246000fd5b6000918252602080832090910154338352600180835260408085208c865260030190935291909220805492935063ffffffff8086169290921b9283851792871690811061031f57634e487b7160e01b600052603260045260246000fd5b90600052602060002001819055507f9c46ae7085c08a60e51dfbb0e4ddaa4dca98233a0d548b0b0975ac638d4be1b83389898989604051610364959493929190610c66565b60405180910390a15050505050505050565b600054610100900460ff166103915760005460ff1615610395565b303b155b6103f85760405162461bcd60e51b815260206004820152602e60248201527f496e697469616c697a61626c653a20636f6e747261637420697320616c72656160448201526d191e481a5b9a5d1a585b1a5e995960921b60648201526084016101e9565b600054610100900460ff1615801561041a576000805461ffff19166101011790555b801561042c576000805461ff00191690555b50565b60006128008263ffffffff16106104825760405162461bcd60e51b81526020600482015260176024820152761b1a5cdd081a5b99195e081bdd5d081bd988189bdd5b99604a1b60448201526064016101e9565b61048b846107f0565b6104a75760405162461bcd60e51b81526004016101e990610cf7565b6104b18484610195565b6104cd5760405162461bcd60e51b81526004016101e990610cab565b6000806104dc8461010061080e565b6001600160a01b03881660009081526001602081815260408084208b85526003019091528220805494965092945063ffffffff8086169190911b93919284929091871690811061053c57634e487b7160e01b600052603260045260246000fd5b906000526020600020015416905061055c8363ffffffff1682901c610859565b98975050505050505050565b610571336107f0565b61058d5760405162461bcd60e51b81526004016101e990610cf7565b6105973384610195565b156105f85760405162461bcd60e51b815260206004820152602b60248201527f7265766f636174696f6e206c697374207769746820676976656e20696420616c60448201526a1c9958591e48195e1a5cdd60aa1b60648201526084016101e9565b33600090815260016020526040812090610616610100612800610d27565b67ffffffffffffffff81111561063c57634e487b7160e01b600052604160045260246000fd5b604051908082528060200260200182016040528015610665578160200160208202803683370190505b5060008681526002840160209081526040808320805460ff1916600117905560038601825290912082519293506106a09290918401906108be565b506001820180549060006106b383610d5e565b91905055507fd89088221762844f5543989c5f9c2fcd590af3f025969478b23f67f880351622338686866040516106ed9493929190610c22565b60405180910390a15050505050565b6000610707336107f0565b6107235760405162461bcd60e51b81526004016101e990610cf7565b50336000908152600160208190526040909120015490565b610744336107f0565b156107915760405162461bcd60e51b815260206004820152601a60248201527f77616c6c657420616c726561647920696e20726567697374727900000000000060448201526064016101e9565b33600081815260016020819052604091829020805460ff19169091178155905190917f7b40516caa9d605d0548095089dc3d94f4956f34258f93c3892dec91c95f6dbb916107e3919086908690610be2565b60405180910390a1505050565b6001600160a01b031660009081526001602052604090205460ff1690565b6000808263ffffffff168463ffffffff16101561083057506000905082610852565b600061083c8486610d3b565b9050600061084a8587610d85565b919350909150505b9250929050565b600061010082106108ba5760405162461bcd60e51b815260206004820152602560248201527f53616665436173743a2076616c756520646f65736e27742066697420696e2038604482015264206269747360d81b60648201526084016101e9565b5090565b8280548282559060005260206000209081019282156108f9579160200282015b828111156108f95782518255916020019190600101906108de565b506108ba9291505b808211156108ba5760008155600101610901565b80356001600160a01b038116811461092c57600080fd5b919050565b600082601f830112610941578081fd5b813567ffffffffffffffff8082111561095c5761095c610dbe565b604051601f8301601f19908116603f0116810190828211818310171561098457610984610dbe565b8160405283815286602085880101111561099c578485fd5b8360208701602083013792830160200193909352509392505050565b803563ffffffff8116811461092c57600080fd5b6000602082840312156109dd578081fd5b6109e682610915565b9392505050565b600080604083850312156109ff578081fd5b610a0883610915565b946020939093013593505050565b600080600060608486031215610a2a578081fd5b610a3384610915565b925060208401359150610a48604085016109b8565b90509250925092565b60008060408385031215610a63578182fd5b823567ffffffffffffffff80821115610a7a578384fd5b610a8686838701610931565b93506020850135915080821115610a9b578283fd5b50610aa885828601610931565b9150509250929050565b600080600060608486031215610ac6578283fd5b83359250602084013567ffffffffffffffff80821115610ae4578384fd5b610af087838801610931565b93506040860135915080821115610b05578283fd5b50610b1286828701610931565b9150509250925092565b60008060008060808587031215610b31578081fd5b84359350610b41602086016109b8565b9250604085013567ffffffffffffffff80821115610b5d578283fd5b610b6988838901610931565b93506060870135915080821115610b7e578283fd5b50610b8b87828801610931565b91505092959194509250565b60008151808452815b81811015610bbc57602081850181015186830182015201610ba0565b81811115610bcd5782602083870101525b50601f01601f19169290920160200192915050565b6001600160a01b0384168152606060208201819052600090610c0690830185610b97565b8281036040840152610c188185610b97565b9695505050505050565b60018060a01b0385168152836020820152608060408201526000610c496080830185610b97565b8281036060840152610c5b8185610b97565b979650505050505050565b60018060a01b038616815284602082015263ffffffff8416604082015260a060608201526000610c9960a0830185610b97565b828103608084015261055c8185610b97565b6020808252602c908201527f7265766f636174696f6e206c697374207769746820676976656e20696420646f60408201526b195cc81b9bdd08195e1a5cdd60a21b606082015260800190565b60208082526016908201527577616c6c6574206e6f7420696e20726567697374727960501b604082015260600190565b600082610d3657610d36610da8565b500490565b600063ffffffff80841680610d5257610d52610da8565b92169190910492915050565b6000600019821415610d7e57634e487b7160e01b81526011600452602481fd5b5060010190565b600063ffffffff80841680610d9c57610d9c610da8565b92169190910692915050565b634e487b7160e01b600052601260045260246000fd5b634e487b7160e01b600052604160045260246000fdfea2646970667358221220bf7a8c24f966895d551d458b73715632a12a50f434c954a98eb6b12f10ac576c64736f6c63430008040033",
  "immutableReferences": {},
  "source": "// SPDX-License-Identifier: MIT\n\npragma solidity 0.8.4;\n\nimport \"@openzeppelin/contracts-upgradeable/proxy/utils/Initializable.sol\";\n\nlibrary SafeCast {\n    function toUint8(uint256 value) internal pure returns (uint8) {\n        require(value < 2**8, \"SafeCast: value doesn't fit in 8 bits\");\n        return uint8(value);\n    }\n}\n\ncontract RevocationRegistry is Initializable {\n    uint256 private constant REVOCATION_LIST_LENGTH = 10240;\n    uint256 private constant REVOCATION_ARRAY_SIZE =\n        REVOCATION_LIST_LENGTH / 256;\n\n    struct WalletRevocationRegistry {\n        bool walletInRegistry;\n        uint256 totalLists;\n        mapping(uint256 => bool) listIdUsage;\n        mapping(uint256 => uint256[]) lists;\n    }\n\n    mapping(address => WalletRevocationRegistry) public registry;\n\n    event WalletAdded(address wallet, string traceId, string caoDid);\n    event RevocationListCreate(address wallet, uint256 listId, string traceId, string caoDid);\n    event RevokedStatusUpdate(address owner, uint256 listId, uint32 index, string traceId, string caoDid);\n\n    function initialize() public initializer {\n    }\n\n    function isWalletExist(address wallet) public view returns (bool) {\n        return registry[wallet].walletInRegistry;\n    }\n\n    modifier existingWallet() {\n        require(isWalletExist(msg.sender), \"wallet not in registry\");\n        _;\n    }\n\n    function isListExist(address wallet, uint256 listId)\n        public\n        view\n        returns (bool)\n    {\n        return registry[wallet].listIdUsage[listId];\n    }\n\n    function getPositionAndOffset(uint32 position, uint32 divider)\n        private\n        pure\n        returns (uint32, uint32)\n    {\n        if (position < divider) {\n            return (0, position);\n        }\n\n        uint32 pos = position / divider;\n        uint32 offset = position % divider;\n\n        return (pos, offset);\n    }\n\n    function addWallet(string memory traceId, string memory caoDid) public {\n        require(!isWalletExist(msg.sender), \"wallet already in registry\");\n\n        WalletRevocationRegistry storage walletRegistry = registry[msg.sender];\n\n        walletRegistry.walletInRegistry = true;\n\n        emit WalletAdded(msg.sender, traceId, caoDid);\n    }\n\n    function addRevocationList(uint256 listId, string memory traceId, string memory caoDid) public existingWallet {\n        require(!isListExist(msg.sender, listId), \"revocation list with given id already exist\");\n\n        WalletRevocationRegistry storage walletRegistry = registry[msg.sender];\n\n        uint256[] memory revocationList = new uint256[](REVOCATION_ARRAY_SIZE);\n\n        walletRegistry.listIdUsage[listId] = true;\n        walletRegistry.lists[listId] = revocationList;\n        walletRegistry.totalLists++;\n\n        emit RevocationListCreate(msg.sender, listId, traceId, caoDid);\n    }\n\n    function setRevokedStatus(uint256 listId, uint32 index, string memory traceId, string memory caoDid)\n        public\n        existingWallet\n    {\n        require(index < REVOCATION_LIST_LENGTH, \"list index out of bound\");\n        require(isListExist(msg.sender, listId), \"revocation list with given id does not exist\");\n\n        (uint32 pos, uint32 offset) = getPositionAndOffset(index, 256);\n\n        uint256 currentValue = registry[msg.sender].lists[listId][pos];\n        uint256 bitValue = 1 << offset;\n\n        registry[msg.sender].lists[listId][pos] = currentValue | bitValue;\n\n        emit RevokedStatusUpdate(msg.sender, listId, index, traceId, caoDid);\n    }\n\n    function getRevokedStatus(\n        address wallet,\n        uint256 listId,\n        uint32 index\n    ) public view returns (uint8 revokedStatus) {\n\n        require(index < REVOCATION_LIST_LENGTH, \"list index out of bound\");\n        require(isWalletExist(wallet), \"wallet not in registry\");\n        require(isListExist(wallet, listId),\"revocation list with given id does not exist\");\n\n        (uint32 pos, uint32 offset) = getPositionAndOffset(index, 256);\n\n        uint256 mask = 1 << offset;\n        uint256 maskedValue = registry[wallet].lists[listId][pos] & mask;\n        revokedStatus = SafeCast.toUint8(maskedValue >> offset);\n\n        return revokedStatus;\n    }\n\n    function getRevocationListCount()\n        external\n        view\n        existingWallet\n        returns (uint256)\n    {\n        return registry[msg.sender].totalLists;\n    }\n}\n",
  "sourcePath": "/home/ivan_vodzich/Projects/velocity/blockchain-contracts/src/contracts/revocation-list/contracts/RevocationRegistry.sol",
  "compiler": {
    "name": "solc",
    "version": "0.8.4+commit.c7e474f2.Emscripten.clang"
  },
  "schemaVersion": "3.4.1",
  "updatedAt": "2022-01-12T00:22:11.506Z",
  "devdoc": {
    "kind": "dev",
    "methods": {},
    "version": 1
  },
  "userdoc": {
    "kind": "user",
    "methods": {},
    "version": 1
  }
}