{
  "contractName": "VerificationCoupon",
  "abi": [
    {
      "anonymous": false,
      "inputs": [
        {
          "indexed": true,
          "internalType": "address",
          "name": "owner",
          "type": "address"
        },
        {
          "indexed": true,
          "internalType": "address",
          "name": "approved",
          "type": "address"
        },
        {
          "indexed": true,
          "internalType": "uint256",
          "name": "tokenId",
          "type": "uint256"
        }
      ],
      "name": "Approval",
      "type": "event"
    },
    {
      "anonymous": false,
      "inputs": [
        {
          "indexed": true,
          "internalType": "address",
          "name": "owner",
          "type": "address"
        },
        {
          "indexed": true,
          "internalType": "address",
          "name": "operator",
          "type": "address"
        },
        {
          "indexed": false,
          "internalType": "bool",
          "name": "approved",
          "type": "bool"
        }
      ],
      "name": "ApprovalForAll",
      "type": "event"
    },
    {
      "anonymous": false,
      "inputs": [
        {
          "indexed": false,
          "internalType": "address",
          "name": "owner",
          "type": "address"
        },
        {
          "indexed": false,
          "internalType": "uint256",
          "name": "bundleId",
          "type": "uint256"
        },
        {
          "indexed": false,
          "internalType": "uint256",
          "name": "tokenId",
          "type": "uint256"
        },
        {
          "indexed": false,
          "internalType": "string",
          "name": "traceId",
          "type": "string"
        },
        {
          "indexed": false,
          "internalType": "string",
          "name": "caoDid",
          "type": "string"
        },
        {
          "indexed": false,
          "internalType": "string",
          "name": "burnerDid",
          "type": "string"
        }
      ],
      "name": "BurnCoupon",
      "type": "event"
    },
    {
      "anonymous": false,
      "inputs": [
        {
          "indexed": false,
          "internalType": "address",
          "name": "owner",
          "type": "address"
        },
        {
          "indexed": false,
          "internalType": "uint256",
          "name": "tokenId",
          "type": "uint256"
        },
        {
          "indexed": false,
          "internalType": "string",
          "name": "traceId",
          "type": "string"
        },
        {
          "indexed": false,
          "internalType": "string",
          "name": "caoDid",
          "type": "string"
        }
      ],
      "name": "CouponContentSignature",
      "type": "event"
    },
    {
      "anonymous": false,
      "inputs": [
        {
          "indexed": false,
          "internalType": "address",
          "name": "owner",
          "type": "address"
        },
        {
          "indexed": false,
          "internalType": "uint256",
          "name": "tokenId",
          "type": "uint256"
        },
        {
          "indexed": false,
          "internalType": "uint256",
          "name": "expirationTime",
          "type": "uint256"
        },
        {
          "indexed": false,
          "internalType": "string",
          "name": "traceId",
          "type": "string"
        },
        {
          "indexed": false,
          "internalType": "string",
          "name": "ownerDid",
          "type": "string"
        }
      ],
      "name": "MintCoupon",
      "type": "event"
    },
    {
      "anonymous": false,
      "inputs": [
        {
          "indexed": false,
          "internalType": "address",
          "name": "owner",
          "type": "address"
        },
        {
          "indexed": false,
          "internalType": "uint256",
          "name": "tokenId",
          "type": "uint256"
        },
        {
          "indexed": false,
          "internalType": "uint256",
          "name": "expirationTime",
          "type": "uint256"
        },
        {
          "indexed": false,
          "internalType": "uint256",
          "name": "bundleId",
          "type": "uint256"
        },
        {
          "indexed": false,
          "internalType": "uint256",
          "name": "quantity",
          "type": "uint256"
        },
        {
          "indexed": false,
          "internalType": "string",
          "name": "traceId",
          "type": "string"
        },
        {
          "indexed": false,
          "internalType": "string",
          "name": "ownerDid",
          "type": "string"
        }
      ],
      "name": "MintCouponBundle",
      "type": "event"
    },
    {
      "anonymous": false,
      "inputs": [
        {
          "indexed": true,
          "internalType": "bytes32",
          "name": "role",
          "type": "bytes32"
        },
        {
          "indexed": true,
          "internalType": "bytes32",
          "name": "previousAdminRole",
          "type": "bytes32"
        },
        {
          "indexed": true,
          "internalType": "bytes32",
          "name": "newAdminRole",
          "type": "bytes32"
        }
      ],
      "name": "RoleAdminChanged",
      "type": "event"
    },
    {
      "anonymous": false,
      "inputs": [
        {
          "indexed": true,
          "internalType": "bytes32",
          "name": "role",
          "type": "bytes32"
        },
        {
          "indexed": true,
          "internalType": "address",
          "name": "account",
          "type": "address"
        },
        {
          "indexed": true,
          "internalType": "address",
          "name": "sender",
          "type": "address"
        }
      ],
      "name": "RoleGranted",
      "type": "event"
    },
    {
      "anonymous": false,
      "inputs": [
        {
          "indexed": true,
          "internalType": "bytes32",
          "name": "role",
          "type": "bytes32"
        },
        {
          "indexed": true,
          "internalType": "address",
          "name": "account",
          "type": "address"
        },
        {
          "indexed": true,
          "internalType": "address",
          "name": "sender",
          "type": "address"
        }
      ],
      "name": "RoleRevoked",
      "type": "event"
    },
    {
      "anonymous": false,
      "inputs": [
        {
          "indexed": true,
          "internalType": "address",
          "name": "from",
          "type": "address"
        },
        {
          "indexed": true,
          "internalType": "address",
          "name": "to",
          "type": "address"
        },
        {
          "indexed": true,
          "internalType": "uint256",
          "name": "tokenId",
          "type": "uint256"
        }
      ],
      "name": "Transfer",
      "type": "event"
    },
    {
      "inputs": [],
      "name": "DEFAULT_ADMIN_ROLE",
      "outputs": [
        {
          "internalType": "bytes32",
          "name": "",
          "type": "bytes32"
        }
      ],
      "stateMutability": "view",
      "type": "function"
    },
    {
      "inputs": [],
      "name": "MINTER_ROLE",
      "outputs": [
        {
          "internalType": "bytes32",
          "name": "",
          "type": "bytes32"
        }
      ],
      "stateMutability": "view",
      "type": "function"
    },
    {
      "inputs": [
        {
          "internalType": "address",
          "name": "to",
          "type": "address"
        },
        {
          "internalType": "uint256",
          "name": "tokenId",
          "type": "uint256"
        }
      ],
      "name": "approve",
      "outputs": [],
      "stateMutability": "nonpayable",
      "type": "function"
    },
    {
      "inputs": [
        {
          "internalType": "address",
          "name": "owner",
          "type": "address"
        }
      ],
      "name": "balanceOf",
      "outputs": [
        {
          "internalType": "uint256",
          "name": "",
          "type": "uint256"
        }
      ],
      "stateMutability": "view",
      "type": "function"
    },
    {
      "inputs": [
        {
          "internalType": "uint256",
          "name": "tokenId",
          "type": "uint256"
        }
      ],
      "name": "getApproved",
      "outputs": [
        {
          "internalType": "address",
          "name": "",
          "type": "address"
        }
      ],
      "stateMutability": "view",
      "type": "function"
    },
    {
      "inputs": [
        {
          "internalType": "bytes32",
          "name": "role",
          "type": "bytes32"
        }
      ],
      "name": "getRoleAdmin",
      "outputs": [
        {
          "internalType": "bytes32",
          "name": "",
          "type": "bytes32"
        }
      ],
      "stateMutability": "view",
      "type": "function"
    },
    {
      "inputs": [
        {
          "internalType": "bytes32",
          "name": "role",
          "type": "bytes32"
        },
        {
          "internalType": "uint256",
          "name": "index",
          "type": "uint256"
        }
      ],
      "name": "getRoleMember",
      "outputs": [
        {
          "internalType": "address",
          "name": "",
          "type": "address"
        }
      ],
      "stateMutability": "view",
      "type": "function"
    },
    {
      "inputs": [
        {
          "internalType": "bytes32",
          "name": "role",
          "type": "bytes32"
        }
      ],
      "name": "getRoleMemberCount",
      "outputs": [
        {
          "internalType": "uint256",
          "name": "",
          "type": "uint256"
        }
      ],
      "stateMutability": "view",
      "type": "function"
    },
    {
      "inputs": [
        {
          "internalType": "bytes32",
          "name": "role",
          "type": "bytes32"
        },
        {
          "internalType": "address",
          "name": "account",
          "type": "address"
        }
      ],
      "name": "grantRole",
      "outputs": [],
      "stateMutability": "nonpayable",
      "type": "function"
    },
    {
      "inputs": [
        {
          "internalType": "bytes32",
          "name": "role",
          "type": "bytes32"
        },
        {
          "internalType": "address",
          "name": "account",
          "type": "address"
        }
      ],
      "name": "hasRole",
      "outputs": [
        {
          "internalType": "bool",
          "name": "",
          "type": "bool"
        }
      ],
      "stateMutability": "view",
      "type": "function"
    },
    {
      "inputs": [
        {
          "internalType": "address",
          "name": "owner",
          "type": "address"
        },
        {
          "internalType": "address",
          "name": "operator",
          "type": "address"
        }
      ],
      "name": "isApprovedForAll",
      "outputs": [
        {
          "internalType": "bool",
          "name": "",
          "type": "bool"
        }
      ],
      "stateMutability": "view",
      "type": "function"
    },
    {
      "inputs": [],
      "name": "name",
      "outputs": [
        {
          "internalType": "string",
          "name": "",
          "type": "string"
        }
      ],
      "stateMutability": "view",
      "type": "function"
    },
    {
      "inputs": [
        {
          "internalType": "uint256",
          "name": "tokenId",
          "type": "uint256"
        }
      ],
      "name": "ownerOf",
      "outputs": [
        {
          "internalType": "address",
          "name": "",
          "type": "address"
        }
      ],
      "stateMutability": "view",
      "type": "function"
    },
    {
      "inputs": [
        {
          "internalType": "bytes32",
          "name": "role",
          "type": "bytes32"
        },
        {
          "internalType": "address",
          "name": "account",
          "type": "address"
        }
      ],
      "name": "renounceRole",
      "outputs": [],
      "stateMutability": "nonpayable",
      "type": "function"
    },
    {
      "inputs": [
        {
          "internalType": "bytes32",
          "name": "role",
          "type": "bytes32"
        },
        {
          "internalType": "address",
          "name": "account",
          "type": "address"
        }
      ],
      "name": "revokeRole",
      "outputs": [],
      "stateMutability": "nonpayable",
      "type": "function"
    },
    {
      "inputs": [
        {
          "internalType": "address",
          "name": "from",
          "type": "address"
        },
        {
          "internalType": "address",
          "name": "to",
          "type": "address"
        },
        {
          "internalType": "uint256",
          "name": "tokenId",
          "type": "uint256"
        }
      ],
      "name": "safeTransferFrom",
      "outputs": [],
      "stateMutability": "nonpayable",
      "type": "function"
    },
    {
      "inputs": [
        {
          "internalType": "address",
          "name": "from",
          "type": "address"
        },
        {
          "internalType": "address",
          "name": "to",
          "type": "address"
        },
        {
          "internalType": "uint256",
          "name": "tokenId",
          "type": "uint256"
        },
        {
          "internalType": "bytes",
          "name": "_data",
          "type": "bytes"
        }
      ],
      "name": "safeTransferFrom",
      "outputs": [],
      "stateMutability": "nonpayable",
      "type": "function"
    },
    {
      "inputs": [
        {
          "internalType": "address",
          "name": "operator",
          "type": "address"
        },
        {
          "internalType": "bool",
          "name": "approved",
          "type": "bool"
        }
      ],
      "name": "setApprovalForAll",
      "outputs": [],
      "stateMutability": "nonpayable",
      "type": "function"
    },
    {
      "inputs": [],
      "name": "symbol",
      "outputs": [
        {
          "internalType": "string",
          "name": "",
          "type": "string"
        }
      ],
      "stateMutability": "view",
      "type": "function"
    },
    {
      "inputs": [
        {
          "internalType": "uint256",
          "name": "index",
          "type": "uint256"
        }
      ],
      "name": "tokenByIndex",
      "outputs": [
        {
          "internalType": "uint256",
          "name": "",
          "type": "uint256"
        }
      ],
      "stateMutability": "view",
      "type": "function"
    },
    {
      "inputs": [
        {
          "internalType": "address",
          "name": "owner",
          "type": "address"
        },
        {
          "internalType": "uint256",
          "name": "index",
          "type": "uint256"
        }
      ],
      "name": "tokenOfOwnerByIndex",
      "outputs": [
        {
          "internalType": "uint256",
          "name": "",
          "type": "uint256"
        }
      ],
      "stateMutability": "view",
      "type": "function"
    },
    {
      "inputs": [
        {
          "internalType": "uint256",
          "name": "tokenId",
          "type": "uint256"
        }
      ],
      "name": "tokenURI",
      "outputs": [
        {
          "internalType": "string",
          "name": "",
          "type": "string"
        }
      ],
      "stateMutability": "view",
      "type": "function"
    },
    {
      "inputs": [],
      "name": "totalSupply",
      "outputs": [
        {
          "internalType": "uint256",
          "name": "",
          "type": "uint256"
        }
      ],
      "stateMutability": "view",
      "type": "function"
    },
    {
      "inputs": [
        {
          "internalType": "address",
          "name": "from",
          "type": "address"
        },
        {
          "internalType": "address",
          "name": "to",
          "type": "address"
        },
        {
          "internalType": "uint256",
          "name": "tokenId",
          "type": "uint256"
        }
      ],
      "name": "transferFrom",
      "outputs": [],
      "stateMutability": "nonpayable",
      "type": "function"
    },
    {
      "inputs": [
        {
          "internalType": "string",
          "name": "name",
          "type": "string"
        },
        {
          "internalType": "string",
          "name": "symbol",
          "type": "string"
        },
        {
          "internalType": "string",
          "name": "baseTokenURI",
          "type": "string"
        }
      ],
      "name": "initialize",
      "outputs": [],
      "stateMutability": "nonpayable",
      "type": "function"
    },
    {
      "inputs": [
        {
          "internalType": "uint256",
          "name": "tokenId",
          "type": "uint256"
        }
      ],
      "name": "isExpired",
      "outputs": [
        {
          "internalType": "bool",
          "name": "",
          "type": "bool"
        }
      ],
      "stateMutability": "view",
      "type": "function"
    },
    {
      "inputs": [
        {
          "internalType": "uint256",
          "name": "tokenId",
          "type": "uint256"
        },
        {
          "internalType": "bytes32",
          "name": "contentSignature",
          "type": "bytes32"
        }
      ],
      "name": "isValid",
      "outputs": [
        {
          "internalType": "bool",
          "name": "",
          "type": "bool"
        }
      ],
      "stateMutability": "view",
      "type": "function"
    },
    {
      "inputs": [
        {
          "internalType": "address",
          "name": "owner",
          "type": "address"
        }
      ],
      "name": "getCoupon",
      "outputs": [
        {
          "internalType": "uint256",
          "name": "",
          "type": "uint256"
        }
      ],
      "stateMutability": "view",
      "type": "function"
    },
    {
      "inputs": [
        {
          "internalType": "uint256",
          "name": "tokenId",
          "type": "uint256"
        },
        {
          "internalType": "bytes32",
          "name": "contentSignature",
          "type": "bytes32"
        },
        {
          "internalType": "string",
          "name": "traceId",
          "type": "string"
        },
        {
          "internalType": "string",
          "name": "caoDid",
          "type": "string"
        }
      ],
      "name": "setCouponContentSignature",
      "outputs": [],
      "stateMutability": "nonpayable",
      "type": "function"
    },
    {
      "inputs": [
        {
          "internalType": "address",
          "name": "to",
          "type": "address"
        },
        {
          "internalType": "uint256",
          "name": "_expirationTime",
          "type": "uint256"
        },
        {
          "internalType": "string",
          "name": "traceId",
          "type": "string"
        },
        {
          "internalType": "string",
          "name": "ownerDid",
          "type": "string"
        }
      ],
      "name": "mint",
      "outputs": [],
      "stateMutability": "nonpayable",
      "type": "function"
    },
    {
      "inputs": [
        {
          "internalType": "address",
          "name": "to",
          "type": "address"
        },
        {
          "internalType": "uint256",
          "name": "_expirationTime",
          "type": "uint256"
        },
        {
          "internalType": "uint256",
          "name": "bundleId",
          "type": "uint256"
        },
        {
          "internalType": "uint256",
          "name": "quantity",
          "type": "uint256"
        },
        {
          "internalType": "string",
          "name": "traceId",
          "type": "string"
        },
        {
          "internalType": "string",
          "name": "ownerDid",
          "type": "string"
        }
      ],
      "name": "mintBundle",
      "outputs": [],
      "stateMutability": "nonpayable",
      "type": "function"
    },
    {
      "inputs": [
        {
          "internalType": "uint256",
          "name": "tokenId",
          "type": "uint256"
        },
        {
          "internalType": "string",
          "name": "traceId",
          "type": "string"
        },
        {
          "internalType": "string",
          "name": "caoDid",
          "type": "string"
        },
        {
          "internalType": "string",
          "name": "burnerDid",
          "type": "string"
        }
      ],
      "name": "burn",
      "outputs": [],
      "stateMutability": "nonpayable",
      "type": "function"
    },
    {
      "inputs": [
        {
          "internalType": "bytes4",
          "name": "interfaceId",
          "type": "bytes4"
        }
      ],
      "name": "supportsInterface",
      "outputs": [
        {
          "internalType": "bool",
          "name": "",
          "type": "bool"
        }
      ],
      "stateMutability": "view",
      "type": "function"
    }
  ],
  "bytecode": "0x608060405234801561001057600080fd5b50612e35806100206000396000f3fe608060405234801561001057600080fd5b50600436106101fb5760003560e01c80636352211e1161011a578063a6487c53116100ad578063ca15c8731161007c578063ca15c8731461043e578063d539139314610451578063d547741f14610466578063d9548e5314610479578063e985e9c51461048c57600080fd5b8063a6487c53146103f2578063b88d4fde14610405578063bffa08c614610418578063c87b56dd1461042b57600080fd5b806391d14854116100e957806391d14854146103bc57806395d89b41146103cf578063a217fddf146103d7578063a22cb465146103df57600080fd5b80636352211e1461037057806370a08231146103835780639010d07c1461039657806390624404146103a957600080fd5b8063248a9ca31161019257806336568abe1161016157806336568abe1461032457806342842e0e146103375780634c8c03231461034a5780634f6ccce71461035d57600080fd5b8063248a9ca3146102c85780632f2ff15d146102eb5780632f745c59146102fe5780632fb102cf1461031157600080fd5b8063159a2179116101ce578063159a21791461027d57806318160ddd1461029057806319379a2a146102a257806323b872dd146102b557600080fd5b806301ffc9a71461020057806306fdde0314610228578063081812fc1461023d578063095ea7b314610268575b600080fd5b61021361020e366004612732565b6104c8565b60405190151581526020015b60405180910390f35b6102306104d9565b60405161021f9190612ad1565b61025061024b3660046126d7565b61056b565b6040516001600160a01b03909116815260200161021f565b61027b6102763660046125b2565b610605565b005b61027b61028b36600461264a565b61071b565b60fd545b60405190815260200161021f565b61027b6102b03660046127ee565b610871565b61027b6102c33660046124c4565b61097a565b6102946102d63660046126d7565b60009081526065602052604090206001015490565b61027b6102f93660046126ef565b6109ab565b61029461030c3660046125b2565b6109d1565b61027b61031f3660046125db565b610a67565b61027b6103323660046126ef565b610b1a565b61027b6103453660046124c4565b610b98565b610294610358366004612478565b610bb3565b61029461036b3660046126d7565b610c47565b61025061037e3660046126d7565b610ce8565b610294610391366004612478565b610d5f565b6102506103a4366004612711565b610de6565b61027b6103b7366004612828565b610e05565b6102136103ca3660046126ef565b610ebe565b610230610ee9565b610294600081565b61027b6103ed366004612578565b610ef8565b61027b61040036600461276a565b610f03565b61027b6104133660046124ff565b611014565b610213610426366004612711565b611046565b6102306104393660046126d7565b611068565b61029461044c3660046126d7565b611142565b610294600080516020612de083398151915281565b61027b6104743660046126ef565b611159565b6102136104873660046126d7565b61117f565b61021361049a366004612492565b6001600160a01b03918216600090815260ce6020908152604080832093909416825291909152205460ff1690565b60006104d3826111a2565b92915050565b606060c980546104e890612d1a565b80601f016020809104026020016040519081016040528092919081815260200182805461051490612d1a565b80156105615780601f1061053657610100808354040283529160200191610561565b820191906000526020600020905b81548152906001019060200180831161054457829003601f168201915b5050505050905090565b600081815260cb60205260408120546001600160a01b03166105e95760405162461bcd60e51b815260206004820152602c60248201527f4552433732313a20617070726f76656420717565727920666f72206e6f6e657860448201526b34b9ba32b73a103a37b5b2b760a11b60648201526084015b60405180910390fd5b50600090815260cd60205260409020546001600160a01b031690565b600061061082610ce8565b9050806001600160a01b0316836001600160a01b0316141561067e5760405162461bcd60e51b815260206004820152602160248201527f4552433732313a20617070726f76616c20746f2063757272656e74206f776e656044820152603960f91b60648201526084016105e0565b336001600160a01b038216148061069a575061069a813361049a565b61070c5760405162461bcd60e51b815260206004820152603860248201527f4552433732313a20617070726f76652063616c6c6572206973206e6f74206f7760448201527f6e6572206e6f7220617070726f76656420666f7220616c6c000000000000000060648201526084016105e0565b61071683836111c7565b505050565b610733600080516020612de083398151915233610ebe565b61074f5760405162461bcd60e51b81526004016105e090612b36565b6000848152610130602052604090205460ff16156107af5760405162461bcd60e51b815260206004820152601d60248201527f5468652062756e646c6520696420697320616c7265616479207573656400000060448201526064016105e0565b600084815261013060205260408120805460ff19166001179055805b84811015610824576101325491506107e38883611235565b600082815261012e602090815260408083208a905561012f909152902086905561081261013280546001019055565b8061081c81612d55565b9150506107cb565b507f237e9d32239fc4fb5d69dd2c5c12ba1b46775585acc97a35dc730d8ac52a3b9c878288888888886040516108609796959493929190612a78565b60405180910390a150505050505050565b61087a84610ce8565b5061012d546001600160a01b031633148061089a575061089a3385611383565b6108b65760405162461bcd60e51b81526004016105e090612c25565b60008481526101316020526040902054156109245760405162461bcd60e51b815260206004820152602860248201527f54686520636f75706f6e20636f6e74656e74207369676e617475726520616c726044820152671958591e481cd95d60c21b60648201526084016105e0565b6000848152610131602052604090819020849055517f8b147fd17c5666e2c2ea55a091065162fcca23e1119a820b61501e8ae0917e469061096c903390879086908690612989565b60405180910390a150505050565b6109843382611383565b6109a05760405162461bcd60e51b81526004016105e090612b89565b61071683838361147a565b6000828152606560205260409020600101546109c78133611625565b6107168383611689565b60006109dc83610d5f565b8210610a3e5760405162461bcd60e51b815260206004820152602b60248201527f455243373231456e756d657261626c653a206f776e657220696e646578206f7560448201526a74206f6620626f756e647360a81b60648201526084016105e0565b506001600160a01b0391909116600090815260fb60209081526040808320938352929052205490565b610a7f600080516020612de083398151915233610ebe565b610a9b5760405162461bcd60e51b81526004016105e090612b36565b6000610aa76101325490565b9050610ab38582611235565b600081815261012e60205260409020849055610ad461013280546001019055565b7f4abf30dd1ca93f3e12b95abc625e655db7d7c136b4a6503814b60b74185529d08582868686604051610b0b9594939291906129cd565b60405180910390a15050505050565b6001600160a01b0381163314610b8a5760405162461bcd60e51b815260206004820152602f60248201527f416363657373436f6e74726f6c3a2063616e206f6e6c792072656e6f756e636560448201526e103937b632b9903337b91039b2b63360891b60648201526084016105e0565b610b9482826116ab565b5050565b61071683838360405180602001604052806000815250611014565b600080610bbf83610d5f565b905080610c045760405162461bcd60e51b81526020600482015260136024820152724e6f20617661696c61626c6520746f6b656e7360681b60448201526064016105e0565b6000196000805b83811015610c3d57610c1d86826109d1565b915082821015610c2b578192505b80610c3581612d55565b915050610c0b565b5090949350505050565b6000610c5260fd5490565b8210610cb55760405162461bcd60e51b815260206004820152602c60248201527f455243373231456e756d657261626c653a20676c6f62616c20696e646578206f60448201526b7574206f6620626f756e647360a01b60648201526084016105e0565b60fd8281548110610cd657634e487b7160e01b600052603260045260246000fd5b90600052602060002001549050919050565b600081815260cb60205260408120546001600160a01b0316806104d35760405162461bcd60e51b815260206004820152602960248201527f4552433732313a206f776e657220717565727920666f72206e6f6e657869737460448201526832b73a103a37b5b2b760b91b60648201526084016105e0565b60006001600160a01b038216610dca5760405162461bcd60e51b815260206004820152602a60248201527f4552433732313a2062616c616e636520717565727920666f7220746865207a65604482015269726f206164647265737360b01b60648201526084016105e0565b506001600160a01b0316600090815260cc602052604090205490565b6000828152609760205260408120610dfe90836116cd565b9392505050565b61012d546001600160a01b0316331480610e245750610e243385611383565b610e405760405162461bcd60e51b81526004016105e090612c25565b600084815261012f6020526040902054610e59856116d9565b60008581526101316020908152604080832083905561012e825280832083905561012f90915280822091909155517f2d1003ac83b46d709c4b50804710be0f9c8c2c3d4b98778521ba05dd413c91f290610b0b90339084908990899089908990612a18565b60009182526065602090815260408084206001600160a01b0393909316845291905290205460ff1690565b606060ca80546104e890612d1a565b610b94338383611780565b600054610100900460ff16610f1e5760005460ff1615610f22565b303b155b610f855760405162461bcd60e51b815260206004820152602e60248201527f496e697469616c697a61626c653a20636f6e747261637420697320616c72656160448201526d191e481a5b9a5d1a585b1a5e995960921b60648201526084016105e0565b600054610100900460ff16158015610fa7576000805461ffff19166101011790555b610fb1848461184f565b61012d80546001600160a01b031916331790558151610fd89061013390602085019061232e565b50610fe4600033611890565b610ffc600080516020612de083398151915233611890565b801561100e576000805461ff00191690555b50505050565b61101e3383611383565b61103a5760405162461bcd60e51b81526004016105e090612b89565b61100e8484848461189a565b600061105183610ce8565b505060009182526101316020526040909120541490565b600081815260cb60205260409020546060906001600160a01b03166110e75760405162461bcd60e51b815260206004820152602f60248201527f4552433732314d657461646174613a2055524920717565727920666f72206e6f60448201526e3732bc34b9ba32b73a103a37b5b2b760891b60648201526084016105e0565b60006110f16118cd565b905060008151116111115760405180602001604052806000815250610dfe565b8061111b846118dd565b60405160200161112c9291906128a8565b6040516020818303038152906040529392505050565b60008181526097602052604081206104d3906119f7565b6000828152606560205260409020600101546111758133611625565b61071683836116ab565b600061118a82610ce8565b5050600090815261012e602052604090205442101590565b60006001600160e01b0319821663780e9d6360e01b14806104d357506104d382611a01565b600081815260cd6020526040902080546001600160a01b0319166001600160a01b03841690811790915581906111fc82610ce8565b6001600160a01b03167f8c5be1e5ebec7d5bd14f71427d1e84f3dd0314c0f7b2291e5b200ac8c7c3b92560405160405180910390a45050565b6001600160a01b03821661128b5760405162461bcd60e51b815260206004820181905260248201527f4552433732313a206d696e7420746f20746865207a65726f206164647265737360448201526064016105e0565b600081815260cb60205260409020546001600160a01b0316156112f05760405162461bcd60e51b815260206004820152601c60248201527f4552433732313a20746f6b656e20616c7265616479206d696e7465640000000060448201526064016105e0565b6112fc60008383611a41565b6001600160a01b038216600090815260cc60205260408120805460019290611325908490612c75565b9091555050600081815260cb602052604080822080546001600160a01b0319166001600160a01b03861690811790915590518392907fddf252ad1be2c89b69c2b068fc378daa952ba7f163c4a11628f55a4df523b3ef908290a45050565b600081815260cb60205260408120546001600160a01b03166113fc5760405162461bcd60e51b815260206004820152602c60248201527f4552433732313a206f70657261746f7220717565727920666f72206e6f6e657860448201526b34b9ba32b73a103a37b5b2b760a11b60648201526084016105e0565b600061140783610ce8565b9050806001600160a01b0316846001600160a01b031614806114425750836001600160a01b03166114378461056b565b6001600160a01b0316145b8061147257506001600160a01b03808216600090815260ce602090815260408083209388168352929052205460ff165b949350505050565b826001600160a01b031661148d82610ce8565b6001600160a01b0316146114f55760405162461bcd60e51b815260206004820152602960248201527f4552433732313a207472616e73666572206f6620746f6b656e2074686174206960448201526839903737ba1037bbb760b91b60648201526084016105e0565b6001600160a01b0382166115575760405162461bcd60e51b8152602060048201526024808201527f4552433732313a207472616e7366657220746f20746865207a65726f206164646044820152637265737360e01b60648201526084016105e0565b611562838383611a41565b61156d6000826111c7565b6001600160a01b038316600090815260cc60205260408120805460019290611596908490612cc0565b90915550506001600160a01b038216600090815260cc602052604081208054600192906115c4908490612c75565b9091555050600081815260cb602052604080822080546001600160a01b0319166001600160a01b0386811691821790925591518493918716917fddf252ad1be2c89b69c2b068fc378daa952ba7f163c4a11628f55a4df523b3ef91a4505050565b61162f8282610ebe565b610b9457611647816001600160a01b03166014611af9565b611652836020611af9565b6040516020016116639291906128d7565b60408051601f198184030181529082905262461bcd60e51b82526105e091600401612ad1565b6116938282611cdb565b60008281526097602052604090206107169082611d61565b6116b58282611d76565b60008281526097602052604090206107169082611ddd565b6000610dfe8383611df2565b60006116e482610ce8565b90506116f281600084611a41565b6116fd6000836111c7565b6001600160a01b038116600090815260cc60205260408120805460019290611726908490612cc0565b9091555050600082815260cb602052604080822080546001600160a01b0319169055518391906001600160a01b038416907fddf252ad1be2c89b69c2b068fc378daa952ba7f163c4a11628f55a4df523b3ef908390a45050565b816001600160a01b0316836001600160a01b031614156117e25760405162461bcd60e51b815260206004820152601960248201527f4552433732313a20617070726f766520746f2063616c6c65720000000000000060448201526064016105e0565b6001600160a01b03838116600081815260ce6020908152604080832094871680845294825291829020805460ff191686151590811790915591519182527f17307eab39ab6107e8899845ad3d59bd9653f200f220920489ca2b5937696c31910160405180910390a3505050565b600054610100900460ff166118765760405162461bcd60e51b81526004016105e090612bda565b61187e611e2a565b611886611e2a565b610b948282611e53565b610b948282611689565b6118a584848461147a565b6118b184848484611ea1565b61100e5760405162461bcd60e51b81526004016105e090612ae4565b606061013380546104e890612d1a565b6060816119015750506040805180820190915260018152600360fc1b602082015290565b8160005b811561192b578061191581612d55565b91506119249050600a83612c8d565b9150611905565b60008167ffffffffffffffff81111561195457634e487b7160e01b600052604160045260246000fd5b6040519080825280601f01601f19166020018201604052801561197e576020820181803683370190505b5090505b841561147257611993600183612cc0565b91506119a0600a86612d70565b6119ab906030612c75565b60f81b8183815181106119ce57634e487b7160e01b600052603260045260246000fd5b60200101906001600160f81b031916908160001a9053506119f0600a86612c8d565b9450611982565b60006104d3825490565b60006001600160e01b031982166380ac58cd60e01b1480611a3257506001600160e01b03198216635b5e139f60e01b145b806104d357506104d382611fae565b6001600160a01b038316611a9c57611a978160fd8054600083815260fe60205260408120829055600182018355919091527f9346ac6dd7de6b96975fec380d4d994c4c12e6a8897544f22915316cc6cca2800155565b611abf565b816001600160a01b0316836001600160a01b031614611abf57611abf8382611fd3565b6001600160a01b038216611ad65761071681612070565b826001600160a01b0316826001600160a01b031614610716576107168282612149565b60606000611b08836002612ca1565b611b13906002612c75565b67ffffffffffffffff811115611b3957634e487b7160e01b600052604160045260246000fd5b6040519080825280601f01601f191660200182016040528015611b63576020820181803683370190505b509050600360fc1b81600081518110611b8c57634e487b7160e01b600052603260045260246000fd5b60200101906001600160f81b031916908160001a905350600f60fb1b81600181518110611bc957634e487b7160e01b600052603260045260246000fd5b60200101906001600160f81b031916908160001a9053506000611bed846002612ca1565b611bf8906001612c75565b90505b6001811115611c8c576f181899199a1a9b1b9c1cb0b131b232b360811b85600f1660108110611c3a57634e487b7160e01b600052603260045260246000fd5b1a60f81b828281518110611c5e57634e487b7160e01b600052603260045260246000fd5b60200101906001600160f81b031916908160001a90535060049490941c93611c8581612d03565b9050611bfb565b508315610dfe5760405162461bcd60e51b815260206004820181905260248201527f537472696e67733a20686578206c656e67746820696e73756666696369656e7460448201526064016105e0565b611ce58282610ebe565b610b945760008281526065602090815260408083206001600160a01b03851684529091529020805460ff19166001179055611d1d3390565b6001600160a01b0316816001600160a01b0316837f2f8788117e7eff1d82e926ec794901d17c78024a50270940304540a733656f0d60405160405180910390a45050565b6000610dfe836001600160a01b03841661218d565b611d808282610ebe565b15610b945760008281526065602090815260408083206001600160a01b0385168085529252808320805460ff1916905551339285917ff6391f5c32d9c69d2a47ea670b442974b53935d1edc7fd64eb21e047a839171b9190a45050565b6000610dfe836001600160a01b0384166121dc565b6000826000018281548110611e1757634e487b7160e01b600052603260045260246000fd5b9060005260206000200154905092915050565b600054610100900460ff16611e515760405162461bcd60e51b81526004016105e090612bda565b565b600054610100900460ff16611e7a5760405162461bcd60e51b81526004016105e090612bda565b8151611e8d9060c990602085019061232e565b5080516107169060ca90602084019061232e565b60006001600160a01b0384163b15611fa357604051630a85bd0160e11b81526001600160a01b0385169063150b7a0290611ee590339089908890889060040161294c565b602060405180830381600087803b158015611eff57600080fd5b505af1925050508015611f2f575060408051601f3d908101601f19168201909252611f2c9181019061274e565b60015b611f89573d808015611f5d576040519150601f19603f3d011682016040523d82523d6000602084013e611f62565b606091505b508051611f815760405162461bcd60e51b81526004016105e090612ae4565b805181602001fd5b6001600160e01b031916630a85bd0160e11b149050611472565b506001949350505050565b60006001600160e01b03198216635a05180f60e01b14806104d357506104d3826122f9565b60006001611fe084610d5f565b611fea9190612cc0565b600083815260fc602052604090205490915080821461203d576001600160a01b038416600090815260fb60209081526040808320858452825280832054848452818420819055835260fc90915290208190555b50600091825260fc602090815260408084208490556001600160a01b03909416835260fb81528383209183525290812055565b60fd5460009061208290600190612cc0565b600083815260fe602052604081205460fd80549394509092849081106120b857634e487b7160e01b600052603260045260246000fd5b906000526020600020015490508060fd83815481106120e757634e487b7160e01b600052603260045260246000fd5b600091825260208083209091019290925582815260fe909152604080822084905585825281205560fd80548061212d57634e487b7160e01b600052603160045260246000fd5b6001900381819060005260206000200160009055905550505050565b600061215483610d5f565b6001600160a01b03909316600090815260fb60209081526040808320868452825280832085905593825260fc9052919091209190915550565b60008181526001830160205260408120546121d4575081546001818101845560008481526020808220909301849055845484825282860190935260409020919091556104d3565b5060006104d3565b600081815260018301602052604081205480156122ef576000612200600183612cc0565b855490915060009061221490600190612cc0565b905081811461229557600086600001828154811061224257634e487b7160e01b600052603260045260246000fd5b906000526020600020015490508087600001848154811061227357634e487b7160e01b600052603260045260246000fd5b6000918252602080832090910192909255918252600188019052604090208390555b85548690806122b457634e487b7160e01b600052603160045260246000fd5b6001900381819060005260206000200160009055905585600101600086815260200190815260200160002060009055600193505050506104d3565b60009150506104d3565b60006001600160e01b03198216637965db0b60e01b14806104d357506301ffc9a760e01b6001600160e01b03198316146104d3565b82805461233a90612d1a565b90600052602060002090601f01602090048101928261235c57600085556123a2565b82601f1061237557805160ff19168380011785556123a2565b828001600101855582156123a2579182015b828111156123a2578251825591602001919060010190612387565b506123ae9291506123b2565b5090565b5b808211156123ae57600081556001016123b3565b600067ffffffffffffffff808411156123e2576123e2612db0565b604051601f8501601f19908116603f0116810190828211818310171561240a5761240a612db0565b8160405280935085815286868601111561242357600080fd5b858560208301376000602087830101525050509392505050565b80356001600160a01b038116811461245457600080fd5b919050565b600082601f830112612469578081fd5b610dfe838335602085016123c7565b600060208284031215612489578081fd5b610dfe8261243d565b600080604083850312156124a4578081fd5b6124ad8361243d565b91506124bb6020840161243d565b90509250929050565b6000806000606084860312156124d8578081fd5b6124e18461243d565b92506124ef6020850161243d565b9150604084013590509250925092565b60008060008060808587031215612514578081fd5b61251d8561243d565b935061252b6020860161243d565b925060408501359150606085013567ffffffffffffffff81111561254d578182fd5b8501601f8101871361255d578182fd5b61256c878235602084016123c7565b91505092959194509250565b6000806040838503121561258a578182fd5b6125938361243d565b9150602083013580151581146125a7578182fd5b809150509250929050565b600080604083850312156125c4578182fd5b6125cd8361243d565b946020939093013593505050565b600080600080608085870312156125f0578384fd5b6125f98561243d565b935060208501359250604085013567ffffffffffffffff8082111561261c578384fd5b61262888838901612459565b9350606087013591508082111561263d578283fd5b5061256c87828801612459565b60008060008060008060c08789031215612662578182fd5b61266b8761243d565b9550602087013594506040870135935060608701359250608087013567ffffffffffffffff8082111561269c578384fd5b6126a88a838b01612459565b935060a08901359150808211156126bd578283fd5b506126ca89828a01612459565b9150509295509295509295565b6000602082840312156126e8578081fd5b5035919050565b60008060408385031215612701578182fd5b823591506124bb6020840161243d565b60008060408385031215612723578182fd5b50508035926020909101359150565b600060208284031215612743578081fd5b8135610dfe81612dc6565b60006020828403121561275f578081fd5b8151610dfe81612dc6565b60008060006060848603121561277e578081fd5b833567ffffffffffffffff80821115612795578283fd5b6127a187838801612459565b945060208601359150808211156127b6578283fd5b6127c287838801612459565b935060408601359150808211156127d7578283fd5b506127e486828701612459565b9150509250925092565b60008060008060808587031215612803578182fd5b8435935060208501359250604085013567ffffffffffffffff8082111561261c578384fd5b6000806000806080858703121561283d578182fd5b84359350602085013567ffffffffffffffff8082111561285b578384fd5b61286788838901612459565b9450604087013591508082111561261c578384fd5b60008151808452612894816020860160208601612cd7565b601f01601f19169290920160200192915050565b600083516128ba818460208801612cd7565b8351908301906128ce818360208801612cd7565b01949350505050565b7f416363657373436f6e74726f6c3a206163636f756e742000000000000000000081526000835161290f816017850160208801612cd7565b7001034b99036b4b9b9b4b733903937b6329607d1b6017918401918201528351612940816028840160208801612cd7565b01602801949350505050565b6001600160a01b038581168252841660208201526040810183905260806060820181905260009061297f9083018461287c565b9695505050505050565b60018060a01b03851681528360208201526080604082015260006129b0608083018561287c565b82810360608401526129c2818561287c565b979650505050505050565b60018060a01b038616815284602082015283604082015260a0606082015260006129fa60a083018561287c565b8281036080840152612a0c818561287c565b98975050505050505050565b60018060a01b038716815285602082015284604082015260c060608201526000612a4560c083018661287c565b8281036080840152612a57818661287c565b905082810360a0840152612a6b818561287c565b9998505050505050505050565b60018060a01b038816815286602082015285604082015284606082015283608082015260e060a08201526000612ab160e083018561287c565b82810360c0840152612ac3818561287c565b9a9950505050505050505050565b602081526000610dfe602083018461287c565b60208082526032908201527f4552433732313a207472616e7366657220746f206e6f6e20455243373231526560408201527131b2b4bb32b91034b6b83632b6b2b73a32b960711b606082015260800190565b60208082526033908201527f566572696669636174696f6e436f75706f6e3a206d75737420686176652061206040820152721b5a5b9d195c881c9bdb19481d1bc81b5a5b9d606a1b606082015260800190565b60208082526031908201527f4552433732313a207472616e736665722063616c6c6572206973206e6f74206f6040820152701ddb995c881b9bdc88185c1c1c9bdd9959607a1b606082015260800190565b6020808252602b908201527f496e697469616c697a61626c653a20636f6e7472616374206973206e6f74206960408201526a6e697469616c697a696e6760a81b606082015260800190565b60208082526030908201527f4552433732314275726e61626c653a2063616c6c6572206973206e6f74206f7760408201526f1b995c881b9bdc88185c1c1c9bdd995960821b606082015260800190565b60008219821115612c8857612c88612d84565b500190565b600082612c9c57612c9c612d9a565b500490565b6000816000190483118215151615612cbb57612cbb612d84565b500290565b600082821015612cd257612cd2612d84565b500390565b60005b83811015612cf2578181015183820152602001612cda565b8381111561100e5750506000910152565b600081612d1257612d12612d84565b506000190190565b600181811c90821680612d2e57607f821691505b60208210811415612d4f57634e487b7160e01b600052602260045260246000fd5b50919050565b6000600019821415612d6957612d69612d84565b5060010190565b600082612d7f57612d7f612d9a565b500690565b634e487b7160e01b600052601160045260246000fd5b634e487b7160e01b600052601260045260246000fd5b634e487b7160e01b600052604160045260246000fd5b6001600160e01b031981168114612ddc57600080fd5b5056fe9f2df0fed2c77648de5860a4cc508cd0818c85b8b8a1ab4ceeef8d981c8956a6a26469706673582212206b4dde9714b9f2709128cae7fc15c75199d9696a696be65565af1f3d02274b1d64736f6c63430008040033",
  "immutableReferences": {},
  "source": "// SPDX-License-Identifier: MIT\n\npragma solidity 0.8.4;\n\nimport \"@openzeppelin/contracts-upgradeable/proxy/utils/Initializable.sol\";\nimport \"@openzeppelin/contracts-upgradeable/token/ERC721/extensions/ERC721EnumerableUpgradeable.sol\";\nimport \"@openzeppelin/contracts-upgradeable/access/AccessControlEnumerableUpgradeable.sol\";\nimport \"@openzeppelin/contracts-upgradeable/utils/CountersUpgradeable.sol\";\n\n/**\n * @dev {ERC721} token, including:\n *\n *  - ability for holders to burn (destroy) their tokens\n *  - a minter role that allows for token minting (creation)\n *  - a pauser role that allows to stop all token transfers\n *  - token ID and URI autogeneration\n *\n * This contract uses {AccessControl} to lock permissioned functions using the\n * different roles - head to its documentation for details.\n *\n * The account that deploys the contract will be granted the minter and pauser\n * roles, as well as the default admin role, which will let it grant both minter\n * and pauser roles to other accounts.\n */\ncontract VerificationCoupon is Initializable, AccessControlEnumerableUpgradeable, ERC721EnumerableUpgradeable {\n    address VNF;\n    using CountersUpgradeable for CountersUpgradeable.Counter;\n    bytes32 public constant MINTER_ROLE = keccak256(\"MINTER_ROLE\");\n\n    mapping(uint256 => uint256) private expirationTime;\n    mapping(uint256 => uint256) private bundle;\n    mapping(uint256 => bool) bundleIdUsage;\n    mapping(uint256 => bytes32) private couponContentSignature;\n\n    CountersUpgradeable.Counter private _tokenIdTracker;\n    string private _baseTokenURI;\n\n    event MintCoupon(address owner, uint256 tokenId, uint256 expirationTime, string traceId, string ownerDid);\n\n    event MintCouponBundle(address owner, uint256 tokenId, uint256 expirationTime, uint256 bundleId, uint256 quantity, string traceId, string ownerDid);\n\n    event CouponContentSignature(address owner, uint256 tokenId, string traceId, string caoDid);\n\n    event BurnCoupon(address owner, uint256 bundleId, uint256 tokenId, string traceId, string caoDid, string burnerDid);\n\n\n    function initialize(string memory name, string memory symbol, string memory baseTokenURI) public initializer {\n        ERC721Upgradeable.__ERC721_init(name, symbol);\n        VNF = msg.sender;\n        _baseTokenURI = baseTokenURI;\n\n        _setupRole(DEFAULT_ADMIN_ROLE, msg.sender);\n        _setupRole(MINTER_ROLE, msg.sender);\n    }\n\n    function isExpired(uint256 tokenId) public view returns(bool) {\n        ownerOf(tokenId);\n        return block.timestamp >= expirationTime[tokenId];\n    }\n\n    function isValid(uint256 tokenId, bytes32 contentSignature) public view returns(bool) {\n        ownerOf(tokenId);\n        return couponContentSignature[tokenId] == contentSignature;\n    }\n\n    function getCoupon(address owner) public view returns(uint256) {\n        uint256 quantity = balanceOf(owner);\n        require(quantity != 0, \"No available tokens\");\n\n        uint256 lowestTokenId = type(uint256).max;\n        uint256 currentTokenId;\n        for (uint256 i = 0; i < quantity; i++) {\n            currentTokenId = tokenOfOwnerByIndex(owner, i);\n            if (currentTokenId < lowestTokenId) {\n                lowestTokenId = currentTokenId;\n            }\n        }\n        \n        return lowestTokenId;\n    }\n\n    function setCouponContentSignature(uint256 tokenId, bytes32 contentSignature, string memory traceId, string memory caoDid) public {\n        ownerOf(tokenId);\n        require(msg.sender == VNF || _isApprovedOrOwner(msg.sender, tokenId), \"ERC721Burnable: caller is not owner nor approved\");\n        require(couponContentSignature[tokenId] == 0, \"The coupon content signature already set\");\n        couponContentSignature[tokenId] = contentSignature;\n\n        emit CouponContentSignature(msg.sender, tokenId, traceId, caoDid);\n    }\n        \n    function mint(address to, uint256 _expirationTime, string memory traceId, string memory ownerDid) public virtual {\n        require(hasRole(MINTER_ROLE, msg.sender), \"VerificationCoupon: must have a minter role to mint\");\n        uint256 tokenId = _tokenIdTracker.current();\n        _mint(to, tokenId);\n        expirationTime[tokenId] = _expirationTime;\n        _tokenIdTracker.increment();\n\n        emit MintCoupon(to, tokenId, _expirationTime, traceId, ownerDid);\n    }\n\n    function mintBundle(address to, uint256 _expirationTime, uint256 bundleId, uint256 quantity, string memory traceId, string memory ownerDid) public virtual {\n        require(hasRole(MINTER_ROLE, msg.sender), \"VerificationCoupon: must have a minter role to mint\");\n        require(!bundleIdUsage[bundleId], \"The bundle id is already used\");\n        \n        bundleIdUsage[bundleId] = true;\n        uint256 tokenId;\n        for (uint256 i = 0; i < quantity; i++) { \n            tokenId = _tokenIdTracker.current();\n            _mint(to, tokenId);\n            expirationTime[tokenId] = _expirationTime;\n            bundle[tokenId] = bundleId;\n            _tokenIdTracker.increment();\n        }\n        emit MintCouponBundle(to, tokenId, _expirationTime, bundleId, quantity, traceId, ownerDid);\n    }\n\n    function burn(uint256 tokenId, string memory traceId, string memory caoDid, string memory burnerDid) public virtual {\n        require(msg.sender == VNF || _isApprovedOrOwner(msg.sender, tokenId), \"ERC721Burnable: caller is not owner nor approved\");\n        uint256 bundleId = bundle[tokenId];\n\n        _burn(tokenId);\n        delete couponContentSignature[tokenId];\n        delete expirationTime[tokenId];\n        delete bundle[tokenId];\n\n\n        emit BurnCoupon(msg.sender, bundleId, tokenId, traceId, caoDid, burnerDid);\n    }\n\n    function supportsInterface(bytes4 interfaceId) public view virtual override(AccessControlEnumerableUpgradeable, ERC721EnumerableUpgradeable) returns (bool) {\n        return super.supportsInterface(interfaceId);\n    }\n\n    function _baseURI() internal view virtual override returns (string memory) {\n        return _baseTokenURI;\n    }\n}\n",
  "sourcePath": "verification-coupon/contracts/VerificationCoupon.sol",
  "compiler": {
    "name": "solc",
    "version": "0.8.4+commit.c7e474f2.Emscripten.clang"
  },
  "schemaVersion": "3.4.1",
  "updatedAt": "2022-01-12T00:22:44.134Z",
  "devdoc": {
    "details": "{ERC721} token, including:  - ability for holders to burn (destroy) their tokens  - a minter role that allows for token minting (creation)  - a pauser role that allows to stop all token transfers  - token ID and URI autogeneration This contract uses {AccessControl} to lock permissioned functions using the different roles - head to its documentation for details. The account that deploys the contract will be granted the minter and pauser roles, as well as the default admin role, which will let it grant both minter and pauser roles to other accounts.",
    "kind": "dev",
    "methods": {
      "approve(address,uint256)": {
        "details": "See {IERC721-approve}."
      },
      "balanceOf(address)": {
        "details": "See {IERC721-balanceOf}."
      },
      "getApproved(uint256)": {
        "details": "See {IERC721-getApproved}."
      },
      "getRoleAdmin(bytes32)": {
        "details": "Returns the admin role that controls `role`. See {grantRole} and {revokeRole}. To change a role's admin, use {_setRoleAdmin}."
      },
      "getRoleMember(bytes32,uint256)": {
        "details": "Returns one of the accounts that have `role`. `index` must be a value between 0 and {getRoleMemberCount}, non-inclusive. Role bearers are not sorted in any particular way, and their ordering may change at any point. WARNING: When using {getRoleMember} and {getRoleMemberCount}, make sure you perform all queries on the same block. See the following https://forum.openzeppelin.com/t/iterating-over-elements-on-enumerableset-in-openzeppelin-contracts/2296[forum post] for more information."
      },
      "getRoleMemberCount(bytes32)": {
        "details": "Returns the number of accounts that have `role`. Can be used together with {getRoleMember} to enumerate all bearers of a role."
      },
      "grantRole(bytes32,address)": {
        "details": "Grants `role` to `account`. If `account` had not been already granted `role`, emits a {RoleGranted} event. Requirements: - the caller must have ``role``'s admin role."
      },
      "hasRole(bytes32,address)": {
        "details": "Returns `true` if `account` has been granted `role`."
      },
      "isApprovedForAll(address,address)": {
        "details": "See {IERC721-isApprovedForAll}."
      },
      "name()": {
        "details": "See {IERC721Metadata-name}."
      },
      "ownerOf(uint256)": {
        "details": "See {IERC721-ownerOf}."
      },
      "renounceRole(bytes32,address)": {
        "details": "Revokes `role` from the calling account. Roles are often managed via {grantRole} and {revokeRole}: this function's purpose is to provide a mechanism for accounts to lose their privileges if they are compromised (such as when a trusted device is misplaced). If the calling account had been revoked `role`, emits a {RoleRevoked} event. Requirements: - the caller must be `account`."
      },
      "revokeRole(bytes32,address)": {
        "details": "Revokes `role` from `account`. If `account` had been granted `role`, emits a {RoleRevoked} event. Requirements: - the caller must have ``role``'s admin role."
      },
      "safeTransferFrom(address,address,uint256)": {
        "details": "See {IERC721-safeTransferFrom}."
      },
      "safeTransferFrom(address,address,uint256,bytes)": {
        "details": "See {IERC721-safeTransferFrom}."
      },
      "setApprovalForAll(address,bool)": {
        "details": "See {IERC721-setApprovalForAll}."
      },
      "symbol()": {
        "details": "See {IERC721Metadata-symbol}."
      },
      "tokenByIndex(uint256)": {
        "details": "See {IERC721Enumerable-tokenByIndex}."
      },
      "tokenOfOwnerByIndex(address,uint256)": {
        "details": "See {IERC721Enumerable-tokenOfOwnerByIndex}."
      },
      "tokenURI(uint256)": {
        "details": "See {IERC721Metadata-tokenURI}."
      },
      "totalSupply()": {
        "details": "See {IERC721Enumerable-totalSupply}."
      },
      "transferFrom(address,address,uint256)": {
        "details": "See {IERC721-transferFrom}."
      }
    },
    "version": 1
  },
  "userdoc": {
    "kind": "user",
    "methods": {},
    "version": 1
  }
}