{
  "contractName": "Permissions",
  "abi": [
    {
      "anonymous": false,
      "inputs": [
        {
          "indexed": false,
          "internalType": "uint8",
          "name": "version",
          "type": "uint8"
        }
      ],
      "name": "Initialized",
      "type": "event"
    },
    {
      "inputs": [],
      "name": "initialize",
      "outputs": [],
      "stateMutability": "nonpayable",
      "type": "function"
    },
    {
      "inputs": [
        {
          "internalType": "address",
          "name": "addr",
          "type": "address"
        }
      ],
      "name": "rotateVNF",
      "outputs": [],
      "stateMutability": "nonpayable",
      "type": "function"
    },
    {
      "inputs": [],
      "name": "getVNF",
      "outputs": [
        {
          "internalType": "address",
          "name": "",
          "type": "address"
        }
      ],
      "stateMutability": "view",
      "type": "function",
      "constant": true
    },
    {
      "inputs": [
        {
          "internalType": "address",
          "name": "addr",
          "type": "address"
        },
        {
          "internalType": "string",
          "name": "scope",
          "type": "string"
        }
      ],
      "name": "addAddressScope",
      "outputs": [],
      "stateMutability": "nonpayable",
      "type": "function"
    },
    {
      "inputs": [
        {
          "internalType": "address",
          "name": "addr",
          "type": "address"
        },
        {
          "internalType": "string",
          "name": "scope",
          "type": "string"
        }
      ],
      "name": "removeAddressScope",
      "outputs": [],
      "stateMutability": "nonpayable",
      "type": "function"
    },
    {
      "inputs": [
        {
          "internalType": "address",
          "name": "addr",
          "type": "address"
        },
        {
          "internalType": "string",
          "name": "scope",
          "type": "string"
        }
      ],
      "name": "checkAddressScope",
      "outputs": [
        {
          "internalType": "bool",
          "name": "",
          "type": "bool"
        }
      ],
      "stateMutability": "view",
      "type": "function",
      "constant": true
    }
  ],
  "bytecode": "0x608060405234801561001057600080fd5b5061056d806100206000396000f3fe608060405234801561001057600080fd5b50600436106100625760003560e01c806334ca4b641461006757806336f227d51461009657806351547891146100ab5780638129fc1c146100be578063a38a0cf4146100c6578063bdb1a732146100e9575b600080fd5b6000546201000090046001600160a01b03166040516001600160a01b0390911681526020015b60405180910390f35b6100a96100a43660046103f4565b6100fc565b005b6100a96100b93660046103f4565b61018d565b6100a96101e3565b6100d96100d43660046103f4565b61031c565b604051901515815260200161008d565b6100a96100f73660046103d3565b61035d565b6000546201000090046001600160a01b031633146101355760405162461bcd60e51b815260040161012c906104ea565b60405180910390fd5b6001806000846001600160a01b03166001600160a01b031681526020019081526020016000208260405161016991906104b1565b908152604051908190036020019020805491151560ff199092169190911790555050565b6000546201000090046001600160a01b031633146101bd5760405162461bcd60e51b815260040161012c906104ea565b6001600160a01b03821660009081526001602052604080822090516101699084906104b1565b600054610100900460ff16158080156102035750600054600160ff909116105b8061021d5750303b15801561021d575060005460ff166001145b6102805760405162461bcd60e51b815260206004820152602e60248201527f496e697469616c697a61626c653a20636f6e747261637420697320616c72656160448201526d191e481a5b9a5d1a585b1a5e995960921b606482015260840161012c565b6000805460ff1916600117905580156102a3576000805461ff0019166101001790555b6000546201000090046001600160a01b03166102d3576000805462010000600160b01b0319163362010000021790555b8015610319576000805461ff0019169055604051600181527f7f26b83ff96e1f2b6a682f133852f6798a09c465da95921460cefb38474024989060200160405180910390a15b50565b6001600160a01b03821660009081526001602052604080822090516103429084906104b1565b9081526040519081900360200190205460ff16905092915050565b6000546201000090046001600160a01b0316331461038d5760405162461bcd60e51b815260040161012c906104ea565b600080546001600160a01b03909216620100000262010000600160b01b0319909216919091179055565b80356001600160a01b03811681146103ce57600080fd5b919050565b6000602082840312156103e4578081fd5b6103ed826103b7565b9392505050565b60008060408385031215610406578081fd5b61040f836103b7565b9150602083013567ffffffffffffffff8082111561042b578283fd5b818501915085601f83011261043e578283fd5b81358181111561045057610450610521565b604051601f8201601f19908116603f0116810190838211818310171561047857610478610521565b81604052828152886020848701011115610490578586fd5b82602086016020830137856020848301015280955050505050509250929050565b60008251815b818110156104d157602081860181015185830152016104b7565b818111156104df5782828501525b509190910192915050565b6020808252601e908201527f5065726d697373696f6e733a2063616c6c6572206973206e6f7420564e460000604082015260600190565b634e487b7160e01b600052604160045260246000fdfea2646970667358221220e5586606f34d7535a5cd1639f3629b2b6d38375e2a7a9c2d19c485dd7af8b69064736f6c63430008040033",
  "immutableReferences": {},
  "source": "// SPDX-License-Identifier: MIT\npragma solidity 0.8.4;\n\nimport \"@openzeppelin/contracts-upgradeable/proxy/utils/Initializable.sol\";\n\ncontract Permissions is Initializable {\n    address VNF;\n    mapping(address => mapping(string => bool)) private addressToPermissions;\n\n    function initialize() public initializer {\n        if (VNF == address(0)) {\n            VNF = msg.sender;\n        }\n    }\n\n    function rotateVNF(address addr) public {\n        require(msg.sender == VNF, \"Permissions: caller is not VNF\");\n        VNF = addr;\n    }\n\n    function getVNF() public view returns (address) {\n        return VNF;\n    }\n\n    function addAddressScope(address addr, string memory scope) public {\n        require(msg.sender == VNF, \"Permissions: caller is not VNF\");\n        addressToPermissions[addr][scope] = true;\n    }\n\n    function removeAddressScope(address addr, string memory scope) public {\n        require(msg.sender == VNF, \"Permissions: caller is not VNF\");\n        addressToPermissions[addr][scope] = false;\n    }\n\n    function checkAddressScope(address addr, string memory scope) public view returns (bool) {\n        return addressToPermissions[addr][scope];\n    }\n}\n",
  "sourcePath": "/Users/nassan/s/vclworld/blockchain-contracts/src/contracts/permissions/contracts/Permissions.sol",
  "compiler": {
    "name": "solc",
    "version": "0.8.4+commit.c7e474f2.Emscripten.clang"
  },
  "schemaVersion": "3.4.9",
  "updatedAt": "2022-09-28T12:40:53.952Z",
  "networkType": "ethereum",
  "devdoc": {
    "kind": "dev",
    "methods": {},
    "version": 1
  },
  "userdoc": {
    "kind": "user",
    "methods": {},
    "version": 1
  }
}