{
  "contractName": "MetadataRegistry",
  "abi": [
    {
      "anonymous": false,
      "inputs": [
        {
          "indexed": false,
          "internalType": "address",
          "name": "sender",
          "type": "address"
        },
        {
          "indexed": false,
          "internalType": "bytes",
          "name": "issuerVc",
          "type": "bytes"
        },
        {
          "indexed": false,
          "internalType": "uint256",
          "name": "listId",
          "type": "uint256"
        },
        {
          "indexed": false,
          "internalType": "bytes2",
          "name": "credentialType",
          "type": "bytes2"
        },
        {
          "indexed": false,
          "internalType": "uint32",
          "name": "index",
          "type": "uint32"
        },
        {
          "indexed": false,
          "internalType": "string",
          "name": "traceId",
          "type": "string"
        },
        {
          "indexed": false,
          "internalType": "string",
          "name": "caoDid",
          "type": "string"
        }
      ],
      "name": "AddedCredentialMetadata",
      "type": "event"
    },
    {
      "anonymous": false,
      "inputs": [
        {
          "indexed": false,
          "internalType": "address",
          "name": "sender",
          "type": "address"
        },
        {
          "indexed": false,
          "internalType": "bytes",
          "name": "issuerVc",
          "type": "bytes"
        },
        {
          "indexed": false,
          "internalType": "uint256",
          "name": "listId",
          "type": "uint256"
        },
        {
          "indexed": false,
          "internalType": "string",
          "name": "traceId",
          "type": "string"
        },
        {
          "indexed": false,
          "internalType": "string",
          "name": "caoDid",
          "type": "string"
        }
      ],
      "name": "CreatedMetadataList",
      "type": "event"
    },
    {
      "anonymous": false,
      "inputs": [
        {
          "components": [
            {
              "internalType": "bytes2",
              "name": "version",
              "type": "bytes2"
            },
            {
              "internalType": "bytes2",
              "name": "credentialType",
              "type": "bytes2"
            },
            {
              "internalType": "bytes2",
              "name": "algType",
              "type": "bytes2"
            },
            {
              "internalType": "bytes",
              "name": "encryptedPublicKey",
              "type": "bytes"
            },
            {
              "internalType": "bytes",
              "name": "issuerVc",
              "type": "bytes"
            }
          ],
          "indexed": false,
          "internalType": "struct MetadataRegistry.CredentialMetadata[]",
          "name": "credentialMetadataList",
          "type": "tuple[]"
        }
      ],
      "name": "GotCredentialMetadata",
      "type": "event"
    },
    {
      "anonymous": false,
      "inputs": [
        {
          "indexed": false,
          "internalType": "uint8",
          "name": "version",
          "type": "uint8"
        }
      ],
      "name": "Initialized",
      "type": "event"
    },
    {
      "inputs": [
        {
          "internalType": "bytes2",
          "name": "",
          "type": "bytes2"
        }
      ],
      "name": "freeCredentialTypes",
      "outputs": [
        {
          "internalType": "bool",
          "name": "",
          "type": "bool"
        }
      ],
      "stateMutability": "view",
      "type": "function",
      "constant": true
    },
    {
      "inputs": [
        {
          "internalType": "address",
          "name": "",
          "type": "address"
        },
        {
          "internalType": "uint256",
          "name": "",
          "type": "uint256"
        }
      ],
      "name": "lists",
      "outputs": [
        {
          "internalType": "bytes2",
          "name": "version",
          "type": "bytes2"
        },
        {
          "internalType": "bytes2",
          "name": "algType",
          "type": "bytes2"
        },
        {
          "internalType": "bytes",
          "name": "issuerVc",
          "type": "bytes"
        },
        {
          "internalType": "bool",
          "name": "used",
          "type": "bool"
        }
      ],
      "stateMutability": "view",
      "type": "function",
      "constant": true
    },
    {
      "inputs": [
        {
          "internalType": "address",
          "name": "_coupon",
          "type": "address"
        },
        {
          "internalType": "bytes2[]",
          "name": "freeCredentialTypesList",
          "type": "bytes2[]"
        }
      ],
      "name": "initialize",
      "outputs": [],
      "stateMutability": "nonpayable",
      "type": "function"
    },
    {
      "inputs": [
        {
          "internalType": "address",
          "name": "_coupon",
          "type": "address"
        }
      ],
      "name": "setCouponAddress",
      "outputs": [],
      "stateMutability": "nonpayable",
      "type": "function"
    },
    {
      "inputs": [
        {
          "internalType": "address",
          "name": "accountId",
          "type": "address"
        },
        {
          "internalType": "uint256",
          "name": "listId",
          "type": "uint256"
        }
      ],
      "name": "isExistMetadataList",
      "outputs": [
        {
          "internalType": "bool",
          "name": "",
          "type": "bool"
        }
      ],
      "stateMutability": "view",
      "type": "function",
      "constant": true
    },
    {
      "inputs": [
        {
          "internalType": "uint256",
          "name": "listId",
          "type": "uint256"
        },
        {
          "internalType": "bytes2",
          "name": "algType",
          "type": "bytes2"
        },
        {
          "internalType": "bytes2",
          "name": "version",
          "type": "bytes2"
        },
        {
          "internalType": "bytes",
          "name": "issuerVc",
          "type": "bytes"
        },
        {
          "internalType": "string",
          "name": "traceId",
          "type": "string"
        },
        {
          "internalType": "string",
          "name": "caoDid",
          "type": "string"
        }
      ],
      "name": "newMetadataList",
      "outputs": [],
      "stateMutability": "nonpayable",
      "type": "function"
    },
    {
      "inputs": [
        {
          "internalType": "bytes2",
          "name": "credentialType",
          "type": "bytes2"
        },
        {
          "internalType": "bytes",
          "name": "encryptedPublicKey",
          "type": "bytes"
        },
        {
          "internalType": "uint256",
          "name": "listId",
          "type": "uint256"
        },
        {
          "internalType": "uint32",
          "name": "index",
          "type": "uint32"
        },
        {
          "internalType": "string",
          "name": "traceId",
          "type": "string"
        },
        {
          "internalType": "string",
          "name": "caoDid",
          "type": "string"
        }
      ],
      "name": "setEntry",
      "outputs": [],
      "stateMutability": "nonpayable",
      "type": "function"
    },
    {
      "inputs": [
        {
          "internalType": "bytes2[]",
          "name": "freeCredentialTypesList",
          "type": "bytes2[]"
        }
      ],
      "name": "addFreeTypes",
      "outputs": [],
      "stateMutability": "nonpayable",
      "type": "function"
    },
    {
      "inputs": [
        {
          "internalType": "bytes2[]",
          "name": "freeCredentialTypesList",
          "type": "bytes2[]"
        }
      ],
      "name": "removeFreeTypes",
      "outputs": [],
      "stateMutability": "nonpayable",
      "type": "function"
    },
    {
      "inputs": [
        {
          "internalType": "bytes2",
          "name": "credentialType",
          "type": "bytes2"
        }
      ],
      "name": "isFreeCredentialType",
      "outputs": [
        {
          "internalType": "bool",
          "name": "",
          "type": "bool"
        }
      ],
      "stateMutability": "view",
      "type": "function",
      "constant": true
    },
    {
      "inputs": [
        {
          "components": [
            {
              "internalType": "address",
              "name": "accountId",
              "type": "address"
            },
            {
              "internalType": "uint256",
              "name": "listId",
              "type": "uint256"
            },
            {
              "internalType": "uint32",
              "name": "index",
              "type": "uint32"
            }
          ],
          "internalType": "struct MetadataRegistry.CredentialIdentifier[]",
          "name": "_entryIndexes",
          "type": "tuple[]"
        }
      ],
      "name": "getFreeEntries",
      "outputs": [
        {
          "components": [
            {
              "internalType": "bytes2",
              "name": "version",
              "type": "bytes2"
            },
            {
              "internalType": "bytes2",
              "name": "credentialType",
              "type": "bytes2"
            },
            {
              "internalType": "bytes2",
              "name": "algType",
              "type": "bytes2"
            },
            {
              "internalType": "bytes",
              "name": "encryptedPublicKey",
              "type": "bytes"
            },
            {
              "internalType": "bytes",
              "name": "issuerVc",
              "type": "bytes"
            }
          ],
          "internalType": "struct MetadataRegistry.CredentialMetadata[]",
          "name": "",
          "type": "tuple[]"
        }
      ],
      "stateMutability": "view",
      "type": "function",
      "constant": true
    },
    {
      "inputs": [
        {
          "components": [
            {
              "internalType": "address",
              "name": "accountId",
              "type": "address"
            },
            {
              "internalType": "uint256",
              "name": "listId",
              "type": "uint256"
            },
            {
              "internalType": "uint32",
              "name": "index",
              "type": "uint32"
            }
          ],
          "internalType": "struct MetadataRegistry.CredentialIdentifier[]",
          "name": "_entryIndexes",
          "type": "tuple[]"
        },
        {
          "internalType": "string",
          "name": "traceId",
          "type": "string"
        },
        {
          "internalType": "string",
          "name": "caoDid",
          "type": "string"
        },
        {
          "internalType": "string",
          "name": "burnerDid",
          "type": "string"
        }
      ],
      "name": "getPaidEntries",
      "outputs": [],
      "stateMutability": "nonpayable",
      "type": "function"
    }
  ],
  "bytecode": "0x608060405234801561001057600080fd5b50611f6c806100206000396000f3fe608060405234801561001057600080fd5b50600436106100b45760003560e01c8063891d245e11610071578063891d245e146101635780638f6ece411461019f57806392ecd653146101b25780639448cc04146101c5578063a2f41a5a146101f2578063c50a2def1461020557600080fd5b80631aee318e146100b95780631e1f5ea6146100e25780632f9a6d801461011557806340522a3d1461012a57806354c4992a1461013d57806382681bfa14610150575b600080fd5b6100cc6100c73660046118da565b610228565b6040516100d99190611ca7565b60405180910390f35b6101056100f03660046119b5565b60016020526000908152604090205460ff1681565b60405190151581526020016100d9565b61012861012336600461189f565b6102b5565b005b6101286101383660046117e7565b6103dd565b61012861014b36600461190d565b6104bd565b61012861015e366004611826565b610651565b610105610171366004611874565b6001600160a01b03919091166000908152600260208181526040808420948452939052919020015460ff1690565b6101286101ad366004611a95565b6107f3565b6101286101c03660046119cf565b6108fc565b6101056101d33660046119b5565b6001600160f01b03191660009081526001602052604090205460ff1690565b61012861020036600461189f565b610aca565b610218610213366004611874565b610bf6565b6040516100d99493929190611d5f565b6060600061023583610cbe565b905061024081611515565b6102af5760405162461bcd60e51b815260206004820152603560248201527f4f6e6c792066726565206372656164656e7469616c2074797065732069732061604482015274363637bbb2b2103bb4ba3437baba1031b7bab837b760591b60648201526084015b60405180910390fd5b92915050565b600060029054906101000a90046001600160a01b03166001600160a01b03166334ca4b646040518163ffffffff1660e01b815260040160206040518083038186803b15801561030357600080fd5b505afa158015610317573d6000803e3d6000fd5b505050506040513d601f19601f8201168201806040525081019061033b919061180a565b6001600160a01b0316336001600160a01b03161461036b5760405162461bcd60e51b81526004016102a690611d9f565b60005b81518110156103d9576001600083838151811061039b57634e487b7160e01b600052603260045260246000fd5b6020908102919091018101516001600160f01b0319168252810191909152604001600020805460ff19169055806103d181611ee1565b91505061036e565b5050565b600060029054906101000a90046001600160a01b03166001600160a01b03166334ca4b646040518163ffffffff1660e01b815260040160206040518083038186803b15801561042b57600080fd5b505afa15801561043f573d6000803e3d6000fd5b505050506040513d601f19601f82011682018060405250810190610463919061180a565b6001600160a01b0316336001600160a01b0316146104935760405162461bcd60e51b81526004016102a690611d9f565b600080546001600160a01b03909216620100000262010000600160b01b0319909216919091179055565b60006104c885610cbe565b90506104d381611515565b156105205760405162461bcd60e51b815260206004820152601960248201527f4e6f2070616964206372656164656e7469616c2074797065730000000000000060448201526064016102a6565b600080546040516378a9bb4360e11b8152336004820152620100009091046001600160a01b03169063f15376869060240160206040518083038186803b15801561056957600080fd5b505afa15801561057d573d6000803e3d6000fd5b505050506040513d601f19601f820116820180604052508101906105a19190611a7d565b600054604051630428d69160e41b81529192506201000090046001600160a01b03169063428d6910906105e09084908990899089903390600401611dce565b600060405180830381600087803b1580156105fa57600080fd5b505af115801561060e573d6000803e3d6000fd5b505050507fb9dd5ee1a79744a6d7df5d19e4f134f68f60763af7cb3b613f0e8c805d60f402826040516106419190611ca7565b60405180910390a1505050505050565b600054610100900460ff16158080156106715750600054600160ff909116105b8061068b5750303b15801561068b575060005460ff166001145b6106ee5760405162461bcd60e51b815260206004820152602e60248201527f496e697469616c697a61626c653a20636f6e747261637420697320616c72656160448201526d191e481a5b9a5d1a585b1a5e995960921b60648201526084016102a6565b6000805460ff191660011790558015610711576000805461ff0019166101001790555b6000805462010000600160b01b031916620100006001600160a01b038616021781555b82518110156107a757600180600085848151811061076257634e487b7160e01b600052603260045260246000fd5b6020908102919091018101516001600160f01b0319168252810191909152604001600020805460ff19169115159190911790558061079f81611ee1565b915050610734565b5080156107ee576000805461ff0019169055604051600181527f7f26b83ff96e1f2b6a682f133852f6798a09c465da95921460cefb38474024989060200160405180910390a15b505050565b3360009081526002602081815260408084208a8552909152909120015460ff16156108575760405162461bcd60e51b8152602060048201526014602482015273131a5cdd081a5908185b1c9958591e481d5cd95960621b60448201526064016102a6565b3360009081526002602090815260408083208984528252909120805460f088811c620100000263ffffffff199092169088901c17178155845190916108a3916001840191870190611598565b5060028101805460ff191660011790556040517f788ba2e4c4d09e6aab92832a08b45f7c5fc06147609d13484ddd7f94b1b2c1a2906108eb90339087908b9088908890611b3e565b60405180910390a150505050505050565b6127108363ffffffff16106109435760405162461bcd60e51b815260206004820152600d60248201526c092dcecc2d8d2c840d2dcc8caf609b1b60448201526064016102a6565b336000908152600360209081526040808320878452825280832063ffffffff8716845290915290206002015460ff16156109b45760405162461bcd60e51b8152602060048201526012602482015271125b99195e08185b1c9958591e481d5cd95960721b60448201526064016102a6565b336000908152600260208181526040808420888552909152909120015460ff16610a185760405162461bcd60e51b81526020600482015260156024820152744c697374204964206e6f74206176656c6961626c6560581b60448201526064016102a6565b336000908152600360209081526040808320878452825280832063ffffffff871684528252909120805461ffff191660f089901c17815586519091610a64916001840191890190611598565b506002808201805460ff19166001908117909155336000818152602093845260408082208a835290945283902092517f5b3dbf2c1245cb7fe5833a37872aae67caba79bd65f30522e778fc48297376a5936108eb93019089908c908a908a908a90611b9a565b600060029054906101000a90046001600160a01b03166001600160a01b03166334ca4b646040518163ffffffff1660e01b815260040160206040518083038186803b158015610b1857600080fd5b505afa158015610b2c573d6000803e3d6000fd5b505050506040513d601f19601f82011682018060405250810190610b50919061180a565b6001600160a01b0316336001600160a01b031614610b805760405162461bcd60e51b81526004016102a690611d9f565b60005b81518110156103d9576001806000848481518110610bb157634e487b7160e01b600052603260045260246000fd5b6020908102919091018101516001600160f01b0319168252810191909152604001600020805460ff191691151591909117905580610bee81611ee1565b915050610b83565b60026020908152600092835260408084209091529082529020805460018201805460f083811b9462010000909404901b929190610c3290611ea6565b80601f0160208091040260200160405190810160405280929190818152602001828054610c5e90611ea6565b8015610cab5780601f10610c8057610100808354040283529160200191610cab565b820191906000526020600020905b815481529060010190602001808311610c8e57829003601f168201915b5050506002909301549192505060ff1684565b60606000825167ffffffffffffffff811115610cea57634e487b7160e01b600052604160045260246000fd5b604051908082528060200260200182016040528015610d4257816020015b6040805160a0810182526000808252602080830182905292820152606080820181905260808201528252600019909201910181610d085790505b50905060005b835181101561150e5760026000858381518110610d7557634e487b7160e01b600052603260045260246000fd5b6020026020010151600001516001600160a01b03166001600160a01b031681526020019081526020016000206000858381518110610dc357634e487b7160e01b600052603260045260246000fd5b60209081029190910181015181015182528101919091526040016000206002015460ff16610e265760405162461bcd60e51b815260206004820152601060248201526f131a5cdd081a59081b9bdd081d5cd95960821b60448201526064016102a6565b60036000858381518110610e4a57634e487b7160e01b600052603260045260246000fd5b6020026020010151600001516001600160a01b03166001600160a01b031681526020019081526020016000206000858381518110610e9857634e487b7160e01b600052603260045260246000fd5b60200260200101516020015181526020019081526020016000206000858381518110610ed457634e487b7160e01b600052603260045260246000fd5b60209081029190910181015160409081015163ffffffff16835290820192909252016000206002015460ff16610f3d5760405162461bcd60e51b815260206004820152600e60248201526d125b99195e081b9bdd081d5cd95960921b60448201526064016102a6565b60026000858381518110610f6157634e487b7160e01b600052603260045260246000fd5b6020026020010151600001516001600160a01b03166001600160a01b031681526020019081526020016000206000858381518110610faf57634e487b7160e01b600052603260045260246000fd5b602002602001015160200151815260200190815260200160002060000160009054906101000a900460f01b828281518110610ffa57634e487b7160e01b600052603260045260246000fd5b60209081029190910101516001600160f01b03199091169052835160039060009086908490811061103b57634e487b7160e01b600052603260045260246000fd5b6020026020010151600001516001600160a01b03166001600160a01b03168152602001908152602001600020600085838151811061108957634e487b7160e01b600052603260045260246000fd5b602002602001015160200151815260200190815260200160002060008583815181106110c557634e487b7160e01b600052603260045260246000fd5b60200260200101516040015163ffffffff1663ffffffff16815260200190815260200160002060000160009054906101000a900460f01b82828151811061111c57634e487b7160e01b600052603260045260246000fd5b6020026020010151602001906001600160f01b03191690816001600160f01b031916815250506002600085838151811061116657634e487b7160e01b600052603260045260246000fd5b6020026020010151600001516001600160a01b03166001600160a01b0316815260200190815260200160002060008583815181106111b457634e487b7160e01b600052603260045260246000fd5b602002602001015160200151815260200190815260200160002060000160029054906101000a900460f01b8282815181106111ff57634e487b7160e01b600052603260045260246000fd5b6020026020010151604001906001600160f01b03191690816001600160f01b031916815250506003600085838151811061124957634e487b7160e01b600052603260045260246000fd5b6020026020010151600001516001600160a01b03166001600160a01b03168152602001908152602001600020600085838151811061129757634e487b7160e01b600052603260045260246000fd5b602002602001015160200151815260200190815260200160002060008583815181106112d357634e487b7160e01b600052603260045260246000fd5b60200260200101516040015163ffffffff1663ffffffff168152602001908152602001600020600101805461130790611ea6565b80601f016020809104026020016040519081016040528092919081815260200182805461133390611ea6565b80156113805780601f1061135557610100808354040283529160200191611380565b820191906000526020600020905b81548152906001019060200180831161136357829003601f168201915b50505050508282815181106113a557634e487b7160e01b600052603260045260246000fd5b602002602001015160600181905250600260008583815181106113d857634e487b7160e01b600052603260045260246000fd5b6020026020010151600001516001600160a01b03166001600160a01b03168152602001908152602001600020600085838151811061142657634e487b7160e01b600052603260045260246000fd5b6020026020010151602001518152602001908152602001600020600101805461144e90611ea6565b80601f016020809104026020016040519081016040528092919081815260200182805461147a90611ea6565b80156114c75780601f1061149c576101008083540402835291602001916114c7565b820191906000526020600020905b8154815290600101906020018083116114aa57829003601f168201915b50505050508282815181106114ec57634e487b7160e01b600052603260045260246000fd5b602002602001015160800181905250808061150690611ee1565b915050610d48565b5092915050565b6000805b825181101561158f5761157083828151811061154557634e487b7160e01b600052603260045260246000fd5b6020026020010151602001516001600160f01b03191660009081526001602052604090205460ff1690565b61157d5750600092915050565b8061158781611ee1565b915050611519565b50600192915050565b8280546115a490611ea6565b90600052602060002090601f0160209004810192826115c6576000855561160c565b82601f106115df57805160ff191683800117855561160c565b8280016001018555821561160c579182015b8281111561160c5782518255916020019190600101906115f1565b5061161892915061161c565b5090565b5b80821115611618576000815560010161161d565b600082601f830112611641578081fd5b8135602061165661165183611e82565b611e51565b80838252828201915082860187848660051b8901011115611675578586fd5b855b8581101561169a576116888261174b565b84529284019290840190600101611677565b5090979650505050505050565b600082601f8301126116b7578081fd5b813560206116c761165183611e82565b828152818101908583016060808602880185018910156116e5578687fd5b865b8681101561173d5781838b0312156116fd578788fd5b611705611e28565b833561171081611f1e565b8152838701358782015260406117278186016117d3565b90820152855293850193918101916001016116e7565b509198975050505050505050565b80356001600160f01b03198116811461176357600080fd5b919050565b600082601f830112611778578081fd5b813567ffffffffffffffff81111561179257611792611f08565b6117a5601f8201601f1916602001611e51565b8181528460208386010111156117b9578283fd5b816020850160208301379081016020019190915292915050565b803563ffffffff8116811461176357600080fd5b6000602082840312156117f8578081fd5b813561180381611f1e565b9392505050565b60006020828403121561181b578081fd5b815161180381611f1e565b60008060408385031215611838578081fd5b823561184381611f1e565b9150602083013567ffffffffffffffff81111561185e578182fd5b61186a85828601611631565b9150509250929050565b60008060408385031215611886578182fd5b823561189181611f1e565b946020939093013593505050565b6000602082840312156118b0578081fd5b813567ffffffffffffffff8111156118c6578182fd5b6118d284828501611631565b949350505050565b6000602082840312156118eb578081fd5b813567ffffffffffffffff811115611901578182fd5b6118d2848285016116a7565b60008060008060808587031215611922578182fd5b843567ffffffffffffffff80821115611939578384fd5b611945888389016116a7565b9550602087013591508082111561195a578384fd5b61196688838901611768565b9450604087013591508082111561197b578384fd5b61198788838901611768565b9350606087013591508082111561199c578283fd5b506119a987828801611768565b91505092959194509250565b6000602082840312156119c6578081fd5b6118038261174b565b60008060008060008060c087890312156119e7578182fd5b6119f08761174b565b9550602087013567ffffffffffffffff80821115611a0c578384fd5b611a188a838b01611768565b965060408901359550611a2d60608a016117d3565b94506080890135915080821115611a42578384fd5b611a4e8a838b01611768565b935060a0890135915080821115611a63578283fd5b50611a7089828a01611768565b9150509295509295509295565b600060208284031215611a8e578081fd5b5051919050565b60008060008060008060c08789031215611aad578384fd5b86359550611abd6020880161174b565b9450611acb6040880161174b565b9350606087013567ffffffffffffffff80821115611ae7578384fd5b611a2d8a838b01611768565b60008151808452815b81811015611b1857602081850181015186830182015201611afc565b81811115611b295782602083870101525b50601f01601f19169290920160200192915050565b6001600160a01b038616815260a060208201819052600090611b6290830187611af3565b8560408401528281036060840152611b7a8186611af3565b90508281036080840152611b8e8185611af3565b98975050505050505050565b6001600160a01b038816815260e0602082015286546000908190600181811c9082811680611bc957607f831692505b60208310811415611be857634e487b7160e01b86526022600452602486fd5b60e087018390526101008701818015611c085760018114611c1a57611c45565b60ff1986168252602082019650611c45565b60008f815260209020885b86811015611c3f5781548482015290850190602001611c25565b83019750505b505050505050876040840152611c6760608401886001600160f01b0319169052565b63ffffffff8616608084015282810360a0840152611c858186611af3565b905082810360c0840152611c998185611af3565b9a9950505050505050505050565b60006020808301818452808551808352604092508286019150828160051b870101848801865b83811015611d5157888303603f19018552815180516001600160f01b031990811685528882015181168986015287820151168785015260608082015160a08287018190529190611d1f83880182611af3565b9250505060808083015192508582038187015250611d3d8183611af3565b968901969450505090860190600101611ccd565b509098975050505050505050565b6001600160f01b0319858116825284166020820152608060408201819052600090611d8c90830185611af3565b9050821515606083015295945050505050565b6020808252601590820152742a34329031b0b63632b91034b9903737ba102b272360591b604082015260600190565b85815260a060208201526000611de760a0830187611af3565b8281036040840152611df98187611af3565b90508281036060840152611e0d8186611af3565b91505060018060a01b03831660808301529695505050505050565b6040516060810167ffffffffffffffff81118282101715611e4b57611e4b611f08565b60405290565b604051601f8201601f1916810167ffffffffffffffff81118282101715611e7a57611e7a611f08565b604052919050565b600067ffffffffffffffff821115611e9c57611e9c611f08565b5060051b60200190565b600181811c90821680611eba57607f821691505b60208210811415611edb57634e487b7160e01b600052602260045260246000fd5b50919050565b6000600019821415611f0157634e487b7160e01b81526011600452602481fd5b5060010190565b634e487b7160e01b600052604160045260246000fd5b6001600160a01b0381168114611f3357600080fd5b5056fea2646970667358221220bb3bd2a7ca8bfddac962732de2d34f8a9f626850eccb7bc1a8e13765b1a32bf864736f6c63430008040033",
  "immutableReferences": {},
  "source": "pragma solidity 0.8.4;\npragma abicoder v2;\n\nimport \"@openzeppelin/contracts-upgradeable/proxy/utils/Initializable.sol\";\nimport \"verification-coupon/contracts/VerificationCoupon.sol\";\n\ncontract MetadataRegistry is Initializable {\n\n    VerificationCoupon internal Coupon;\n\n    struct CredentialEntry {\n        bytes2 credentialType;\n        bytes encryptedPublicKey;\n        bool used;\n    }\n\n    struct ListMetadata {\n        bytes2 version;\n        bytes2 algType;\n        bytes issuerVc;\n        bool used;\n    }\n\n    struct CredentialIdentifier {\n        address accountId;\n        uint256 listId;\n        uint32 index;\n    }\n\n    struct CredentialMetadata {\n        bytes2 version;\n        bytes2 credentialType;\n        bytes2 algType;\n        bytes encryptedPublicKey;\n        bytes issuerVc;\n    }\n\n    mapping(bytes2 => bool) public freeCredentialTypes;\n    mapping(address => mapping(uint256 => ListMetadata)) public lists;\n    mapping(address => mapping(uint256 => mapping(uint32 => CredentialEntry))) internal indexUsed;\n\n    event CreatedMetadataList(address sender, bytes issuerVc, uint256 listId, string traceId, string caoDid);\n    event AddedCredentialMetadata(address sender, bytes issuerVc, uint256 listId, bytes2 credentialType, uint32 index, string traceId, string caoDid);\n    event GotCredentialMetadata(CredentialMetadata[] credentialMetadataList);\n\n    function initialize(address _coupon,  bytes2[] memory freeCredentialTypesList) public initializer {\n        Coupon = VerificationCoupon(_coupon);\n        for (uint256 i = 0; i < freeCredentialTypesList.length; i++) {\n            freeCredentialTypes[freeCredentialTypesList[i]] = true;\n        }\n    }\n\n    function setCouponAddress(address _coupon) public {\n        require(msg.sender == Coupon.getVNF(), \"The caller is not VNF\");\n        Coupon = VerificationCoupon(_coupon);\n    }\n\n    function isExistMetadataList(address accountId, uint256 listId) public view returns(bool){\n        return lists[accountId][listId].used;\n    }\n\n    function newMetadataList(uint256 listId, bytes2 algType, bytes2 version, bytes memory issuerVc, string memory traceId, string memory caoDid) public {\n        require(!lists[msg.sender][listId].used, \"List id already used\");\n        ListMetadata storage entries = lists[msg.sender][listId];\n        entries.version = version;\n        entries.algType = algType;\n        entries.issuerVc = issuerVc;\n        entries.used = true;\n        emit CreatedMetadataList(msg.sender, issuerVc, listId, traceId, caoDid);\n    }\n\n    function setEntry(\n        bytes2 credentialType,\n        bytes memory encryptedPublicKey,\n        uint256 listId,\n        uint32 index,\n        string memory traceId,\n        string memory caoDid\n    ) public {\n        require(index < 10000, \"Invalid index\");\n        require(!indexUsed[msg.sender][listId][index].used, \"Index already used\");\n        require(lists[msg.sender][listId].used, \"List Id not aveliable\");\n        CredentialEntry storage entryDataLoclal = indexUsed[msg.sender][listId][index];\n        entryDataLoclal.credentialType = credentialType;\n        entryDataLoclal.encryptedPublicKey = encryptedPublicKey;\n        entryDataLoclal.used = true;\n        emit AddedCredentialMetadata(msg.sender, lists[msg.sender][listId].issuerVc, listId, credentialType, index, traceId, caoDid);\n    }\n\n    function addFreeTypes (bytes2[] memory freeCredentialTypesList) public {\n        require(msg.sender == Coupon.getVNF(), \"The caller is not VNF\");\n        for (uint256 i = 0; i < freeCredentialTypesList.length; i++) {\n            freeCredentialTypes[freeCredentialTypesList[i]] = true;\n        }\n    }\n\n    function removeFreeTypes (bytes2[] memory freeCredentialTypesList) public {\n        require(msg.sender == Coupon.getVNF(), \"The caller is not VNF\");\n        for (uint256 i = 0; i < freeCredentialTypesList.length; i++) {\n            delete freeCredentialTypes[freeCredentialTypesList[i]];\n        }\n    }\n\n    function isFreeCredentialType(bytes2 credentialType) public view returns(bool){\n        return freeCredentialTypes[credentialType];\n    }\n\n    function isFreeGetEntries(CredentialMetadata[] memory entries) private view returns(bool){\n        for (uint256 i = 0; i < entries.length; i++) {\n            if (!isFreeCredentialType(entries[i].credentialType)) {\n                return false;\n            }\n        }\n        return true;\n    }\n\n    function _getEntries(\n        CredentialIdentifier[] memory _entryIndexes\n    ) private view returns (CredentialMetadata[] memory) {\n        CredentialMetadata[] memory entries = new CredentialMetadata[](\n            _entryIndexes.length\n        );\n        for (uint256 i = 0; i < _entryIndexes.length; i++) {\n            require(lists[_entryIndexes[i].accountId][_entryIndexes[i].listId].used, \"List id not used\");\n            require(indexUsed[_entryIndexes[i].accountId][_entryIndexes[i].listId][_entryIndexes[i].index].used, \"Index not used\");\n            entries[i].version = lists[_entryIndexes[i].accountId][_entryIndexes[i].listId].version;\n            entries[i].credentialType = indexUsed[_entryIndexes[i].accountId][_entryIndexes[i].listId][_entryIndexes[i].index].credentialType;\n            entries[i].algType = lists[_entryIndexes[i].accountId][_entryIndexes[i].listId].algType;\n            entries[i].encryptedPublicKey = indexUsed[_entryIndexes[i].accountId][_entryIndexes[i].listId][_entryIndexes[i].index].encryptedPublicKey;\n            entries[i].issuerVc = lists[_entryIndexes[i].accountId][_entryIndexes[i].listId].issuerVc;\n        }\n        return entries;\n    }\n\n    function getFreeEntries(\n        CredentialIdentifier[] memory _entryIndexes\n    ) public view returns (CredentialMetadata[] memory) {\n        CredentialMetadata[] memory entries = _getEntries(_entryIndexes);\n        require(isFreeGetEntries(entries), 'Only free creadential types is allowed without coupon');\n        return entries;\n    }\n\n    function getPaidEntries(\n        CredentialIdentifier[] memory _entryIndexes,\n        string memory traceId,\n        string memory caoDid, \n        string memory burnerDid\n    ) public {\n        CredentialMetadata[] memory entries = _getEntries(_entryIndexes);\n        require(!isFreeGetEntries(entries), 'No paid creadential types');\n        uint256 _coupon = Coupon.getTokenId(msg.sender);\n        Coupon.burn(_coupon, traceId, caoDid, burnerDid, msg.sender);\n        emit GotCredentialMetadata(entries);\n    }\n}\n",
  "sourcePath": "/Users/nassan/s/vclworld/blockchain-contracts/src/contracts/metadata-registry/contracts/MetadataRegistry.sol",
  "compiler": {
    "name": "solc",
    "version": "0.8.4+commit.c7e474f2.Emscripten.clang"
  },
  "schemaVersion": "3.4.9",
  "updatedAt": "2022-09-29T13:02:01.430Z",
  "networkType": "ethereum",
  "devdoc": {
    "kind": "dev",
    "methods": {},
    "version": 1
  },
  "userdoc": {
    "kind": "user",
    "methods": {},
    "version": 1
  }
}