{
  "contractName": "RevocationRegistry",
  "abi": [
    {
      "anonymous": false,
      "inputs": [
        {
          "indexed": false,
          "internalType": "uint8",
          "name": "version",
          "type": "uint8"
        }
      ],
      "name": "Initialized",
      "type": "event"
    },
    {
      "anonymous": false,
      "inputs": [
        {
          "indexed": false,
          "internalType": "address",
          "name": "wallet",
          "type": "address"
        },
        {
          "indexed": false,
          "internalType": "uint256",
          "name": "listId",
          "type": "uint256"
        },
        {
          "indexed": false,
          "internalType": "string",
          "name": "traceId",
          "type": "string"
        },
        {
          "indexed": false,
          "internalType": "string",
          "name": "caoDid",
          "type": "string"
        }
      ],
      "name": "RevocationListCreate",
      "type": "event"
    },
    {
      "anonymous": false,
      "inputs": [
        {
          "indexed": false,
          "internalType": "address",
          "name": "owner",
          "type": "address"
        },
        {
          "indexed": false,
          "internalType": "uint256",
          "name": "listId",
          "type": "uint256"
        },
        {
          "indexed": false,
          "internalType": "uint32",
          "name": "index",
          "type": "uint32"
        },
        {
          "indexed": false,
          "internalType": "string",
          "name": "traceId",
          "type": "string"
        },
        {
          "indexed": false,
          "internalType": "string",
          "name": "caoDid",
          "type": "string"
        }
      ],
      "name": "RevokedStatusUpdate",
      "type": "event"
    },
    {
      "anonymous": false,
      "inputs": [
        {
          "indexed": false,
          "internalType": "address",
          "name": "wallet",
          "type": "address"
        },
        {
          "indexed": false,
          "internalType": "string",
          "name": "traceId",
          "type": "string"
        },
        {
          "indexed": false,
          "internalType": "string",
          "name": "caoDid",
          "type": "string"
        }
      ],
      "name": "WalletAdded",
      "type": "event"
    },
    {
      "inputs": [
        {
          "internalType": "address",
          "name": "",
          "type": "address"
        }
      ],
      "name": "registry",
      "outputs": [
        {
          "internalType": "bool",
          "name": "walletInRegistry",
          "type": "bool"
        },
        {
          "internalType": "uint256",
          "name": "totalLists",
          "type": "uint256"
        }
      ],
      "stateMutability": "view",
      "type": "function"
    },
    {
      "inputs": [],
      "name": "initialize",
      "outputs": [],
      "stateMutability": "nonpayable",
      "type": "function"
    },
    {
      "inputs": [
        {
          "internalType": "address",
          "name": "_permissions",
          "type": "address"
        }
      ],
      "name": "setPermissionsAddress",
      "outputs": [],
      "stateMutability": "nonpayable",
      "type": "function"
    },
    {
      "inputs": [],
      "name": "getPermissionsAddress",
      "outputs": [
        {
          "internalType": "address",
          "name": "",
          "type": "address"
        }
      ],
      "stateMutability": "view",
      "type": "function"
    },
    {
      "inputs": [
        {
          "internalType": "address",
          "name": "wallet",
          "type": "address"
        }
      ],
      "name": "isWalletExist",
      "outputs": [
        {
          "internalType": "bool",
          "name": "",
          "type": "bool"
        }
      ],
      "stateMutability": "view",
      "type": "function"
    },
    {
      "inputs": [
        {
          "internalType": "address",
          "name": "wallet",
          "type": "address"
        },
        {
          "internalType": "uint256",
          "name": "listId",
          "type": "uint256"
        }
      ],
      "name": "isListExist",
      "outputs": [
        {
          "internalType": "bool",
          "name": "",
          "type": "bool"
        }
      ],
      "stateMutability": "view",
      "type": "function"
    },
    {
      "inputs": [
        {
          "internalType": "string",
          "name": "traceId",
          "type": "string"
        },
        {
          "internalType": "string",
          "name": "caoDid",
          "type": "string"
        }
      ],
      "name": "addWallet",
      "outputs": [],
      "stateMutability": "nonpayable",
      "type": "function"
    },
    {
      "inputs": [
        {
          "internalType": "string",
          "name": "traceId",
          "type": "string"
        },
        {
          "internalType": "string",
          "name": "caoDid",
          "type": "string"
        },
        {
          "internalType": "bytes",
          "name": "signature",
          "type": "bytes"
        }
      ],
      "name": "addWalletSigned",
      "outputs": [],
      "stateMutability": "nonpayable",
      "type": "function"
    },
    {
      "inputs": [
        {
          "internalType": "uint256",
          "name": "listId",
          "type": "uint256"
        },
        {
          "internalType": "string",
          "name": "traceId",
          "type": "string"
        },
        {
          "internalType": "string",
          "name": "caoDid",
          "type": "string"
        }
      ],
      "name": "addRevocationList",
      "outputs": [],
      "stateMutability": "nonpayable",
      "type": "function"
    },
    {
      "inputs": [
        {
          "internalType": "uint256",
          "name": "listId",
          "type": "uint256"
        },
        {
          "internalType": "string",
          "name": "traceId",
          "type": "string"
        },
        {
          "internalType": "string",
          "name": "caoDid",
          "type": "string"
        },
        {
          "internalType": "bytes",
          "name": "signature",
          "type": "bytes"
        }
      ],
      "name": "addRevocationListSigned",
      "outputs": [],
      "stateMutability": "nonpayable",
      "type": "function"
    },
    {
      "inputs": [
        {
          "internalType": "uint256",
          "name": "listId",
          "type": "uint256"
        },
        {
          "internalType": "uint32",
          "name": "index",
          "type": "uint32"
        },
        {
          "internalType": "string",
          "name": "traceId",
          "type": "string"
        },
        {
          "internalType": "string",
          "name": "caoDid",
          "type": "string"
        }
      ],
      "name": "setRevokedStatus",
      "outputs": [],
      "stateMutability": "nonpayable",
      "type": "function"
    },
    {
      "inputs": [
        {
          "internalType": "uint256",
          "name": "listId",
          "type": "uint256"
        },
        {
          "internalType": "uint32",
          "name": "index",
          "type": "uint32"
        },
        {
          "internalType": "string",
          "name": "traceId",
          "type": "string"
        },
        {
          "internalType": "string",
          "name": "caoDid",
          "type": "string"
        },
        {
          "internalType": "bytes",
          "name": "signature",
          "type": "bytes"
        }
      ],
      "name": "setRevokedStatusSigned",
      "outputs": [],
      "stateMutability": "nonpayable",
      "type": "function"
    },
    {
      "inputs": [
        {
          "internalType": "address",
          "name": "wallet",
          "type": "address"
        },
        {
          "internalType": "uint256",
          "name": "listId",
          "type": "uint256"
        },
        {
          "internalType": "uint32",
          "name": "index",
          "type": "uint32"
        }
      ],
      "name": "getRevokedStatus",
      "outputs": [
        {
          "internalType": "uint8",
          "name": "revokedStatus",
          "type": "uint8"
        }
      ],
      "stateMutability": "view",
      "type": "function"
    },
    {
      "inputs": [],
      "name": "getRevocationListCount",
      "outputs": [
        {
          "internalType": "uint256",
          "name": "",
          "type": "uint256"
        }
      ],
      "stateMutability": "view",
      "type": "function"
    }
  ],
  "bytecode": "0x608060405234801561001057600080fd5b50611722806100206000396000f3fe608060405234801561001057600080fd5b50600436106100ea5760003560e01c806393d630f01161008c578063cb7dfa2211610066578063cb7dfa2214610204578063f4aa03cb1461021a578063f97cbecd1461022d578063fb5e3c251461024057600080fd5b806393d630f0146101b1578063a3b3cfbc146101d6578063c86cb67a146101f157600080fd5b8063318c6af9116100c8578063318c6af9146101705780634d5fff6d146101835780638129fc1c14610196578063872bf91c1461019e57600080fd5b8063038defd7146100ef57806306295354146101385780630b3738ac1461014d575b600080fd5b61011c6100fd36600461116e565b6001602081905260009182526040909120805491015460ff9091169082565b6040805192151583526020830191909152015b60405180910390f35b61014b6101463660046113fb565b610253565b005b61016061015b3660046111ad565b610292565b604051901515815260200161012f565b61014b61017e366004611276565b6102c1565b61014b6101913660046113ba565b6102eb565b61014b6102f8565b61014b6101ac36600461132c565b610406565b6101c46101bf3660046111d8565b610432565b60405160ff909116815260200161012f565b6002546040516001600160a01b03909116815260200161012f565b61014b6101ff3660046112fa565b61056b565b61020c61057c565b60405190815260200161012f565b61014b610228366004611215565b6106c5565b61016061023b36600461116e565b6106d4565b61014b61024e36600461116e565b6106f2565b6040805133602082015260009161027b91015b6040516020818303038152906040528361080e565b905061028a8686868685610897565b505050505050565b6001600160a01b0391909116600090815260016020908152604080832093835260029093019052205460ff1690565b604080513360208201526000916102d89101610266565b90506102e5848483610b70565b50505050565b6102e58484848433610897565b600054610100900460ff16158080156103185750600054600160ff909116105b806103325750303b158015610332575060005460ff166001145b61039a5760405162461bcd60e51b815260206004820152602e60248201527f496e697469616c697a61626c653a20636f6e747261637420697320616c72656160448201526d191e481a5b9a5d1a585b1a5e995960921b60648201526084015b60405180910390fd5b6000805460ff1916600117905580156103bd576000805461ff0019166101001790555b8015610403576000805461ff0019169055604051600181527f7f26b83ff96e1f2b6a682f133852f6798a09c465da95921460cefb38474024989060200160405180910390a15b50565b6040805133602082015260009161041d9101610266565b905061042b85858584610caf565b5050505050565b60006128008263ffffffff16106104855760405162461bcd60e51b81526020600482015260176024820152761b1a5cdd081a5b99195e081bdd5d081bd988189bdd5b99604a1b6044820152606401610391565b61048e846106d4565b6104aa5760405162461bcd60e51b8152600401610391906115fa565b6104b48484610292565b6104d05760405162461bcd60e51b8152600401610391906115ae565b6000806104df84610100610f53565b6001600160a01b03881660009081526001602081815260408084208b85526003019091528220805494965092945063ffffffff8086169190911b93919284929091871690811061053f57634e487b7160e01b600052603260045260246000fd5b906000526020600020015416905061055f8363ffffffff1682901c610f9e565b98975050505050505050565b61057783838333610caf565b505050565b60025460405163de1ac2fd60e01b81523360048201819052600092909183916001600160a01b03169063de1ac2fd9060240160206040518083038186803b1580156105c657600080fd5b505afa1580156105da573d6000803e3d6000fd5b505050506040513d601f19601f820116820180604052508101906105fe9190611191565b9050610609816106d4565b6106255760405162461bcd60e51b8152600401610391906115fa565b60025460405163de1ac2fd60e01b81523360048201526000916001600160a01b03169063de1ac2fd9060240160206040518083038186803b15801561066957600080fd5b505afa15801561067d573d6000803e3d6000fd5b505050506040513d601f19601f820116820180604052508101906106a19190611191565b6001600160a01b031660009081526001602081905260409091200154935050505090565b6106d0828233610b70565b5050565b6001600160a01b031660009081526001602052604090205460ff1690565b6002546001600160a01b031615806107a05750600260009054906101000a90046001600160a01b03166001600160a01b03166334ca4b646040518163ffffffff1660e01b815260040160206040518083038186803b15801561075357600080fd5b505afa158015610767573d6000803e3d6000fd5b505050506040513d601f19601f8201168201806040525081019061078b9190611191565b6001600160a01b0316336001600160a01b0316145b6107ec5760405162461bcd60e51b815260206004820152601e60248201527f5065726d697373696f6e733a2063616c6c6572206973206e6f7420564e4600006044820152606401610391565b600280546001600160a01b0319166001600160a01b0392909216919091179055565b81516020830120600090600080600061082686611003565b60408051600081526020810180835289905260ff8316918101919091526060810184905260808101839052929550909350915060019060a0016020604051602081039080840390855afa158015610881573d6000803e3d6000fd5b5050604051601f19015198975050505050505050565b60025460405163de1ac2fd60e01b81526001600160a01b038084166004830152839260009291169063de1ac2fd9060240160206040518083038186803b1580156108e057600080fd5b505afa1580156108f4573d6000803e3d6000fd5b505050506040513d601f19601f820116820180604052508101906109189190611191565b9050610923816106d4565b61093f5760405162461bcd60e51b8152600401610391906115fa565b60025460405163de1ac2fd60e01b81526001600160a01b038581166004830152600092169063de1ac2fd9060240160206040518083038186803b15801561098557600080fd5b505afa158015610999573d6000803e3d6000fd5b505050506040513d601f19601f820116820180604052508101906109bd9190611191565b90506128008763ffffffff1610610a105760405162461bcd60e51b81526020600482015260176024820152761b1a5cdd081a5b99195e081bdd5d081bd988189bdd5b99604a1b6044820152606401610391565b610a1a8189610292565b610a365760405162461bcd60e51b8152600401610391906115ae565b600080610a4589610100610f53565b6001600160a01b03851660009081526001602090815260408083208f8452600301909152812080549395509193509163ffffffff8516908110610a9857634e487b7160e01b600052603260045260246000fd5b9060005260206000200154905060008263ffffffff166001901b905080821760016000876001600160a01b03166001600160a01b0316815260200190815260200160002060030160008e81526020019081526020016000208563ffffffff1681548110610b1557634e487b7160e01b600052603260045260246000fd5b90600052602060002001819055507f9c46ae7085c08a60e51dfbb0e4ddaa4dca98233a0d548b0b0975ac638d4be1b8858d8d8d8d604051610b5a959493929190611569565b60405180910390a1505050505050505050505050565b60025460405163de1ac2fd60e01b81526001600160a01b038381166004830152600092169063de1ac2fd9060240160206040518083038186803b158015610bb657600080fd5b505afa158015610bca573d6000803e3d6000fd5b505050506040513d601f19601f82011682018060405250810190610bee9190611191565b9050610bf9816106d4565b15610c465760405162461bcd60e51b815260206004820152601a60248201527f77616c6c657420616c726561647920696e2072656769737472790000000000006044820152606401610391565b6001600160a01b038116600090815260016020819052604091829020805460ff1916909117815590517f7b40516caa9d605d0548095089dc3d94f4956f34258f93c3892dec91c95f6dbb90610ca0908490889088906114e5565b60405180910390a15050505050565b60025460405163de1ac2fd60e01b81526001600160a01b038084166004830152839260009291169063de1ac2fd9060240160206040518083038186803b158015610cf857600080fd5b505afa158015610d0c573d6000803e3d6000fd5b505050506040513d601f19601f82011682018060405250810190610d309190611191565b9050610d3b816106d4565b610d575760405162461bcd60e51b8152600401610391906115fa565b60025460405163de1ac2fd60e01b81526001600160a01b038581166004830152600092169063de1ac2fd9060240160206040518083038186803b158015610d9d57600080fd5b505afa158015610db1573d6000803e3d6000fd5b505050506040513d601f19601f82011682018060405250810190610dd59190611191565b9050610de18188610292565b15610e425760405162461bcd60e51b815260206004820152602b60248201527f7265766f636174696f6e206c697374207769746820676976656e20696420616c60448201526a1c9958591e48195e1a5cdd60aa1b6064820152608401610391565b6001600160a01b038116600090815260016020526040812090610e6961010061280061162a565b67ffffffffffffffff811115610e8f57634e487b7160e01b600052604160045260246000fd5b604051908082528060200260200182016040528015610eb8578160200160208202803683370190505b5060008a81526002840160209081526040808320805460ff191660011790556003860182529091208251929350610ef3929091840190611077565b50600182018054906000610f0683611661565b91905055507fd89088221762844f5543989c5f9c2fcd590af3f025969478b23f67f880351622838a8a8a604051610f409493929190611525565b60405180910390a1505050505050505050565b6000808263ffffffff168463ffffffff161015610f7557506000905082610f97565b6000610f81848661163e565b90506000610f8f8587611688565b919350909150505b9250929050565b60006101008210610fff5760405162461bcd60e51b815260206004820152602560248201527f53616665436173743a2076616c756520646f65736e27742066697420696e2038604482015264206269747360d81b6064820152608401610391565b5090565b600080600083516041146110595760405162461bcd60e51b815260206004820152601860248201527f696e76616c6964207369676e6174757265206c656e67746800000000000000006044820152606401610391565b50505060208101516040820151606090920151909260009190911a90565b8280548282559060005260206000209081019282156110b2579160200282015b828111156110b2578251825591602001919060010190611097565b50610fff9291505b80821115610fff57600081556001016110ba565b600082601f8301126110de578081fd5b813567ffffffffffffffff808211156110f9576110f96116c1565b604051601f8301601f19908116603f01168101908282118183101715611121576111216116c1565b81604052838152866020858801011115611139578485fd5b8360208701602083013792830160200193909352509392505050565b803563ffffffff8116811461116957600080fd5b919050565b60006020828403121561117f578081fd5b813561118a816116d7565b9392505050565b6000602082840312156111a2578081fd5b815161118a816116d7565b600080604083850312156111bf578081fd5b82356111ca816116d7565b946020939093013593505050565b6000806000606084860312156111ec578081fd5b83356111f7816116d7565b92506020840135915061120c60408501611155565b90509250925092565b60008060408385031215611227578182fd5b823567ffffffffffffffff8082111561123e578384fd5b61124a868387016110ce565b9350602085013591508082111561125f578283fd5b5061126c858286016110ce565b9150509250929050565b60008060006060848603121561128a578283fd5b833567ffffffffffffffff808211156112a1578485fd5b6112ad878388016110ce565b945060208601359150808211156112c2578384fd5b6112ce878388016110ce565b935060408601359150808211156112e3578283fd5b506112f0868287016110ce565b9150509250925092565b60008060006060848603121561130e578283fd5b83359250602084013567ffffffffffffffff808211156112c2578384fd5b60008060008060808587031215611341578081fd5b84359350602085013567ffffffffffffffff8082111561135f578283fd5b61136b888389016110ce565b94506040870135915080821115611380578283fd5b61138c888389016110ce565b935060608701359150808211156113a1578283fd5b506113ae878288016110ce565b91505092959194509250565b600080600080608085870312156113cf578384fd5b843593506113df60208601611155565b9250604085013567ffffffffffffffff80821115611380578384fd5b600080600080600060a08688031215611412578081fd5b8535945061142260208701611155565b9350604086013567ffffffffffffffff8082111561143e578283fd5b61144a89838a016110ce565b9450606088013591508082111561145f578283fd5b61146b89838a016110ce565b93506080880135915080821115611480578283fd5b5061148d888289016110ce565b9150509295509295909350565b60008151808452815b818110156114bf576020818501810151868301820152016114a3565b818111156114d05782602083870101525b50601f01601f19169290920160200192915050565b6001600160a01b03841681526060602082018190526000906115099083018561149a565b828103604084015261151b818561149a565b9695505050505050565b60018060a01b038516815283602082015260806040820152600061154c608083018561149a565b828103606084015261155e818561149a565b979650505050505050565b60018060a01b038616815284602082015263ffffffff8416604082015260a06060820152600061159c60a083018561149a565b828103608084015261055f818561149a565b6020808252602c908201527f7265766f636174696f6e206c697374207769746820676976656e20696420646f60408201526b195cc81b9bdd08195e1a5cdd60a21b606082015260800190565b60208082526016908201527577616c6c6574206e6f7420696e20726567697374727960501b604082015260600190565b600082611639576116396116ab565b500490565b600063ffffffff80841680611655576116556116ab565b92169190910492915050565b600060001982141561168157634e487b7160e01b81526011600452602481fd5b5060010190565b600063ffffffff8084168061169f5761169f6116ab565b92169190910692915050565b634e487b7160e01b600052601260045260246000fd5b634e487b7160e01b600052604160045260246000fd5b6001600160a01b038116811461040357600080fdfea264697066735822122011e80521e89c69f756f6e41ac642de910ba21a0741f0d8c7a03d4aa3c578bd4064736f6c63430008040033",
  "immutableReferences": {},
  "source": "// SPDX-License-Identifier: MIT\n\npragma solidity 0.8.4;\n\nimport \"@openzeppelin/contracts-upgradeable/proxy/utils/Initializable.sol\";\nimport \"@velocitycareerlabs/permissions-contract/contracts/Permissions.sol\";\nimport \"@velocitycareerlabs/signature-verification-library/libraries/SignatureVerification.sol\";\n\nlibrary SafeCast {\n    function toUint8(uint256 value) internal pure returns (uint8) {\n        require(value < 2 ** 8, \"SafeCast: value doesn't fit in 8 bits\");\n        return uint8(value);\n    }\n}\n\ncontract RevocationRegistry is Initializable {\n    uint256 private constant REVOCATION_LIST_LENGTH = 10240;\n    uint256 private constant REVOCATION_ARRAY_SIZE =\n    REVOCATION_LIST_LENGTH / 256;\n\n    struct WalletRevocationRegistry {\n        bool walletInRegistry;\n        uint256 totalLists;\n        mapping(uint256 => bool) listIdUsage;\n        mapping(uint256 => uint256[]) lists;\n    }\n\n    mapping(address => WalletRevocationRegistry) public registry;\n\n    Permissions internal permissions;\n\n    modifier onlyVnf() {\n        require(msg.sender == permissions.getVNF(), \"Permissions: caller is not VNF\");\n        _;\n    }\n\n    event WalletAdded(address wallet, string traceId, string caoDid);\n    event RevocationListCreate(address wallet, uint256 listId, string traceId, string caoDid);\n    event RevokedStatusUpdate(address owner, uint256 listId, uint32 index, string traceId, string caoDid);\n\n    function initialize() public initializer {}\n\n    function setPermissionsAddress(address _permissions) public {\n        require(address(permissions) == address(0) || msg.sender == permissions.getVNF(), 'Permissions: caller is not VNF');\n        permissions = Permissions(_permissions);\n    }\n\n    function getPermissionsAddress() public view returns (address) {\n        return address(permissions);\n    }\n\n    function isWalletExist(address wallet) public view returns (bool) {\n        return registry[wallet].walletInRegistry;\n    }\n\n    modifier existingWallet(address operator) {\n        address primary = permissions.checkOperator(operator);\n        require(isWalletExist(primary), \"wallet not in registry\");\n        _;\n    }\n\n    function isListExist(address wallet, uint256 listId)\n    public\n    view\n    returns (bool)\n    {\n        return registry[wallet].listIdUsage[listId];\n    }\n\n    function getPositionAndOffset(uint32 position, uint32 divider)\n    private\n    pure\n    returns (uint32, uint32)\n    {\n        if (position < divider) {\n            return (0, position);\n        }\n\n        uint32 pos = position / divider;\n        uint32 offset = position % divider;\n\n        return (pos, offset);\n    }\n\n    function addWallet(string memory traceId, string memory caoDid) public {\n        addWalletInternal(traceId, caoDid, msg.sender);\n    }\n\n    function addWalletSigned(string memory traceId, string memory caoDid, bytes memory signature) public {\n        address operator = SignatureVerification.recoverSigner(abi.encode(msg.sender), signature);\n        addWalletInternal(traceId, caoDid, operator);\n    }\n\n    function addWalletInternal(string memory traceId, string memory caoDid, address operator) private {\n        address primary = permissions.checkOperator(operator);\n        require(!isWalletExist(primary), \"wallet already in registry\");\n\n        WalletRevocationRegistry storage walletRegistry = registry[primary];\n\n        walletRegistry.walletInRegistry = true;\n\n        emit WalletAdded(primary, traceId, caoDid);\n    }\n\n    function addRevocationList(uint256 listId, string memory traceId, string memory caoDid) public {\n        addRevocationListInternal(listId, traceId, caoDid, msg.sender);\n    }\n\n    function addRevocationListSigned(uint256 listId, string memory traceId, string memory caoDid, bytes memory signature) public {\n        address operator = SignatureVerification.recoverSigner(abi.encode(msg.sender), signature);\n        addRevocationListInternal(listId, traceId, caoDid, operator);\n    }\n\n    function addRevocationListInternal(uint256 listId, string memory traceId, string memory caoDid, address operator) private existingWallet(operator) {\n        address primary = permissions.checkOperator(operator);\n        require(!isListExist(primary, listId), \"revocation list with given id already exist\");\n\n        WalletRevocationRegistry storage walletRegistry = registry[primary];\n\n        uint256[] memory revocationList = new uint256[](REVOCATION_ARRAY_SIZE);\n\n        walletRegistry.listIdUsage[listId] = true;\n        walletRegistry.lists[listId] = revocationList;\n        walletRegistry.totalLists++;\n\n        emit RevocationListCreate(primary, listId, traceId, caoDid);\n    }\n\n    function setRevokedStatus(uint256 listId, uint32 index, string memory traceId, string memory caoDid)\n    public\n    {\n        setRevokedStatusInternal(listId, index, traceId, caoDid, msg.sender);\n    }\n\n    function setRevokedStatusSigned(uint256 listId, uint32 index, string memory traceId, string memory caoDid, bytes memory signature)\n    public\n    {\n        address operator = SignatureVerification.recoverSigner(abi.encode(msg.sender), signature);\n        setRevokedStatusInternal(listId, index, traceId, caoDid, operator);\n    }\n\n    function setRevokedStatusInternal(uint256 listId, uint32 index, string memory traceId, string memory caoDid, address operator)\n    private\n    existingWallet(operator)\n    {\n        address primary = permissions.checkOperator(operator);\n        require(index < REVOCATION_LIST_LENGTH, \"list index out of bound\");\n        require(isListExist(primary, listId), \"revocation list with given id does not exist\");\n\n        (uint32 pos, uint32 offset) = getPositionAndOffset(index, 256);\n\n        uint256 currentValue = registry[primary].lists[listId][pos];\n        uint256 bitValue = 1 << offset;\n\n        registry[primary].lists[listId][pos] = currentValue | bitValue;\n\n        emit RevokedStatusUpdate(primary, listId, index, traceId, caoDid);\n    }\n\n    function getRevokedStatus(\n        address wallet,\n        uint256 listId,\n        uint32 index\n    ) public view returns (uint8 revokedStatus) {\n\n        require(index < REVOCATION_LIST_LENGTH, \"list index out of bound\");\n        require(isWalletExist(wallet), \"wallet not in registry\");\n        require(isListExist(wallet, listId), \"revocation list with given id does not exist\");\n\n        (uint32 pos, uint32 offset) = getPositionAndOffset(index, 256);\n\n        uint256 mask = 1 << offset;\n        uint256 maskedValue = registry[wallet].lists[listId][pos] & mask;\n        revokedStatus = SafeCast.toUint8(maskedValue >> offset);\n\n        return revokedStatus;\n    }\n\n    function getRevocationListCount()\n    external\n    view\n    existingWallet(msg.sender)\n    returns (uint256)\n    {\n        address primary = permissions.checkOperator(msg.sender);\n        return registry[primary].totalLists;\n    }\n}\n",
  "sourcePath": "/Users/nassan/s/vclworld/monorepo/contracts/revocation-list/contracts/RevocationRegistry.sol",
  "compiler": {
    "name": "solc",
    "version": "0.8.4+commit.c7e474f2.Emscripten.clang"
  },
  "schemaVersion": "3.4.16",
  "updatedAt": "2024-07-15T16:12:27.678Z",
  "devdoc": {
    "kind": "dev",
    "methods": {},
    "version": 1
  },
  "userdoc": {
    "kind": "user",
    "methods": {},
    "version": 1
  }
}