{
  "contractName": "VerificationCoupon",
  "abi": [
    {
      "anonymous": false,
      "inputs": [
        {
          "indexed": true,
          "internalType": "address",
          "name": "account",
          "type": "address"
        },
        {
          "indexed": true,
          "internalType": "address",
          "name": "operator",
          "type": "address"
        },
        {
          "indexed": false,
          "internalType": "bool",
          "name": "approved",
          "type": "bool"
        }
      ],
      "name": "ApprovalForAll",
      "type": "event"
    },
    {
      "anonymous": false,
      "inputs": [
        {
          "indexed": false,
          "internalType": "address",
          "name": "owner",
          "type": "address"
        },
        {
          "indexed": false,
          "internalType": "uint256",
          "name": "bundleId",
          "type": "uint256"
        },
        {
          "indexed": false,
          "internalType": "string",
          "name": "traceId",
          "type": "string"
        },
        {
          "indexed": false,
          "internalType": "string",
          "name": "caoDid",
          "type": "string"
        },
        {
          "indexed": false,
          "internalType": "string",
          "name": "burnerDid",
          "type": "string"
        },
        {
          "indexed": false,
          "internalType": "uint256",
          "name": "balance",
          "type": "uint256"
        },
        {
          "indexed": false,
          "internalType": "uint256",
          "name": "expirationTime",
          "type": "uint256"
        },
        {
          "indexed": false,
          "internalType": "uint256",
          "name": "burnTime",
          "type": "uint256"
        }
      ],
      "name": "BurnCoupon",
      "type": "event"
    },
    {
      "anonymous": false,
      "inputs": [
        {
          "indexed": false,
          "internalType": "uint8",
          "name": "version",
          "type": "uint8"
        }
      ],
      "name": "Initialized",
      "type": "event"
    },
    {
      "anonymous": false,
      "inputs": [
        {
          "indexed": false,
          "internalType": "address",
          "name": "owner",
          "type": "address"
        },
        {
          "indexed": false,
          "internalType": "uint256",
          "name": "bundleId",
          "type": "uint256"
        },
        {
          "indexed": false,
          "internalType": "uint256",
          "name": "expirationTime",
          "type": "uint256"
        },
        {
          "indexed": false,
          "internalType": "uint256",
          "name": "quantity",
          "type": "uint256"
        },
        {
          "indexed": false,
          "internalType": "string",
          "name": "traceId",
          "type": "string"
        },
        {
          "indexed": false,
          "internalType": "string",
          "name": "ownerDid",
          "type": "string"
        }
      ],
      "name": "MintCouponBundle",
      "type": "event"
    },
    {
      "anonymous": false,
      "inputs": [
        {
          "indexed": true,
          "internalType": "bytes32",
          "name": "role",
          "type": "bytes32"
        },
        {
          "indexed": true,
          "internalType": "bytes32",
          "name": "previousAdminRole",
          "type": "bytes32"
        },
        {
          "indexed": true,
          "internalType": "bytes32",
          "name": "newAdminRole",
          "type": "bytes32"
        }
      ],
      "name": "RoleAdminChanged",
      "type": "event"
    },
    {
      "anonymous": false,
      "inputs": [
        {
          "indexed": true,
          "internalType": "bytes32",
          "name": "role",
          "type": "bytes32"
        },
        {
          "indexed": true,
          "internalType": "address",
          "name": "account",
          "type": "address"
        },
        {
          "indexed": true,
          "internalType": "address",
          "name": "sender",
          "type": "address"
        }
      ],
      "name": "RoleGranted",
      "type": "event"
    },
    {
      "anonymous": false,
      "inputs": [
        {
          "indexed": true,
          "internalType": "bytes32",
          "name": "role",
          "type": "bytes32"
        },
        {
          "indexed": true,
          "internalType": "address",
          "name": "account",
          "type": "address"
        },
        {
          "indexed": true,
          "internalType": "address",
          "name": "sender",
          "type": "address"
        }
      ],
      "name": "RoleRevoked",
      "type": "event"
    },
    {
      "anonymous": false,
      "inputs": [
        {
          "indexed": true,
          "internalType": "address",
          "name": "operator",
          "type": "address"
        },
        {
          "indexed": true,
          "internalType": "address",
          "name": "from",
          "type": "address"
        },
        {
          "indexed": true,
          "internalType": "address",
          "name": "to",
          "type": "address"
        },
        {
          "indexed": false,
          "internalType": "uint256[]",
          "name": "ids",
          "type": "uint256[]"
        },
        {
          "indexed": false,
          "internalType": "uint256[]",
          "name": "values",
          "type": "uint256[]"
        }
      ],
      "name": "TransferBatch",
      "type": "event"
    },
    {
      "anonymous": false,
      "inputs": [
        {
          "indexed": true,
          "internalType": "address",
          "name": "operator",
          "type": "address"
        },
        {
          "indexed": true,
          "internalType": "address",
          "name": "from",
          "type": "address"
        },
        {
          "indexed": true,
          "internalType": "address",
          "name": "to",
          "type": "address"
        },
        {
          "indexed": false,
          "internalType": "uint256",
          "name": "id",
          "type": "uint256"
        },
        {
          "indexed": false,
          "internalType": "uint256",
          "name": "value",
          "type": "uint256"
        }
      ],
      "name": "TransferSingle",
      "type": "event"
    },
    {
      "anonymous": false,
      "inputs": [
        {
          "indexed": false,
          "internalType": "string",
          "name": "value",
          "type": "string"
        },
        {
          "indexed": true,
          "internalType": "uint256",
          "name": "id",
          "type": "uint256"
        }
      ],
      "name": "URI",
      "type": "event"
    },
    {
      "inputs": [],
      "name": "DEFAULT_ADMIN_ROLE",
      "outputs": [
        {
          "internalType": "bytes32",
          "name": "",
          "type": "bytes32"
        }
      ],
      "stateMutability": "view",
      "type": "function"
    },
    {
      "inputs": [],
      "name": "MINTER_ROLE",
      "outputs": [
        {
          "internalType": "bytes32",
          "name": "",
          "type": "bytes32"
        }
      ],
      "stateMutability": "view",
      "type": "function"
    },
    {
      "inputs": [
        {
          "internalType": "address",
          "name": "account",
          "type": "address"
        },
        {
          "internalType": "uint256",
          "name": "id",
          "type": "uint256"
        }
      ],
      "name": "balanceOf",
      "outputs": [
        {
          "internalType": "uint256",
          "name": "",
          "type": "uint256"
        }
      ],
      "stateMutability": "view",
      "type": "function"
    },
    {
      "inputs": [
        {
          "internalType": "address[]",
          "name": "accounts",
          "type": "address[]"
        },
        {
          "internalType": "uint256[]",
          "name": "ids",
          "type": "uint256[]"
        }
      ],
      "name": "balanceOfBatch",
      "outputs": [
        {
          "internalType": "uint256[]",
          "name": "",
          "type": "uint256[]"
        }
      ],
      "stateMutability": "view",
      "type": "function"
    },
    {
      "inputs": [
        {
          "internalType": "bytes32",
          "name": "role",
          "type": "bytes32"
        }
      ],
      "name": "getRoleAdmin",
      "outputs": [
        {
          "internalType": "bytes32",
          "name": "",
          "type": "bytes32"
        }
      ],
      "stateMutability": "view",
      "type": "function"
    },
    {
      "inputs": [
        {
          "internalType": "bytes32",
          "name": "role",
          "type": "bytes32"
        },
        {
          "internalType": "uint256",
          "name": "index",
          "type": "uint256"
        }
      ],
      "name": "getRoleMember",
      "outputs": [
        {
          "internalType": "address",
          "name": "",
          "type": "address"
        }
      ],
      "stateMutability": "view",
      "type": "function"
    },
    {
      "inputs": [
        {
          "internalType": "bytes32",
          "name": "role",
          "type": "bytes32"
        }
      ],
      "name": "getRoleMemberCount",
      "outputs": [
        {
          "internalType": "uint256",
          "name": "",
          "type": "uint256"
        }
      ],
      "stateMutability": "view",
      "type": "function"
    },
    {
      "inputs": [
        {
          "internalType": "bytes32",
          "name": "role",
          "type": "bytes32"
        },
        {
          "internalType": "address",
          "name": "account",
          "type": "address"
        }
      ],
      "name": "grantRole",
      "outputs": [],
      "stateMutability": "nonpayable",
      "type": "function"
    },
    {
      "inputs": [
        {
          "internalType": "bytes32",
          "name": "role",
          "type": "bytes32"
        },
        {
          "internalType": "address",
          "name": "account",
          "type": "address"
        }
      ],
      "name": "hasRole",
      "outputs": [
        {
          "internalType": "bool",
          "name": "",
          "type": "bool"
        }
      ],
      "stateMutability": "view",
      "type": "function"
    },
    {
      "inputs": [
        {
          "internalType": "address",
          "name": "account",
          "type": "address"
        },
        {
          "internalType": "address",
          "name": "operator",
          "type": "address"
        }
      ],
      "name": "isApprovedForAll",
      "outputs": [
        {
          "internalType": "bool",
          "name": "",
          "type": "bool"
        }
      ],
      "stateMutability": "view",
      "type": "function"
    },
    {
      "inputs": [
        {
          "internalType": "bytes32",
          "name": "role",
          "type": "bytes32"
        },
        {
          "internalType": "address",
          "name": "account",
          "type": "address"
        }
      ],
      "name": "renounceRole",
      "outputs": [],
      "stateMutability": "nonpayable",
      "type": "function"
    },
    {
      "inputs": [
        {
          "internalType": "bytes32",
          "name": "role",
          "type": "bytes32"
        },
        {
          "internalType": "address",
          "name": "account",
          "type": "address"
        }
      ],
      "name": "revokeRole",
      "outputs": [],
      "stateMutability": "nonpayable",
      "type": "function"
    },
    {
      "inputs": [
        {
          "internalType": "address",
          "name": "from",
          "type": "address"
        },
        {
          "internalType": "address",
          "name": "to",
          "type": "address"
        },
        {
          "internalType": "uint256[]",
          "name": "ids",
          "type": "uint256[]"
        },
        {
          "internalType": "uint256[]",
          "name": "amounts",
          "type": "uint256[]"
        },
        {
          "internalType": "bytes",
          "name": "data",
          "type": "bytes"
        }
      ],
      "name": "safeBatchTransferFrom",
      "outputs": [],
      "stateMutability": "nonpayable",
      "type": "function"
    },
    {
      "inputs": [
        {
          "internalType": "address",
          "name": "from",
          "type": "address"
        },
        {
          "internalType": "address",
          "name": "to",
          "type": "address"
        },
        {
          "internalType": "uint256",
          "name": "id",
          "type": "uint256"
        },
        {
          "internalType": "uint256",
          "name": "amount",
          "type": "uint256"
        },
        {
          "internalType": "bytes",
          "name": "data",
          "type": "bytes"
        }
      ],
      "name": "safeTransferFrom",
      "outputs": [],
      "stateMutability": "nonpayable",
      "type": "function"
    },
    {
      "inputs": [
        {
          "internalType": "address",
          "name": "operator",
          "type": "address"
        },
        {
          "internalType": "bool",
          "name": "approved",
          "type": "bool"
        }
      ],
      "name": "setApprovalForAll",
      "outputs": [],
      "stateMutability": "nonpayable",
      "type": "function"
    },
    {
      "inputs": [
        {
          "internalType": "uint256",
          "name": "",
          "type": "uint256"
        }
      ],
      "name": "uri",
      "outputs": [
        {
          "internalType": "string",
          "name": "",
          "type": "string"
        }
      ],
      "stateMutability": "view",
      "type": "function"
    },
    {
      "inputs": [
        {
          "internalType": "string",
          "name": "tokenName",
          "type": "string"
        },
        {
          "internalType": "string",
          "name": "baseTokenURI",
          "type": "string"
        }
      ],
      "name": "initialize",
      "outputs": [],
      "stateMutability": "nonpayable",
      "type": "function"
    },
    {
      "inputs": [
        {
          "internalType": "address",
          "name": "_permissions",
          "type": "address"
        }
      ],
      "name": "setPermissionsAddress",
      "outputs": [],
      "stateMutability": "nonpayable",
      "type": "function"
    },
    {
      "inputs": [],
      "name": "getVNF",
      "outputs": [
        {
          "internalType": "address",
          "name": "",
          "type": "address"
        }
      ],
      "stateMutability": "view",
      "type": "function"
    },
    {
      "inputs": [
        {
          "internalType": "uint256",
          "name": "tokenId",
          "type": "uint256"
        }
      ],
      "name": "isExpired",
      "outputs": [
        {
          "internalType": "bool",
          "name": "",
          "type": "bool"
        }
      ],
      "stateMutability": "view",
      "type": "function"
    },
    {
      "inputs": [
        {
          "internalType": "address",
          "name": "operator",
          "type": "address"
        }
      ],
      "name": "getTokenId",
      "outputs": [
        {
          "internalType": "uint256",
          "name": "",
          "type": "uint256"
        }
      ],
      "stateMutability": "view",
      "type": "function"
    },
    {
      "inputs": [
        {
          "internalType": "address",
          "name": "to",
          "type": "address"
        },
        {
          "internalType": "uint256",
          "name": "_expirationTime",
          "type": "uint256"
        },
        {
          "internalType": "uint256",
          "name": "quantity",
          "type": "uint256"
        },
        {
          "internalType": "string",
          "name": "traceId",
          "type": "string"
        },
        {
          "internalType": "string",
          "name": "ownerDid",
          "type": "string"
        }
      ],
      "name": "mint",
      "outputs": [],
      "stateMutability": "nonpayable",
      "type": "function"
    },
    {
      "inputs": [
        {
          "internalType": "uint256",
          "name": "tokenId",
          "type": "uint256"
        },
        {
          "internalType": "string",
          "name": "traceId",
          "type": "string"
        },
        {
          "internalType": "string",
          "name": "caoDid",
          "type": "string"
        },
        {
          "internalType": "string",
          "name": "burnerDid",
          "type": "string"
        },
        {
          "internalType": "address",
          "name": "operator",
          "type": "address"
        }
      ],
      "name": "burn",
      "outputs": [],
      "stateMutability": "nonpayable",
      "type": "function"
    },
    {
      "inputs": [
        {
          "internalType": "bytes4",
          "name": "interfaceId",
          "type": "bytes4"
        }
      ],
      "name": "supportsInterface",
      "outputs": [
        {
          "internalType": "bool",
          "name": "",
          "type": "bool"
        }
      ],
      "stateMutability": "view",
      "type": "function"
    },
    {
      "inputs": [],
      "name": "_getTokenName",
      "outputs": [
        {
          "internalType": "string",
          "name": "",
          "type": "string"
        }
      ],
      "stateMutability": "view",
      "type": "function"
    }
  ],
  "bytecode": "0x608060405234801561001057600080fd5b50612ed5806100206000396000f3fe608060405234801561001057600080fd5b50600436106101725760003560e01c80636d013618116100de578063d539139311610097578063e985e9c511610071578063e985e9c514610375578063f1537686146103b1578063f242432a146103c4578063fb5e3c25146103d757600080fd5b8063d539139314610318578063d547741f1461033f578063d9548e531461035257600080fd5b80636d013618146102b15780639010d07c146102c457806391d14854146102d7578063a217fddf146102ea578063a22cb465146102f2578063ca15c8731461030557600080fd5b80632f2ff15d116101305780632f2ff15d1461022057806334ca4b641461023357806336568abe14610258578063428d69101461026b5780634cd88b761461027e5780634e1273f41461029157600080fd5b8062fdd58e1461017757806301ffc9a71461019d5780630e89341c146101c0578063248a9ca3146101e057806324ff40b7146102035780632eb2c2d61461020b575b600080fd5b61018a61018536600461255c565b6103ea565b6040519081526020015b60405180910390f35b6101b06101ab366004612725565b610485565b6040519015158152602001610194565b6101d36101ce3660046126c8565b610490565b6040516101949190612add565b61018a6101ee3660046126c8565b60009081526065602052604090206001015490565b6101d3610524565b61021e61021936600461241e565b6105b6565b005b61021e61022e3660046126e0565b610602565b60fb546001600160a01b03165b6040516001600160a01b039091168152602001610194565b61021e6102663660046126e0565b61062c565b61021e6102793660046127b4565b6106aa565b61021e61028c36600461275d565b61092a565b6102a461029f3660046125df565b610a98565b6040516101949190612a9c565b61021e6102bf366004612587565b610bfa565b6102406102d2366004612704565b610d88565b6101b06102e53660046126e0565b610da7565b61018a600081565b61021e61030036600461252f565b610dd2565b61018a6103133660046126c8565b610ddd565b61018a7f9f2df0fed2c77648de5860a4cc508cd0818c85b8b8a1ab4ceeef8d981c8956a681565b61021e61034d3660046126e0565b610df4565b6101b06103603660046126c8565b600090815260fc602052604090205442101590565b6101b06103833660046123e6565b6001600160a01b03918216600090815260ca6020908152604080832093909416825291909152205460ff1690565b61018a6103bf3660046123ae565b610e19565b61021e6103d23660046124c8565b610fe0565b61021e6103e53660046123ae565b611025565b60006001600160a01b03831661045a5760405162461bcd60e51b815260206004820152602a60248201527f455243313135353a2061646472657373207a65726f206973206e6f742061207660448201526930b634b21037bbb732b960b11b60648201526084015b60405180910390fd5b50600081815260c9602090815260408083206001600160a01b03861684529091529020545b92915050565b600061047f8261109a565b606060cb805461049f90612d15565b80601f01602080910402602001604051908101604052809291908181526020018280546104cb90612d15565b80156105185780601f106104ed57610100808354040283529160200191610518565b820191906000526020600020905b8154815290600101906020018083116104fb57829003601f168201915b50505050509050919050565b606060ff805461053390612d15565b80601f016020809104026020016040519081016040528092919081815260200182805461055f90612d15565b80156105ac5780601f10610581576101008083540402835291602001916105ac565b820191906000526020600020905b81548152906001019060200180831161058f57829003601f168201915b5050505050905090565b6001600160a01b0385163314806105d257506105d28533610383565b6105ee5760405162461bcd60e51b815260040161045190612b38565b6105fb85858585856110da565b5050505050565b60008281526065602052604090206001015461061d816112d6565b61062783836112e3565b505050565b6001600160a01b038116331461069c5760405162461bcd60e51b815260206004820152602f60248201527f416363657373436f6e74726f6c3a2063616e206f6e6c792072656e6f756e636560448201526e103937b632b9903337b91039b2b63360891b6064820152608401610451565b6106a68282611305565b5050565b61010054604080516328e2833d60e21b81523360048201526024810191909152600b60448201526a31b7bab837b71d313ab93760a91b60648201526001600160a01b039091169063a38a0cf49060840160206040518083038186803b15801561071257600080fd5b505afa158015610726573d6000803e3d6000fd5b505050506040513d601f19601f8201168201806040525081019061074a91906126ac565b6107b05760405162461bcd60e51b815260206004820152603160248201527f4275726e3a2063616c6c657220646f6573206e6f74206861766520636f75706f604482015270371d313ab937103832b936b4b9b9b4b7b760791b6064820152608401610451565b6101005460405163de1ac2fd60e01b81526001600160a01b038381166004830152600092169063de1ac2fd9060240160206040518083038186803b1580156107f757600080fd5b505afa15801561080b573d6000803e3d6000fd5b505050506040513d601f19601f8201168201806040525081019061082f91906123ca565b9050600061083d82886103ea565b1161088a5760405162461bcd60e51b815260206004820152601b60248201527f4275726e3a2062756e646c6520686173206e6f2062616c616e636500000000006044820152606401610451565b61089381611327565b61089f8187600161140b565b60006108ab82886103ea565b600088815260fc6020526040902054909150816108db57600088815260fc60205260408120556108db888461158f565b7f254a706f2340305d07786296b068bdf356a5912df4dc883cefb4d8728751b00c83898989898787426040516109189897969594939291906129d5565b60405180910390a15050505050505050565b600054610100900460ff161580801561094a5750600054600160ff909116105b806109645750303b158015610964575060005460ff166001145b6109c75760405162461bcd60e51b815260206004820152602e60248201527f496e697469616c697a61626c653a20636f6e747261637420697320616c72656160448201526d191e481a5b9a5d1a585b1a5e995960921b6064820152608401610451565b6000805460ff1916600117905580156109ea576000805461ff0019166101001790555b6109f382611697565b60fb80546001600160a01b031916331790558251610a189060ff906020860190612232565b50610a246000336116c7565b610a4e7f9f2df0fed2c77648de5860a4cc508cd0818c85b8b8a1ab4ceeef8d981c8956a6336116c7565b8015610627576000805461ff0019169055604051600181527f7f26b83ff96e1f2b6a682f133852f6798a09c465da95921460cefb38474024989060200160405180910390a1505050565b60608151835114610afd5760405162461bcd60e51b815260206004820152602960248201527f455243313135353a206163636f756e747320616e6420696473206c656e677468604482015268040dad2e6dac2e8c6d60bb1b6064820152608401610451565b6000835167ffffffffffffffff811115610b2757634e487b7160e01b600052604160045260246000fd5b604051908082528060200260200182016040528015610b50578160200160208202803683370190505b50905060005b8451811015610bf257610bb7858281518110610b8257634e487b7160e01b600052603260045260246000fd5b6020026020010151858381518110610baa57634e487b7160e01b600052603260045260246000fd5b60200260200101516103ea565b828281518110610bd757634e487b7160e01b600052603260045260246000fd5b6020908102919091010152610beb81612d7d565b9050610b56565b509392505050565b610c247f9f2df0fed2c77648de5860a4cc508cd0818c85b8b8a1ab4ceeef8d981c8956a633610da7565b610c8c5760405162461bcd60e51b815260206004820152603360248201527f566572696669636174696f6e436f75706f6e3a206d75737420686176652061206044820152721b5a5b9d195c881c9bdb19481d1bc81b5a5b9d606a1b6064820152608401610451565b60008311610ccf5760405162461bcd60e51b815260206004820152601060248201526f496e76616c6964207175616e7469747960801b6044820152606401610451565b6000610cda60fe5490565b9050610cf7868286604051806020016040528060008152506116d1565b6001600160a01b038616600090815260fd6020908152604080832080546001810182559084528284200184905583835260fc9091529020859055610d3f60fe80546001019055565b7f714796d10b956860a97e79606bccf579dbf5cb2fb55ae4e715d5c73166142680868287878787604051610d7896959493929190612a4a565b60405180910390a1505050505050565b6000828152609760205260408120610da090836117de565b9392505050565b60009182526065602090815260408084206001600160a01b0393909316845291905290205460ff1690565b6106a63383836117ea565b600081815260976020526040812061047f906118cb565b600082815260656020526040902060010154610e0f816112d6565b6106278383611305565b6101005460405163de1ac2fd60e01b81526001600160a01b038381166004830152600092839291169063de1ac2fd9060240160206040518083038186803b158015610e6357600080fd5b505afa158015610e77573d6000803e3d6000fd5b505050506040513d601f19601f82011682018060405250810190610e9b91906123ca565b6001600160a01b038116600090815260fd602052604090205490915080610efa5760405162461bcd60e51b81526020600482015260136024820152724e6f20617661696c61626c6520746f6b656e7360681b6044820152606401610451565b6000196000805b83811015610f8e576001600160a01b038516600090815260fd60205260409020805482908110610f4157634e487b7160e01b600052603260045260246000fd5b90600052602060002001549150610f6782600090815260fc602052604090205442101590565b158015610f7357508282105b15610f7c578192505b80610f8681612d7d565b915050610f01565b50600019821415610fd75760405162461bcd60e51b81526020600482015260136024820152724e6f20617661696c61626c6520746f6b656e7360681b6044820152606401610451565b50949350505050565b6001600160a01b038516331480610ffc5750610ffc8533610383565b6110185760405162461bcd60e51b815260040161045190612b38565b6105fb85858585856118d5565b60fb546001600160a01b031633146110775760405162461bcd60e51b81526020600482015260156024820152742a34329031b0b63632b91034b9903737ba102b272360591b6044820152606401610451565b61010080546001600160a01b0319166001600160a01b0392909216919091179055565b60006001600160e01b03198216636cdb3d1360e11b14806110cb57506001600160e01b031982166303a24d0760e21b145b8061047f575061047f82611a03565b815183511461113c5760405162461bcd60e51b815260206004820152602860248201527f455243313135353a2069647320616e6420616d6f756e7473206c656e677468206044820152670dad2e6dac2e8c6d60c31b6064820152608401610451565b6001600160a01b0384166111625760405162461bcd60e51b815260040161045190612b86565b3360005b845181101561126857600085828151811061119157634e487b7160e01b600052603260045260246000fd5b6020026020010151905060008583815181106111bd57634e487b7160e01b600052603260045260246000fd5b602090810291909101810151600084815260c9835260408082206001600160a01b038e16835290935291909120549091508181101561120e5760405162461bcd60e51b815260040161045190612bcb565b600083815260c9602090815260408083206001600160a01b038e8116855292528083208585039055908b1682528120805484929061124d908490612c84565b925050819055505050508061126190612d7d565b9050611166565b50846001600160a01b0316866001600160a01b0316826001600160a01b03167f4a39dc06d4c0dbc64b70af90fd698a233a518aa5d07e595d983b8c0526c8f7fb87876040516112b8929190612aaf565b60405180910390a46112ce818787878787611a28565b505050505050565b6112e08133611b93565b50565b6112ed8282611bec565b60008281526097602052604090206106279082611c72565b61130f8282611c87565b60008281526097602052604090206106279082611cee565b6001600160a01b038116600090815260fd602052604081205490805b82811015611405576001600160a01b038416600090815260fd6020526040902080548290811061138357634e487b7160e01b600052603260045260246000fd5b906000526020600020015491506113a982600090815260fc602052604090205442101590565b156113f35760006113ba85846103ea565b90506113c785848361140b565b600083815260fc60205260408120556113e0838661158f565b836113ea81612cfe565b94505050611343565b806113fd81612d7d565b915050611343565b50505050565b6001600160a01b03831661146d5760405162461bcd60e51b815260206004820152602360248201527f455243313135353a206275726e2066726f6d20746865207a65726f206164647260448201526265737360e81b6064820152608401610451565b33600061147984611d03565b9050600061148684611d03565b604080516020808201835260009182905288825260c981528282206001600160a01b038b16835290522054909150848110156115105760405162461bcd60e51b8152602060048201526024808201527f455243313135353a206275726e20616d6f756e7420657863656564732062616c604482015263616e636560e01b6064820152608401610451565b600086815260c9602090815260408083206001600160a01b038b81168086529184528285208a8703905582518b81529384018a90529092908816917fc3d58168c5ae7397731d063d5bbf3d657854427343f4c083240f7aacaa2d0f62910160405180910390a46040805160208101909152600090525b50505050505050565b6001600160a01b038116600090815260fd60205260408120905b8154811015611405578181815481106115d257634e487b7160e01b600052603260045260246000fd5b906000526020600020015484141561168557815482906115f490600190612cbb565b8154811061161257634e487b7160e01b600052603260045260246000fd5b906000526020600020015482828154811061163d57634e487b7160e01b600052603260045260246000fd5b90600052602060002001819055508180548061166957634e487b7160e01b600052603160045260246000fd5b6001900381819060005260206000200160009055905550505050565b8061168f81612d7d565b9150506115a9565b600054610100900460ff166116be5760405162461bcd60e51b815260040161045190612c15565b6112e081611d5c565b6106a682826112e3565b6001600160a01b0384166117315760405162461bcd60e51b815260206004820152602160248201527f455243313135353a206d696e7420746f20746865207a65726f206164647265736044820152607360f81b6064820152608401610451565b33600061173d85611d03565b9050600061174a85611d03565b9050600086815260c9602090815260408083206001600160a01b038b1684529091528120805487929061177e908490612c84565b909155505060408051878152602081018790526001600160a01b03808a1692600092918716917fc3d58168c5ae7397731d063d5bbf3d657854427343f4c083240f7aacaa2d0f62910160405180910390a461158683600089898989611d8c565b6000610da08383611e56565b816001600160a01b0316836001600160a01b0316141561185e5760405162461bcd60e51b815260206004820152602960248201527f455243313135353a2073657474696e6720617070726f76616c20737461747573604482015268103337b91039b2b63360b91b6064820152608401610451565b6001600160a01b03838116600081815260ca6020908152604080832094871680845294825291829020805460ff191686151590811790915591519182527f17307eab39ab6107e8899845ad3d59bd9653f200f220920489ca2b5937696c31910160405180910390a3505050565b600061047f825490565b6001600160a01b0384166118fb5760405162461bcd60e51b815260040161045190612b86565b33600061190785611d03565b9050600061191485611d03565b9050600086815260c9602090815260408083206001600160a01b038c168452909152902054858110156119595760405162461bcd60e51b815260040161045190612bcb565b600087815260c9602090815260408083206001600160a01b038d8116855292528083208985039055908a16825281208054889290611998908490612c84565b909155505060408051888152602081018890526001600160a01b03808b16928c821692918816917fc3d58168c5ae7397731d063d5bbf3d657854427343f4c083240f7aacaa2d0f62910160405180910390a46119f8848a8a8a8a8a611d8c565b505050505050505050565b60006001600160e01b03198216635a05180f60e01b148061047f575061047f82611e8e565b6001600160a01b0384163b156112ce5760405163bc197c8160e01b81526001600160a01b0385169063bc197c8190611a6c9089908990889088908890600401612932565b602060405180830381600087803b158015611a8657600080fd5b505af1925050508015611ab6575060408051601f3d908101601f19168201909252611ab391810190612741565b60015b611b6357611ac2612dc4565b806308c379a01415611afc5750611ad7612ddc565b80611ae25750611afe565b8060405162461bcd60e51b81526004016104519190612add565b505b60405162461bcd60e51b815260206004820152603460248201527f455243313135353a207472616e7366657220746f206e6f6e2d455243313135356044820152732932b1b2b4bb32b91034b6b83632b6b2b73a32b960611b6064820152608401610451565b6001600160e01b0319811663bc197c8160e01b146115865760405162461bcd60e51b815260040161045190612af0565b611b9d8282610da7565b6106a657611baa81611ec3565b611bb5836020611ed5565b604051602001611bc69291906128bd565b60408051601f198184030181529082905262461bcd60e51b825261045191600401612add565b611bf68282610da7565b6106a65760008281526065602090815260408083206001600160a01b03851684529091529020805460ff19166001179055611c2e3390565b6001600160a01b0316816001600160a01b0316837f2f8788117e7eff1d82e926ec794901d17c78024a50270940304540a733656f0d60405160405180910390a45050565b6000610da0836001600160a01b0384166120b7565b611c918282610da7565b156106a65760008281526065602090815260408083206001600160a01b0385168085529252808320805460ff1916905551339285917ff6391f5c32d9c69d2a47ea670b442974b53935d1edc7fd64eb21e047a839171b9190a45050565b6000610da0836001600160a01b038416612106565b60408051600180825281830190925260609160009190602080830190803683370190505090508281600081518110611d4b57634e487b7160e01b600052603260045260246000fd5b602090810291909101015292915050565b600054610100900460ff16611d835760405162461bcd60e51b815260040161045190612c15565b6112e081612223565b6001600160a01b0384163b156112ce5760405163f23a6e6160e01b81526001600160a01b0385169063f23a6e6190611dd09089908990889088908890600401612990565b602060405180830381600087803b158015611dea57600080fd5b505af1925050508015611e1a575060408051601f3d908101601f19168201909252611e1791810190612741565b60015b611e2657611ac2612dc4565b6001600160e01b0319811663f23a6e6160e01b146115865760405162461bcd60e51b815260040161045190612af0565b6000826000018281548110611e7b57634e487b7160e01b600052603260045260246000fd5b9060005260206000200154905092915050565b60006001600160e01b03198216637965db0b60e01b148061047f57506301ffc9a760e01b6001600160e01b031983161461047f565b606061047f6001600160a01b03831660145b60606000611ee4836002612c9c565b611eef906002612c84565b67ffffffffffffffff811115611f1557634e487b7160e01b600052604160045260246000fd5b6040519080825280601f01601f191660200182016040528015611f3f576020820181803683370190505b509050600360fc1b81600081518110611f6857634e487b7160e01b600052603260045260246000fd5b60200101906001600160f81b031916908160001a905350600f60fb1b81600181518110611fa557634e487b7160e01b600052603260045260246000fd5b60200101906001600160f81b031916908160001a9053506000611fc9846002612c9c565b611fd4906001612c84565b90505b6001811115612068576f181899199a1a9b1b9c1cb0b131b232b360811b85600f166010811061201657634e487b7160e01b600052603260045260246000fd5b1a60f81b82828151811061203a57634e487b7160e01b600052603260045260246000fd5b60200101906001600160f81b031916908160001a90535060049490941c9361206181612cfe565b9050611fd7565b508315610da05760405162461bcd60e51b815260206004820181905260248201527f537472696e67733a20686578206c656e67746820696e73756666696369656e746044820152606401610451565b60008181526001830160205260408120546120fe5750815460018181018455600084815260208082209093018490558454848252828601909352604090209190915561047f565b50600061047f565b6000818152600183016020526040812054801561221957600061212a600183612cbb565b855490915060009061213e90600190612cbb565b90508181146121bf57600086600001828154811061216c57634e487b7160e01b600052603260045260246000fd5b906000526020600020015490508087600001848154811061219d57634e487b7160e01b600052603260045260246000fd5b6000918252602080832090910192909255918252600188019052604090208390555b85548690806121de57634e487b7160e01b600052603160045260246000fd5b60019003818190600052602060002001600090559055856001016000868152602001908152602001600020600090556001935050505061047f565b600091505061047f565b80516106a69060cb9060208401905b82805461223e90612d15565b90600052602060002090601f01602090048101928261226057600085556122a6565b82601f1061227957805160ff19168380011785556122a6565b828001600101855582156122a6579182015b828111156122a657825182559160200191906001019061228b565b506122b29291506122b6565b5090565b5b808211156122b257600081556001016122b7565b600082601f8301126122db578081fd5b813560206122e882612c60565b6040516122f58282612d50565b8381528281019150858301600585901b87018401881015612314578586fd5b855b8581101561233257813584529284019290840190600101612316565b5090979650505050505050565b600082601f83011261234f578081fd5b813567ffffffffffffffff81111561236957612369612dae565b604051612380601f8301601f191660200182612d50565b818152846020838601011115612394578283fd5b816020850160208301379081016020019190915292915050565b6000602082840312156123bf578081fd5b8135610da081612e66565b6000602082840312156123db578081fd5b8151610da081612e66565b600080604083850312156123f8578081fd5b823561240381612e66565b9150602083013561241381612e66565b809150509250929050565b600080600080600060a08688031215612435578081fd5b853561244081612e66565b9450602086013561245081612e66565b9350604086013567ffffffffffffffff8082111561246c578283fd5b61247889838a016122cb565b9450606088013591508082111561248d578283fd5b61249989838a016122cb565b935060808801359150808211156124ae578283fd5b506124bb8882890161233f565b9150509295509295909350565b600080600080600060a086880312156124df578081fd5b85356124ea81612e66565b945060208601356124fa81612e66565b93506040860135925060608601359150608086013567ffffffffffffffff811115612523578182fd5b6124bb8882890161233f565b60008060408385031215612541578182fd5b823561254c81612e66565b9150602083013561241381612e7b565b6000806040838503121561256e578182fd5b823561257981612e66565b946020939093013593505050565b600080600080600060a0868803121561259e578283fd5b85356125a981612e66565b94506020860135935060408601359250606086013567ffffffffffffffff808211156125d3578283fd5b61249989838a0161233f565b600080604083850312156125f1578182fd5b823567ffffffffffffffff80821115612608578384fd5b818501915085601f83011261261b578384fd5b8135602061262882612c60565b6040516126358282612d50565b8381528281019150858301600585901b870184018b1015612654578889fd5b8896505b8487101561267f57803561266b81612e66565b835260019690960195918301918301612658565b5096505086013592505080821115612695578283fd5b506126a2858286016122cb565b9150509250929050565b6000602082840312156126bd578081fd5b8151610da081612e7b565b6000602082840312156126d9578081fd5b5035919050565b600080604083850312156126f2578182fd5b82359150602083013561241381612e66565b60008060408385031215612716578182fd5b50508035926020909101359150565b600060208284031215612736578081fd5b8135610da081612e89565b600060208284031215612752578081fd5b8151610da081612e89565b6000806040838503121561276f578182fd5b823567ffffffffffffffff80821115612786578384fd5b6127928683870161233f565b935060208501359150808211156127a7578283fd5b506126a28582860161233f565b600080600080600060a086880312156127cb578283fd5b85359450602086013567ffffffffffffffff808211156127e9578485fd5b6127f589838a0161233f565b9550604088013591508082111561280a578485fd5b61281689838a0161233f565b9450606088013591508082111561282b578283fd5b506128388882890161233f565b925050608086013561284981612e66565b809150509295509295909350565b6000815180845260208085019450808401835b838110156128865781518752958201959082019060010161286a565b509495945050505050565b600081518084526128a9816020860160208601612cd2565b601f01601f19169290920160200192915050565b7f416363657373436f6e74726f6c3a206163636f756e74200000000000000000008152600083516128f5816017850160208801612cd2565b7001034b99036b4b9b9b4b733903937b6329607d1b6017918401918201528351612926816028840160208801612cd2565b01602801949350505050565b6001600160a01b0386811682528516602082015260a06040820181905260009061295e90830186612857565b82810360608401526129708186612857565b905082810360808401526129848185612891565b98975050505050505050565b6001600160a01b03868116825285166020820152604081018490526060810183905260a0608082018190526000906129ca90830184612891565b979650505050505050565b6001600160a01b03891681526020810188905261010060408201819052600090612a018382018a612891565b90508281036060840152612a158189612891565b90508281036080840152612a298188612891565b60a0840196909652505060c081019290925260e09091015295945050505050565b60018060a01b038716815285602082015284604082015283606082015260c060808201526000612a7d60c0830185612891565b82810360a0840152612a8f8185612891565b9998505050505050505050565b602081526000610da06020830184612857565b604081526000612ac26040830185612857565b8281036020840152612ad48185612857565b95945050505050565b602081526000610da06020830184612891565b60208082526028908201527f455243313135353a204552433131353552656365697665722072656a656374656040820152676420746f6b656e7360c01b606082015260800190565b6020808252602e908201527f455243313135353a2063616c6c6572206973206e6f7420746f6b656e206f776e60408201526d195c881bdc88185c1c1c9bdd995960921b606082015260800190565b60208082526025908201527f455243313135353a207472616e7366657220746f20746865207a65726f206164604082015264647265737360d81b606082015260800190565b6020808252602a908201527f455243313135353a20696e73756666696369656e742062616c616e636520666f60408201526939103a3930b739b332b960b11b606082015260800190565b6020808252602b908201527f496e697469616c697a61626c653a20636f6e7472616374206973206e6f74206960408201526a6e697469616c697a696e6760a81b606082015260800190565b600067ffffffffffffffff821115612c7a57612c7a612dae565b5060051b60200190565b60008219821115612c9757612c97612d98565b500190565b6000816000190483118215151615612cb657612cb6612d98565b500290565b600082821015612ccd57612ccd612d98565b500390565b60005b83811015612ced578181015183820152602001612cd5565b838111156114055750506000910152565b600081612d0d57612d0d612d98565b506000190190565b600181811c90821680612d2957607f821691505b60208210811415612d4a57634e487b7160e01b600052602260045260246000fd5b50919050565b601f8201601f1916810167ffffffffffffffff81118282101715612d7657612d76612dae565b6040525050565b6000600019821415612d9157612d91612d98565b5060010190565b634e487b7160e01b600052601160045260246000fd5b634e487b7160e01b600052604160045260246000fd5b600060033d1115612dd957600481823e5160e01c5b90565b600060443d1015612dea5790565b6040516003193d81016004833e81513d67ffffffffffffffff8160248401118184111715612e1a57505050505090565b8285019150815181811115612e325750505050505090565b843d8701016020828501011115612e4c5750505050505090565b612e5b60208286010187612d50565b509095945050505050565b6001600160a01b03811681146112e057600080fd5b80151581146112e057600080fd5b6001600160e01b0319811681146112e057600080fdfea264697066735822122063059aae6b3a1db33e7f24283d72bfa29806ebb5d536dc9e4a96ee9a5c20164864736f6c63430008040033",
  "immutableReferences": {},
  "source": "// SPDX-License-Identifier: MIT\n\npragma solidity 0.8.4;\n\nimport \"@openzeppelin/contracts-upgradeable/proxy/utils/Initializable.sol\";\nimport \"@openzeppelin/contracts-upgradeable/token/ERC1155/ERC1155Upgradeable.sol\";\nimport \"@openzeppelin/contracts-upgradeable/access/AccessControlEnumerableUpgradeable.sol\";\nimport \"@openzeppelin/contracts-upgradeable/utils/CountersUpgradeable.sol\";\nimport \"@velocitycareerlabs/permissions-contract/contracts/Permissions.sol\";\n\n/**\n * @dev {ERC721} token, including:\n *\n *  - ability for holders to burn (destroy) their tokens\n *  - a minter role that allows for token minting (creation)\n *  - a pauser role that allows to stop all token transfers\n *  - token ID and URI autogeneration\n *\n * This contract uses {AccessControl} to lock permissioned functions using the\n * different roles - head to its documentation for details.\n *\n * The account that deploys the contract will be granted the minter and pauser\n * roles, as well as the default admin role, which will let it grant both minter\n * and pauser roles to other accounts.\n */\ncontract VerificationCoupon is Initializable, AccessControlEnumerableUpgradeable, ERC1155Upgradeable {\n    address VNF;\n    using CountersUpgradeable for CountersUpgradeable.Counter;\n    bytes32 public constant MINTER_ROLE = keccak256(\"MINTER_ROLE\");\n\n    mapping(uint256 => uint256) private expirationTime;\n\n    mapping(address => uint256[]) private ownerTokens;\n\n    CountersUpgradeable.Counter private _tokenIdTracker;\n\n    string private _tokenName;\n\n    Permissions internal permissions;\n\n    event MintCouponBundle(address owner, uint256 bundleId, uint256 expirationTime, uint256 quantity, string traceId, string ownerDid);\n\n    event BurnCoupon(address owner, uint256 bundleId, string traceId, string caoDid, string burnerDid, uint256 balance, uint256 expirationTime, uint256 burnTime);\n\n    function initialize(string memory tokenName, string memory baseTokenURI) public initializer {\n        ERC1155Upgradeable.__ERC1155_init(baseTokenURI);\n        VNF = msg.sender;\n        _tokenName = tokenName;\n\n        _setupRole(DEFAULT_ADMIN_ROLE, msg.sender);\n        _setupRole(MINTER_ROLE, msg.sender);\n    }\n\n    function setPermissionsAddress(address _permissions) public {\n        require(msg.sender == VNF, \"The caller is not VNF\");\n        permissions = Permissions(_permissions);\n    }\n\n    function getVNF() public view returns (address) {\n        return VNF;\n    }\n\n    function isExpired(uint256 tokenId) public view returns (bool) {\n        return block.timestamp >= expirationTime[tokenId];\n    }\n\n    function getTokenId(address operator) public view returns (uint256) {\n        address primary = permissions.checkOperator(operator);\n        uint256 quantity = ownerTokens[primary].length;\n        require(quantity != 0, \"No available tokens\");\n\n        uint256 lowestTokenId = type(uint256).max;\n        uint256 currentTokenId;\n        for (uint256 i = 0; i < quantity; i++) {\n            currentTokenId = ownerTokens[primary][i];\n            if (!isExpired(currentTokenId) && currentTokenId < lowestTokenId) {\n                lowestTokenId = currentTokenId;\n            }\n        }\n        require(lowestTokenId != type(uint256).max, \"No available tokens\");\n        return lowestTokenId;\n    }\n\n    function removeTokenId(uint256 tokenId, address burnAddress) private {\n        uint256[] storage tokenList = ownerTokens[burnAddress];\n        for (uint256 i = 0; i < tokenList.length; i++) {\n            if (tokenId == tokenList[i]) {\n                tokenList[i] = tokenList[tokenList.length - 1];\n                return tokenList.pop();\n            }\n        }\n    }\n\n    function mint(address to, uint256 _expirationTime, uint256 quantity, string memory traceId, string memory ownerDid) public virtual {\n        require(hasRole(MINTER_ROLE, msg.sender), \"VerificationCoupon: must have a minter role to mint\");\n        require(quantity > 0, \"Invalid quantity\");\n\n        uint256 tokenId = _tokenIdTracker.current();\n        _mint(to, tokenId, quantity, \"\");\n        ownerTokens[to].push(tokenId);\n        expirationTime[tokenId] = _expirationTime;\n        _tokenIdTracker.increment();\n        emit MintCouponBundle(to, tokenId, _expirationTime, quantity, traceId, ownerDid);\n    }\n\n    function burn(uint256 tokenId, string memory traceId, string memory caoDid, string memory burnerDid, address operator) public virtual {\n        require(permissions.checkAddressScope(msg.sender, \"coupon:burn\"), \"Burn: caller does not have coupon:burn permission\");\n        address primary = permissions.checkOperator(operator);\n        require(balanceOf(primary, tokenId) > 0, \"Burn: bundle has no balance\");\n        burnExpiredTokens(primary);\n\n        _burn(primary, tokenId, 1);\n        uint256 balance = balanceOf(primary, tokenId);\n        uint256 expiration = expirationTime[tokenId];\n        if (balance == 0) {\n            delete expirationTime[tokenId];\n            removeTokenId(tokenId, primary);\n        }\n        emit BurnCoupon(primary, tokenId, traceId, caoDid, burnerDid, balance, expiration, block.timestamp);\n    }\n\n    function burnExpiredTokens(address burnAddress) private {\n        uint256 quantity = ownerTokens[burnAddress].length;\n        uint256 currentTokenId;\n        uint256 i = 0;\n        while (i < quantity) {\n            currentTokenId = ownerTokens[burnAddress][i];\n            if (isExpired(currentTokenId)) {\n                uint256 balance = balanceOf(burnAddress, currentTokenId);\n                _burn(burnAddress, currentTokenId, balance);\n                delete expirationTime[currentTokenId];\n                removeTokenId(currentTokenId, burnAddress);\n                quantity--;\n            } else {\n                i++;\n            }\n        }\n    }\n\n    function supportsInterface(bytes4 interfaceId) public view virtual override(AccessControlEnumerableUpgradeable, ERC1155Upgradeable) returns (bool) {\n        return super.supportsInterface(interfaceId);\n    }\n\n    function _getTokenName() public view virtual returns (string memory) {\n        return _tokenName;\n    }\n}\n",
  "sourcePath": "/Users/nassan/s/vclworld/monorepo/contracts/verification-coupon/contracts/VerificationCoupon.sol",
  "compiler": {
    "name": "solc",
    "version": "0.8.4+commit.c7e474f2.Emscripten.clang"
  },
  "schemaVersion": "3.4.16",
  "updatedAt": "2024-07-15T16:12:04.794Z",
  "devdoc": {
    "details": "{ERC721} token, including:  - ability for holders to burn (destroy) their tokens  - a minter role that allows for token minting (creation)  - a pauser role that allows to stop all token transfers  - token ID and URI autogeneration This contract uses {AccessControl} to lock permissioned functions using the different roles - head to its documentation for details. The account that deploys the contract will be granted the minter and pauser roles, as well as the default admin role, which will let it grant both minter and pauser roles to other accounts.",
    "kind": "dev",
    "methods": {
      "balanceOf(address,uint256)": {
        "details": "See {IERC1155-balanceOf}. Requirements: - `account` cannot be the zero address."
      },
      "balanceOfBatch(address[],uint256[])": {
        "details": "See {IERC1155-balanceOfBatch}. Requirements: - `accounts` and `ids` must have the same length."
      },
      "getRoleAdmin(bytes32)": {
        "details": "Returns the admin role that controls `role`. See {grantRole} and {revokeRole}. To change a role's admin, use {_setRoleAdmin}."
      },
      "getRoleMember(bytes32,uint256)": {
        "details": "Returns one of the accounts that have `role`. `index` must be a value between 0 and {getRoleMemberCount}, non-inclusive. Role bearers are not sorted in any particular way, and their ordering may change at any point. WARNING: When using {getRoleMember} and {getRoleMemberCount}, make sure you perform all queries on the same block. See the following https://forum.openzeppelin.com/t/iterating-over-elements-on-enumerableset-in-openzeppelin-contracts/2296[forum post] for more information."
      },
      "getRoleMemberCount(bytes32)": {
        "details": "Returns the number of accounts that have `role`. Can be used together with {getRoleMember} to enumerate all bearers of a role."
      },
      "grantRole(bytes32,address)": {
        "details": "Grants `role` to `account`. If `account` had not been already granted `role`, emits a {RoleGranted} event. Requirements: - the caller must have ``role``'s admin role. May emit a {RoleGranted} event."
      },
      "hasRole(bytes32,address)": {
        "details": "Returns `true` if `account` has been granted `role`."
      },
      "isApprovedForAll(address,address)": {
        "details": "See {IERC1155-isApprovedForAll}."
      },
      "renounceRole(bytes32,address)": {
        "details": "Revokes `role` from the calling account. Roles are often managed via {grantRole} and {revokeRole}: this function's purpose is to provide a mechanism for accounts to lose their privileges if they are compromised (such as when a trusted device is misplaced). If the calling account had been revoked `role`, emits a {RoleRevoked} event. Requirements: - the caller must be `account`. May emit a {RoleRevoked} event."
      },
      "revokeRole(bytes32,address)": {
        "details": "Revokes `role` from `account`. If `account` had been granted `role`, emits a {RoleRevoked} event. Requirements: - the caller must have ``role``'s admin role. May emit a {RoleRevoked} event."
      },
      "safeBatchTransferFrom(address,address,uint256[],uint256[],bytes)": {
        "details": "See {IERC1155-safeBatchTransferFrom}."
      },
      "safeTransferFrom(address,address,uint256,uint256,bytes)": {
        "details": "See {IERC1155-safeTransferFrom}."
      },
      "setApprovalForAll(address,bool)": {
        "details": "See {IERC1155-setApprovalForAll}."
      },
      "uri(uint256)": {
        "details": "See {IERC1155MetadataURI-uri}. This implementation returns the same URI for *all* token types. It relies on the token type ID substitution mechanism https://eips.ethereum.org/EIPS/eip-1155#metadata[defined in the EIP]. Clients calling this function must replace the `\\{id\\}` substring with the actual token type ID."
      }
    },
    "version": 1
  },
  "userdoc": {
    "kind": "user",
    "methods": {},
    "version": 1
  }
}