{
  "contractName": "Permissions",
  "abi": [
    {
      "anonymous": false,
      "inputs": [
        {
          "indexed": false,
          "internalType": "uint8",
          "name": "version",
          "type": "uint8"
        }
      ],
      "name": "Initialized",
      "type": "event"
    },
    {
      "inputs": [],
      "name": "initialize",
      "outputs": [],
      "stateMutability": "nonpayable",
      "type": "function"
    },
    {
      "inputs": [
        {
          "internalType": "address",
          "name": "addr",
          "type": "address"
        }
      ],
      "name": "rotateVNF",
      "outputs": [],
      "stateMutability": "nonpayable",
      "type": "function"
    },
    {
      "inputs": [],
      "name": "getVNF",
      "outputs": [
        {
          "internalType": "address",
          "name": "",
          "type": "address"
        }
      ],
      "stateMutability": "view",
      "type": "function"
    },
    {
      "inputs": [
        {
          "internalType": "address",
          "name": "addr",
          "type": "address"
        },
        {
          "internalType": "string",
          "name": "scope",
          "type": "string"
        }
      ],
      "name": "addAddressScope",
      "outputs": [],
      "stateMutability": "nonpayable",
      "type": "function"
    },
    {
      "inputs": [
        {
          "internalType": "address",
          "name": "addr",
          "type": "address"
        },
        {
          "internalType": "string",
          "name": "scope",
          "type": "string"
        }
      ],
      "name": "removeAddressScope",
      "outputs": [],
      "stateMutability": "nonpayable",
      "type": "function"
    },
    {
      "inputs": [
        {
          "internalType": "address",
          "name": "addr",
          "type": "address"
        },
        {
          "internalType": "string[]",
          "name": "scopesToAdd",
          "type": "string[]"
        },
        {
          "internalType": "string[]",
          "name": "scopesToRemove",
          "type": "string[]"
        }
      ],
      "name": "updateAddressScopes",
      "outputs": [],
      "stateMutability": "nonpayable",
      "type": "function"
    },
    {
      "inputs": [
        {
          "internalType": "address",
          "name": "addr",
          "type": "address"
        },
        {
          "internalType": "string",
          "name": "scope",
          "type": "string"
        }
      ],
      "name": "checkAddressScope",
      "outputs": [
        {
          "internalType": "bool",
          "name": "",
          "type": "bool"
        }
      ],
      "stateMutability": "view",
      "type": "function"
    },
    {
      "inputs": [
        {
          "internalType": "address",
          "name": "primary",
          "type": "address"
        },
        {
          "internalType": "address",
          "name": "permissioning",
          "type": "address"
        },
        {
          "internalType": "address",
          "name": "rotation",
          "type": "address"
        }
      ],
      "name": "addPrimary",
      "outputs": [],
      "stateMutability": "nonpayable",
      "type": "function"
    },
    {
      "inputs": [
        {
          "internalType": "address",
          "name": "primary",
          "type": "address"
        },
        {
          "internalType": "address",
          "name": "newPermissioning",
          "type": "address"
        },
        {
          "internalType": "address",
          "name": "newRotation",
          "type": "address"
        }
      ],
      "name": "rotatePermissioning",
      "outputs": [],
      "stateMutability": "nonpayable",
      "type": "function"
    },
    {
      "inputs": [],
      "name": "getPrimaries",
      "outputs": [
        {
          "internalType": "address[]",
          "name": "",
          "type": "address[]"
        }
      ],
      "stateMutability": "view",
      "type": "function"
    },
    {
      "inputs": [
        {
          "internalType": "address",
          "name": "primary",
          "type": "address"
        },
        {
          "internalType": "address",
          "name": "operator",
          "type": "address"
        }
      ],
      "name": "addOperatorKey",
      "outputs": [],
      "stateMutability": "nonpayable",
      "type": "function"
    },
    {
      "inputs": [
        {
          "internalType": "address",
          "name": "primary",
          "type": "address"
        },
        {
          "internalType": "address",
          "name": "operator",
          "type": "address"
        }
      ],
      "name": "removeOperatorKey",
      "outputs": [],
      "stateMutability": "nonpayable",
      "type": "function"
    },
    {
      "inputs": [
        {
          "internalType": "address",
          "name": "primary",
          "type": "address"
        },
        {
          "internalType": "address",
          "name": "newOperator",
          "type": "address"
        },
        {
          "internalType": "address",
          "name": "oldOperator",
          "type": "address"
        }
      ],
      "name": "rotateOperatorKey",
      "outputs": [],
      "stateMutability": "nonpayable",
      "type": "function"
    },
    {
      "inputs": [
        {
          "internalType": "address",
          "name": "operator",
          "type": "address"
        }
      ],
      "name": "lookupPrimary",
      "outputs": [
        {
          "internalType": "address",
          "name": "",
          "type": "address"
        }
      ],
      "stateMutability": "view",
      "type": "function"
    },
    {
      "inputs": [
        {
          "internalType": "address",
          "name": "operator",
          "type": "address"
        }
      ],
      "name": "checkOperator",
      "outputs": [
        {
          "internalType": "address",
          "name": "",
          "type": "address"
        }
      ],
      "stateMutability": "view",
      "type": "function"
    },
    {
      "inputs": [
        {
          "internalType": "address",
          "name": "operator",
          "type": "address"
        },
        {
          "internalType": "string",
          "name": "scope",
          "type": "string"
        }
      ],
      "name": "checkOperatorWithScope",
      "outputs": [
        {
          "internalType": "address",
          "name": "",
          "type": "address"
        }
      ],
      "stateMutability": "view",
      "type": "function"
    },
    {
      "inputs": [
        {
          "internalType": "address",
          "name": "operator",
          "type": "address"
        },
        {
          "internalType": "string",
          "name": "permission",
          "type": "string"
        }
      ],
      "name": "checkOperatorPermission",
      "outputs": [
        {
          "internalType": "address",
          "name": "",
          "type": "address"
        }
      ],
      "stateMutability": "view",
      "type": "function"
    },
    {
      "inputs": [
        {
          "internalType": "string",
          "name": "a",
          "type": "string"
        },
        {
          "internalType": "string",
          "name": "b",
          "type": "string"
        }
      ],
      "name": "isEqual",
      "outputs": [
        {
          "internalType": "bool",
          "name": "",
          "type": "bool"
        }
      ],
      "stateMutability": "pure",
      "type": "function"
    }
  ],
  "bytecode": "0x608060405234801561001057600080fd5b506112dc806100206000396000f3fe608060405234801561001057600080fd5b50600436106101165760003560e01c80638129fc1c116100a2578063bdb1a73211610071578063bdb1a7321461023c578063c187ce091461024f578063de1ac2fd1461027b578063e8439bf21461028e578063f9f10874146102a157600080fd5b80638129fc1c146101fb5780638c8a986d14610203578063a38a0cf414610216578063a547eca61461022957600080fd5b80633fb384d7116100e95780633fb384d71461018c578063465c41051461019f57806351547891146101c257806356796182146101d55780637146b2ce146101e857600080fd5b806307db6d1b1461011b57806309891c841461014b57806334ca4b641461016057806336f227d514610177575b600080fd5b61012e61012936600461104b565b6102b4565b6040516001600160a01b0390911681526020015b60405180910390f35b6101536103c2565b6040516101429190611127565b6000546201000090046001600160a01b031661012e565b61018a61018536600461104b565b610424565b005b61018a61019a366004610f98565b6104d4565b6101b26101ad366004611097565b6105ad565b6040519015158152602001610142565b61018a6101d036600461104b565b610606565b61018a6101e3366004610f66565b610680565b61018a6101f6366004610f98565b610799565b61018a610859565b61018a610211366004610f98565b610992565b6101b261022436600461104b565b6109e7565b61018a610237366004610fda565b610a28565b61018a61024a366004610f4c565b610b98565b61012e61025d366004610f4c565b6001600160a01b039081166000908152600460205260409020541690565b61012e610289366004610f4c565b610c1a565b61018a61029c366004610f66565b610d48565b61012e6102af36600461104b565b610dac565b60006102cf82604051806020016040528060008152506105ad565b156103325760405162461bcd60e51b815260206004820152602860248201527f5065726d697373696f6e733a207065726d697373696f6e206d6179206e6f7420604482015267626520656d70747960c01b60648201526084015b60405180910390fd5b600061033d84610c1a565b905061034981846109e7565b6103bb5760405162461bcd60e51b815260206004820152603b60248201527f5065726d697373696f6e733a207072696d617279206f66206f70657261746f7260448201527f206c61636b7320726571756573746564207065726d697373696f6e00000000006064820152608401610329565b9392505050565b6060600580548060200260200160405190810160405280929190818152602001828054801561041a57602002820191906000526020600020905b81546001600160a01b031681526001909101906020018083116103fc575b5050505050905090565b6000546201000090046001600160a01b031633146104545760405162461bcd60e51b815260040161032990611174565b816001600160a01b03811661047b5760405162461bcd60e51b8152600401610329906111f7565b6001806000856001600160a01b03166001600160a01b03168152602001908152602001600020836040516104af91906110ee565b908152604051908190036020019020805491151560ff19909216919091179055505050565b6000546201000090046001600160a01b031633146105045760405162461bcd60e51b815260040161032990611174565b826001600160a01b03811661052b5760405162461bcd60e51b8152600401610329906111f7565b506001600160a01b03928316600081815260026020908152604080832080549688166001600160a01b031997881617905560039091528120805493909516928416929092179093556005805460018101825591527f036b6384b5eca791c62761152d0c79bb0604c104a5fb6f4eb0703f3154bb3db00180549091169091179055565b6000816040516020016105c091906110ee565b60405160208183030381529060405280519060200120836040516020016105e791906110ee565b6040516020818303038152906040528051906020012014905092915050565b6000546201000090046001600160a01b031633146106365760405162461bcd60e51b815260040161032990611174565b6001600160a01b038216600090815260016020526040808220905161065c9084906110ee565b908152604051908190036020019020805491151560ff199092169190911790555050565b6001600160a01b0382811660009081526002602052604090205483911633146106bb5760405162461bcd60e51b8152600401610329906111ab565b816001600160a01b0381166106e25760405162461bcd60e51b8152600401610329906111f7565b6001600160a01b0383811660009081526004602052604090205416156107675760405162461bcd60e51b815260206004820152603460248201527f5065726d697373696f6e733a206f70657261746f7220697320616c7265616479604482015273206d617070656420746f2061207072696d61727960601b6064820152608401610329565b50506001600160a01b0390811660009081526004602052604090208054919092166001600160a01b0319909116179055565b6001600160a01b0383811660009081526003602052604090205484911633146108145760405162461bcd60e51b815260206004820152602760248201527f5065726d697373696f6e733a2063616c6c6572206973206e6f7420726f746174604482015266696f6e206b657960c81b6064820152608401610329565b506001600160a01b03928316600090815260026020908152604080832080549587166001600160a01b0319968716179055600390915290208054919093169116179055565b600054610100900460ff16158080156108795750600054600160ff909116105b806108935750303b158015610893575060005460ff166001145b6108f65760405162461bcd60e51b815260206004820152602e60248201527f496e697469616c697a61626c653a20636f6e747261637420697320616c72656160448201526d191e481a5b9a5d1a585b1a5e995960921b6064820152608401610329565b6000805460ff191660011790558015610919576000805461ff0019166101001790555b6000546201000090046001600160a01b0316610949576000805462010000600160b01b0319163362010000021790555b801561098f576000805461ff0019169055604051600181527f7f26b83ff96e1f2b6a682f133852f6798a09c465da95921460cefb38474024989060200160405180910390a15b50565b6001600160a01b0383811660009081526002602052604090205484911633146109cd5760405162461bcd60e51b8152600401610329906111ab565b6109d78483610d48565b6109e18484610680565b50505050565b6001600160a01b0382166000908152600160205260408082209051610a0d9084906110ee565b9081526040519081900360200190205460ff16905092915050565b6000546201000090046001600160a01b03163314610a585760405162461bcd60e51b815260040161032990611174565b60005b8251811015610af7576000838281518110610a8657634e487b7160e01b600052603260045260246000fd5b602002602001015190506001806000876001600160a01b03166001600160a01b0316815260200190815260200160002082604051610ac491906110ee565b908152604051908190036020019020805491151560ff199092169190911790555080610aef81611269565b915050610a5b565b5060005b81518110156109e1576000828281518110610b2657634e487b7160e01b600052603260045260246000fd5b60200260200101519050600060016000876001600160a01b03166001600160a01b0316815260200190815260200160002082604051610b6591906110ee565b908152604051908190036020019020805491151560ff199092169190911790555080610b9081611269565b915050610afb565b6000546201000090046001600160a01b03163314610bc85760405162461bcd60e51b815260040161032990611174565b806001600160a01b038116610bef5760405162461bcd60e51b8152600401610329906111f7565b50600080546001600160a01b03909216620100000262010000600160b01b0319909216919091179055565b6001600160a01b0380821660009081526004602052604081205490911680610c9c5760405162461bcd60e51b815260206004820152602f60248201527f5065726d697373696f6e733a206f70657261746f72206e6f7420706f696e746960448201526e6e6720746f2061207072696d61727960881b6064820152608401610329565b610cd081604051806040016040528060128152602001717472616e73616374696f6e733a777269746560701b8152506109e7565b610d425760405162461bcd60e51b815260206004820152603f60248201527f5065726d697373696f6e733a207072696d617279206f66206f70657261746f7260448201527f206c61636b73207472616e73616374696f6e733a77726974652073636f7065006064820152608401610329565b92915050565b6001600160a01b038281166000908152600260205260409020548391163314610d835760405162461bcd60e51b8152600401610329906111ab565b506001600160a01b0316600090815260046020526040902080546001600160a01b031916905550565b600080610db884610c1a565b9050610dc481846109e7565b6103bb5760405162461bcd60e51b815260206004820152602c60248201527f5065726d697373696f6e733a207072696d617279206f66206f70657261746f7260448201526b206c61636b732073636f706560a01b6064820152608401610329565b80356001600160a01b0381168114610e3c57600080fd5b919050565b600082601f830112610e51578081fd5b8135602067ffffffffffffffff80831115610e6e57610e6e611290565b8260051b610e7d838201611238565b8481528381019087850183890186018a1015610e97578788fd5b8793505b86841015610ed457803585811115610eb1578889fd5b610ebf8b88838d0101610ee1565b84525060019390930192918501918501610e9b565b5098975050505050505050565b600082601f830112610ef1578081fd5b813567ffffffffffffffff811115610f0b57610f0b611290565b610f1e601f8201601f1916602001611238565b818152846020838601011115610f32578283fd5b816020850160208301379081016020019190915292915050565b600060208284031215610f5d578081fd5b6103bb82610e25565b60008060408385031215610f78578081fd5b610f8183610e25565b9150610f8f60208401610e25565b90509250929050565b600080600060608486031215610fac578081fd5b610fb584610e25565b9250610fc360208501610e25565b9150610fd160408501610e25565b90509250925092565b600080600060608486031215610fee578283fd5b610ff784610e25565b9250602084013567ffffffffffffffff80821115611013578384fd5b61101f87838801610e41565b93506040860135915080821115611034578283fd5b5061104186828701610e41565b9150509250925092565b6000806040838503121561105d578182fd5b61106683610e25565b9150602083013567ffffffffffffffff811115611081578182fd5b61108d85828601610ee1565b9150509250929050565b600080604083850312156110a9578182fd5b823567ffffffffffffffff808211156110c0578384fd5b6110cc86838701610ee1565b935060208501359150808211156110e1578283fd5b5061108d85828601610ee1565b60008251815b8181101561110e57602081860181015185830152016110f4565b8181111561111c5782828501525b509190910192915050565b6020808252825182820181905260009190848201906040850190845b818110156111685783516001600160a01b031683529284019291840191600101611143565b50909695505050505050565b6020808252601e908201527f5065726d697373696f6e733a2063616c6c6572206973206e6f7420564e460000604082015260600190565b6020808252602c908201527f5065726d697373696f6e733a2063616c6c6572206973206e6f74207065726d6960408201526b7373696f6e696e67206b657960a01b606082015260800190565b60208082526021908201527f5065726d697373696f6e733a20616464726573732069732030206164647265736040820152607360f81b606082015260800190565b604051601f8201601f1916810167ffffffffffffffff8111828210171561126157611261611290565b604052919050565b600060001982141561128957634e487b7160e01b81526011600452602481fd5b5060010190565b634e487b7160e01b600052604160045260246000fdfea26469706673582212204d8f6d49e70778eed32a3b91e770db604fc5fd2b689be77d096b56039f4b272164736f6c63430008040033",
  "immutableReferences": {},
  "source": "// SPDX-License-Identifier: MIT\npragma solidity 0.8.4;\n\nimport \"@openzeppelin/contracts-upgradeable/proxy/utils/Initializable.sol\";\n\ncontract Permissions is Initializable {\n    address VNF;\n    mapping(address => mapping(string => bool)) private addressToPermissions;\n\n    mapping(address => address) private primaryToPermissioning;\n    mapping(address => address) private primaryToRotation;\n    mapping(address => address) private operatorToPrimary;\n    address[] private primaries;\n\n    modifier non0Address(address addr) {\n        require(addr != address(0), \"Permissions: address is 0 address\");\n        _;\n    }\n\n    modifier onlyVnf() {\n        require(msg.sender == VNF, \"Permissions: caller is not VNF\");\n        _;\n    }\n\n    modifier onlyRotation(address primary) {\n        require(msg.sender == primaryToRotation[primary], \"Permissions: caller is not rotation key\");\n        _;\n    }\n\n    modifier onlyPermissions(address primary) {\n        require(msg.sender == primaryToPermissioning[primary], \"Permissions: caller is not permissioning key\");\n        _;\n    }\n\n    function initialize() public initializer {\n        if (VNF == address(0)) {\n            VNF = msg.sender;\n        }\n    }\n\n    function rotateVNF(address addr) public onlyVnf non0Address(addr) {\n        VNF = addr;\n    }\n\n    function getVNF() public view returns (address) {\n        return VNF;\n    }\n\n    function addAddressScope(address addr, string memory scope) public onlyVnf non0Address(addr) {\n        addressToPermissions[addr][scope] = true;\n    }\n\n    function removeAddressScope(address addr, string memory scope) public onlyVnf {\n        addressToPermissions[addr][scope] = false;\n    }\n\n    function updateAddressScopes(address addr, string[] memory scopesToAdd, string[] memory scopesToRemove) public onlyVnf {\n        for (uint256 i = 0; i < scopesToAdd.length; i++) {\n            string memory scopeToAdd = scopesToAdd[i];\n            addressToPermissions[addr][scopeToAdd] = true;\n        }\n        for (uint256 i = 0; i < scopesToRemove.length; i++) {\n            string memory scopeToRemove = scopesToRemove[i];\n            addressToPermissions[addr][scopeToRemove] = false;\n        }\n    }\n\n    function checkAddressScope(address addr, string memory scope) public view returns (bool) {\n        return addressToPermissions[addr][scope];\n    }\n\n    function addPrimary(address primary, address permissioning, address rotation) public onlyVnf non0Address(primary) {\n        primaryToPermissioning[primary] = permissioning;\n        primaryToRotation[primary] = rotation;\n        primaries.push(primary);\n    }\n\n    function rotatePermissioning(address primary, address newPermissioning, address newRotation) public onlyRotation(primary) {\n        primaryToPermissioning[primary] = newPermissioning;\n        primaryToRotation[primary] = newRotation;\n    }\n\n    function getPrimaries() public view returns (address[] memory) {\n        return primaries;\n    }\n\n    function addOperatorKey(address primary, address operator) public onlyPermissions(primary) non0Address(operator) {\n        require(operatorToPrimary[operator] == address(0), \"Permissions: operator is already mapped to a primary\");\n        operatorToPrimary[operator] = primary;\n    }\n\n    function removeOperatorKey(address primary, address operator) public onlyPermissions(primary) {\n        operatorToPrimary[operator] = address(0);\n    }\n\n    function rotateOperatorKey(address primary, address newOperator, address oldOperator) public onlyPermissions(primary) {\n        removeOperatorKey(primary, oldOperator);\n        addOperatorKey(primary, newOperator);\n    }\n\n    function lookupPrimary(address operator) public view returns (address) {\n        return operatorToPrimary[operator];\n    }\n\n    function checkOperator(address operator) public view returns (address) {\n        address primary = operatorToPrimary[operator];\n        require(primary != address(0), \"Permissions: operator not pointing to a primary\");\n        require(checkAddressScope(primary, \"transactions:write\"), \"Permissions: primary of operator lacks transactions:write scope\");\n        return primary;\n    }\n\n    function checkOperatorWithScope(address operator, string memory scope) public view returns (address) {\n        address primary = checkOperator(operator);\n        require(checkAddressScope(primary, scope), \"Permissions: primary of operator lacks scope\");\n        return primary;\n    }\n\n    function getPermissionOfCredentialTypeHash(bytes2 credentialType) private pure returns (string memory) {\n        string memory permissionCredentialIssue = \"credential:issue\";\n        string memory permissionCredentialIdentityIssue = \"credential:identityissue\";\n        string memory permissionCredentialContactIssue = \"credential:contactissue\";\n\n        if(credentialType == 0x7808) {return permissionCredentialIssue;} // Assessment\n        else if(credentialType == 0x41ec) {return permissionCredentialIssue;} // AssessmentV1.0\n        else if(credentialType == 0xaf29) {return permissionCredentialIssue;} // AssessmentV1.1\n        else if(credentialType == 0x0024) {return permissionCredentialIssue;} // Badge\n        else if(credentialType == 0xc184) {return permissionCredentialIssue;} // BadgeV1.1\n        else if(credentialType == 0x8684) {return permissionCredentialIssue;} // Certification\n        else if(credentialType == 0x5df0) {return permissionCredentialIssue;} // CertificationV1.0\n        else if(credentialType == 0xade9) {return permissionCredentialIssue;} // CertificationV1.1\n        else if(credentialType == 0x2096) {return permissionCredentialIssue;} // Course\n        else if(credentialType == 0xb037) {return permissionCredentialIssue;} // CourseAttendanceV1.0\n        else if(credentialType == 0xc385) {return permissionCredentialIssue;} // CourseAttendanceV1.1\n        else if(credentialType == 0x5f0e) {return permissionCredentialIssue;} // CourseCompletionV1.0\n        else if(credentialType == 0x4b80) {return permissionCredentialIssue;} // CourseCompletionV1.1\n        else if(credentialType == 0xf2dc) {return permissionCredentialIssue;} // CourseRegistrationV1.0\n        else if(credentialType == 0x955b) {return permissionCredentialIssue;} // CourseRegistrationV1.1\n        else if(credentialType == 0x7516) {return permissionCredentialIssue;} // CurrentEmploymentPosition\n        else if(credentialType == 0xeea2) {return permissionCredentialIdentityIssue;} // DriversLicenseV1.0\n        else if(credentialType == 0xb89f) {return permissionCredentialIssue;} // EducationDegree\n        else if(credentialType == 0x294a) {return permissionCredentialIssue;} // EducationDegreeGraduationV1.0\n        else if(credentialType == 0x8642) {return permissionCredentialIssue;} // EducationDegreeGraduationV1.1\n        else if(credentialType == 0x9b9f) {return permissionCredentialIssue;} // EducationDegreeRegistrationV1.0\n        else if(credentialType == 0x5ab6) {return permissionCredentialIssue;} // EducationDegreeRegistrationV1.1\n        else if(credentialType == 0xb139) {return permissionCredentialIssue;} // EducationDegreeStudyV1.0\n        else if(credentialType == 0xa214) {return permissionCredentialIssue;} // EducationDegreeStudyV1.1\n        else if(credentialType == 0x969c) {return permissionCredentialContactIssue;} // Email\n        else if(credentialType == 0x8f07) {return permissionCredentialContactIssue;} // EmailV1.0\n        else if(credentialType == 0x764c) {return permissionCredentialIssue;} // EmploymentCurrentV1.0\n        else if(credentialType == 0xdb4c) {return permissionCredentialIssue;} // EmploymentCurrentV1.1\n        else if(credentialType == 0x7e15) {return permissionCredentialIssue;} // EmploymentPastV1.0\n        else if(credentialType == 0xf4aa) {return permissionCredentialIssue;} // EmploymentPastV1.1\n        else if(credentialType == 0x851f) {return permissionCredentialIdentityIssue;} // IdDocument\n        else if(credentialType == 0xfeab) {return permissionCredentialIdentityIssue;} // IdDocumentV1.0\n        else if(credentialType == 0xefca) {return permissionCredentialIssue;} // LicenseV1.0\n        else if(credentialType == 0xd8ae) {return permissionCredentialIssue;} // LicenseV1.1\n        else if(credentialType == 0xdeef) {return permissionCredentialIdentityIssue;} // NationalIdCardV1.0\n        else if(credentialType == 0x2936) {return permissionCredentialIssue;} // OpenBadgeCredential\n        else if(credentialType == 0x86bf) {return permissionCredentialIssue;} // OpenBadgeV1.0\n        else if(credentialType == 0x5b0e) {return permissionCredentialIssue;} // OpenBadgeV2.0\n        else if(credentialType == 0x7b17) {return permissionCredentialIdentityIssue;} // PassportV1.0\n        else if(credentialType == 0x29d2) {return permissionCredentialIssue;} // PastEmploymentPosition\n        else if(credentialType == 0x63dc) {return permissionCredentialContactIssue;} // Phone\n        else if(credentialType == 0x4ffb) {return permissionCredentialContactIssue;} // PhoneV1.0\n        else if(credentialType == 0xf052) {return permissionCredentialIssue;} // ProofOfAgeV1.0\n        else if(credentialType == 0xa004) {return permissionCredentialIdentityIssue;} // ResidentPermitV1.0\n        return \"\";\n    }\n\n    function checkOperatorPermission(address operator, string memory permission) public view returns (address) {\n        require(!isEqual(permission, \"\"), \"Permissions: permission may not be empty\");\n        address primary = checkOperator(operator);\n        require(checkAddressScope(primary, permission), \"Permissions: primary of operator lacks requested permission\");\n        return primary;\n    }\n\n    function isEqual(string memory a, string memory b) public pure returns (bool) {\n        return (keccak256(abi.encodePacked((a))) == keccak256(abi.encodePacked((b))));\n    }\n}\n",
  "sourcePath": "/Users/nassan/s/vclworld/monorepo/contracts/permissions/contracts/Permissions.sol",
  "compiler": {
    "name": "solc",
    "version": "0.8.4+commit.c7e474f2.Emscripten.clang"
  },
  "schemaVersion": "3.4.16",
  "updatedAt": "2024-07-15T16:11:43.366Z",
  "devdoc": {
    "kind": "dev",
    "methods": {},
    "version": 1
  },
  "userdoc": {
    "kind": "user",
    "methods": {},
    "version": 1
  }
}